{
  "_format": "hh-sol-artifact-1",
  "contractName": "L2Gateway",
  "sourceName": "contracts/l2/L2Gateway.sol",
  "abi": [
    {
      "inputs": [
        {
          "internalType": "address",
          "name": "_l2CrossDomainMessenger",
          "type": "address"
        },
        {
          "internalType": "address",
          "name": "_token",
          "type": "address"
        }
      ],
      "stateMutability": "nonpayable",
      "type": "constructor"
    },
    {
      "anonymous": false,
      "inputs": [
        {
          "indexed": true,
          "internalType": "address",
          "name": "usr",
          "type": "address"
        }
      ],
      "name": "Deny",
      "type": "event"
    },
    {
      "anonymous": false,
      "inputs": [
        {
          "indexed": true,
          "internalType": "address",
          "name": "_to",
          "type": "address"
        },
        {
          "indexed": false,
          "internalType": "uint256",
          "name": "_amount",
          "type": "uint256"
        }
      ],
      "name": "DepositFinalized",
      "type": "event"
    },
    {
      "anonymous": false,
      "inputs": [
        {
          "indexed": false,
          "internalType": "contract iOVM_L1TokenGateway",
          "name": "_l1TokenGateway",
          "type": "address"
        }
      ],
      "name": "Initialized",
      "type": "event"
    },
    {
      "anonymous": false,
      "inputs": [
        {
          "indexed": true,
          "internalType": "address",
          "name": "usr",
          "type": "address"
        }
      ],
      "name": "Rely",
      "type": "event"
    },
    {
      "anonymous": false,
      "inputs": [
        {
          "indexed": true,
          "internalType": "address",
          "name": "_from",
          "type": "address"
        },
        {
          "indexed": false,
          "internalType": "address",
          "name": "_to",
          "type": "address"
        },
        {
          "indexed": false,
          "internalType": "uint256",
          "name": "_amount",
          "type": "uint256"
        }
      ],
      "name": "WithdrawalInitiated",
      "type": "event"
    },
    {
      "inputs": [
        {
          "internalType": "address",
          "name": "",
          "type": "address"
        }
      ],
      "name": "authorized",
      "outputs": [
        {
          "internalType": "bool",
          "name": "",
          "type": "bool"
        }
      ],
      "stateMutability": "view",
      "type": "function"
    },
    {
      "inputs": [],
      "name": "close",
      "outputs": [],
      "stateMutability": "nonpayable",
      "type": "function"
    },
    {
      "inputs": [
        {
          "internalType": "address",
          "name": "usr",
          "type": "address"
        }
      ],
      "name": "deny",
      "outputs": [],
      "stateMutability": "nonpayable",
      "type": "function"
    },
    {
      "inputs": [
        {
          "internalType": "address",
          "name": "_to",
          "type": "address"
        },
        {
          "internalType": "uint256",
          "name": "_amount",
          "type": "uint256"
        }
      ],
      "name": "finalizeDeposit",
      "outputs": [],
      "stateMutability": "nonpayable",
      "type": "function"
    },
    {
      "inputs": [],
      "name": "getFinalizeWithdrawalL1Gas",
      "outputs": [
        {
          "internalType": "uint32",
          "name": "",
          "type": "uint32"
        }
      ],
      "stateMutability": "view",
      "type": "function"
    },
    {
      "inputs": [
        {
          "internalType": "contract iOVM_L1TokenGateway",
          "name": "_l1TokenGateway",
          "type": "address"
        }
      ],
      "name": "init",
      "outputs": [],
      "stateMutability": "nonpayable",
      "type": "function"
    },
    {
      "inputs": [],
      "name": "isOpen",
      "outputs": [
        {
          "internalType": "bool",
          "name": "",
          "type": "bool"
        }
      ],
      "stateMutability": "view",
      "type": "function"
    },
    {
      "inputs": [],
      "name": "l1TokenGateway",
      "outputs": [
        {
          "internalType": "contract iOVM_L1TokenGateway",
          "name": "",
          "type": "address"
        }
      ],
      "stateMutability": "view",
      "type": "function"
    },
    {
      "inputs": [],
      "name": "messenger",
      "outputs": [
        {
          "internalType": "address",
          "name": "",
          "type": "address"
        }
      ],
      "stateMutability": "view",
      "type": "function"
    },
    {
      "inputs": [
        {
          "internalType": "address",
          "name": "usr",
          "type": "address"
        }
      ],
      "name": "rely",
      "outputs": [],
      "stateMutability": "nonpayable",
      "type": "function"
    },
    {
      "inputs": [],
      "name": "token",
      "outputs": [
        {
          "internalType": "contract Mintable",
          "name": "",
          "type": "address"
        }
      ],
      "stateMutability": "view",
      "type": "function"
    },
    {
      "inputs": [
        {
          "internalType": "uint256",
          "name": "_amount",
          "type": "uint256"
        }
      ],
      "name": "withdraw",
      "outputs": [],
      "stateMutability": "nonpayable",
      "type": "function"
    },
    {
      "inputs": [
        {
          "internalType": "address",
          "name": "_to",
          "type": "address"
        },
        {
          "internalType": "uint256",
          "name": "_amount",
          "type": "uint256"
        }
      ],
      "name": "withdrawTo",
      "outputs": [],
      "stateMutability": "nonpayable",
      "type": "function"
    }
  ],
  "bytecode": "0x60a06040526001600360006101000a8162000019620001f1565b8160ff021916908315150217906200003062000256565b5050503480156200004b5760008062000048620002bd565b50505b5060405162001d6638038062001d66833981810160405260408110156200007c5760008062000079620002bd565b50505b8101908080519060200190929190805190602001909291905050508180806000806101000a81620000ac620001f1565b8173ffffffffffffffffffffffffffffffffffffffff021916908373ffffffffffffffffffffffffffffffffffffffff16021790620000ea62000256565b50505050506001600260005a620001006200032d565b73ffffffffffffffffffffffffffffffffffffffff1673ffffffffffffffffffffffffffffffffffffffff16815260200190815260200160002060006101000a816200014b620001f1565b8160ff021916908315150217906200016262000256565b5050505a620001706200032d565b73ffffffffffffffffffffffffffffffffffffffff167fdd0e34038ac38b2a1ce960229778ac48a8719bc900b6c4f8d0475c6e8b385a6060405160405180910390a28073ffffffffffffffffffffffffffffffffffffffff1660808173ffffffffffffffffffffffffffffffffffffffff1660601b8152505050506200038c565b6303daa959598160e01b8152836004820152602081602483336000905af158600e01573d6000803e3d6000fd5b3d6001141558600a015760016000f35b8051935060005b6040811015620002515760008183015260208101905062000235565b505050565b6322bd64c0598160e01b8152836004820152846024820152600081604483336000905af158600e01573d6000803e3d6000fd5b3d6001141558600a015760016000f35b60005b6040811015620002b8576000818301526020810190506200029c565b505050565b632a2a7adb598160e01b8152600481016020815285602082015260005b86811015620002fa578086015181604084010152602081019050620002da565b506020828760640184336000905af158600e01573d6000803e3d6000fd5b3d6001141558600a015760016000f35b505050565b6373509064598160e01b8152602081600483336000905af158600e01573d6000803e3d6000fd5b3d6001141558600a015760016000f35b8051935060005b604081101562000387576000818301526020810190506200036b565b505050565b60805160601c6119b2620003b460003980610e765280610fe8528061114d52506119b26000f3fe608060405234801561001957600080610016611354565b50505b50600436106100d85760003560e01c806365fae35e11610095578063a84ce98c1161006f578063a84ce98c14610310578063b918161114610344578063bdeaf641146103a7578063fc0c546a146103cb576100d8565b806365fae35e1461021f5780638d6e9a5b1461026c5780639c52a7f1146102c3576100d8565b806319ab453c146100e6578063205c2878146101335780632e1a7d4d1461018a5780633cb747bf146101c157806343d726d6146101f557806347535d7b146101ff575b6000806100e3611354565b50505b6101316004803603602081101561010557600080610102611354565b50505b81019080803573ffffffffffffffffffffffffffffffffffffffff1690602001909291905050506103ff565b005b610188600480360360408110156101525760008061014f611354565b50505b81019080803573ffffffffffffffffffffffffffffffffffffffff16906020019092919080359060200190929190505050610554565b005b6101bf600480360360208110156101a9576000806101a6611354565b50505b8101908080359060200190929190505050610604565b005b6101c96106bb565b604051808273ffffffffffffffffffffffffffffffffffffffff16815260200191505060405180910390f35b6101fd6106e6565b005b6102076107ea565b60405180821515815260200191505060405180910390f35b61026a6004803603602081101561023e5760008061023b611354565b50505b81019080803573ffffffffffffffffffffffffffffffffffffffff169060200190929190505050610804565b005b6102c16004803603604081101561028b57600080610288611354565b50505b81019080803573ffffffffffffffffffffffffffffffffffffffff16906020019092919080359060200190929190505050610989565b005b61030e600480360360208110156102e2576000806102df611354565b50505b81019080803573ffffffffffffffffffffffffffffffffffffffff169060200190929190505050610c90565b005b610318610e15565b604051808273ffffffffffffffffffffffffffffffffffffffff16815260200191505060405180910390f35b61038f6004803603602081101561036357600080610360611354565b50505b81019080803573ffffffffffffffffffffffffffffffffffffffff169060200190929190505050610e42565b60405180821515815260200191505060405180910390f35b6103af610e69565b604051808263ffffffff16815260200191505060405180910390f35b6103d3610e74565b604051808273ffffffffffffffffffffffffffffffffffffffff16815260200191505060405180910390f35b600073ffffffffffffffffffffffffffffffffffffffff1660016000906104246113c2565b906101000a900473ffffffffffffffffffffffffffffffffffffffff1673ffffffffffffffffffffffffffffffffffffffff16146104a0576040517f08c379a000000000000000000000000000000000000000000000000000000000815260040161048e90611887565b6040518091039061049d611354565b50505b80600160006101000a816104b26113c2565b8173ffffffffffffffffffffffffffffffffffffffff021916908373ffffffffffffffffffffffffffffffffffffffff160217906104ee611425565b5050507f908408e307fc569b417f6cbec5d5a06f44a0a505ac0479b47d421a4b2fd6a1e6600160009061051f6113c2565b906101000a900473ffffffffffffffffffffffffffffffffffffffff16604051610549919061186c565b60405180910390a150565b600073ffffffffffffffffffffffffffffffffffffffff1660016000906105796113c2565b906101000a900473ffffffffffffffffffffffffffffffffffffffff1673ffffffffffffffffffffffffffffffffffffffff1614156105f6576040517f08c379a00000000000000000000000000000000000000000000000000000000081526004016105e4906118a7565b604051809103906105f3611354565b50505b6106008282610e98565b5050565b600073ffffffffffffffffffffffffffffffffffffffff1660016000906106296113c2565b906101000a900473ffffffffffffffffffffffffffffffffffffffff1673ffffffffffffffffffffffffffffffffffffffff1614156106a6576040517f08c379a0000000000000000000000000000000000000000000000000000000008152600401610694906118a7565b604051809103906106a3611354565b50505b6106b85a6106b261148a565b82610e98565b50565b6000806106c66113c2565b906101000a900473ffffffffffffffffffffffffffffffffffffffff1681565b600260005a6106f361148a565b73ffffffffffffffffffffffffffffffffffffffff1673ffffffffffffffffffffffffffffffffffffffff1681526020019081526020016000206000906107386113c2565b906101000a900460ff166107bd576040517f08c379a00000000000000000000000000000000000000000000000000000000081526004018080602001828103825260188152602001807f4c32476174657761792f6e6f742d617574686f72697a65640000000000000000815250602001915050604051809103906107ba611354565b50505b6000600360006101000a816107d06113c2565b8160ff021916908315150217906107e5611425565b505050565b60036000906107f76113c2565b906101000a900460ff1681565b600260005a61081161148a565b73ffffffffffffffffffffffffffffffffffffffff1673ffffffffffffffffffffffffffffffffffffffff1681526020019081526020016000206000906108566113c2565b906101000a900460ff166108db576040517f08c379a00000000000000000000000000000000000000000000000000000000081526004018080602001828103825260188152602001807f4c32476174657761792f6e6f742d617574686f72697a65640000000000000000815250602001915050604051809103906108d8611354565b50505b6001600260008373ffffffffffffffffffffffffffffffffffffffff1673ffffffffffffffffffffffffffffffffffffffff16815260200190815260200160002060006101000a8161092b6113c2565b8160ff02191690831515021790610940611425565b5050508073ffffffffffffffffffffffffffffffffffffffff167fdd0e34038ac38b2a1ce960229778ac48a8719bc900b6c4f8d0475c6e8b385a6060405160405180910390a250565b600073ffffffffffffffffffffffffffffffffffffffff1660016000906109ae6113c2565b906101000a900473ffffffffffffffffffffffffffffffffffffffff1673ffffffffffffffffffffffffffffffffffffffff161415610a2b576040517f08c379a0000000000000000000000000000000000000000000000000000000008152600401610a19906118a7565b60405180910390610a28611354565b50505b6001600090610a386113c2565b906101000a900473ffffffffffffffffffffffffffffffffffffffff16610a5d610fb6565b73ffffffffffffffffffffffffffffffffffffffff165a610a7c61148a565b73ffffffffffffffffffffffffffffffffffffffff1614610af1576040517f08c379a000000000000000000000000000000000000000000000000000000000815260040180806020018281038252602e815260200180611954602e913960400191505060405180910390610aee611354565b50505b8073ffffffffffffffffffffffffffffffffffffffff16610b10610fb6565b73ffffffffffffffffffffffffffffffffffffffff16636e296e456040518163ffffffff1660e01b81526004016020604051808303818680610b506114e7565b158015610b6557600080610b62611354565b50505b505a610b6f61154a565b5050505050158015610b8e573d6000803e3d6000610b8b611354565b50505b505050506040513d6020811015610bad57600080610baa611354565b50505b810190808051906020019092919050505073ffffffffffffffffffffffffffffffffffffffff1614610c33576040517f08c379a00000000000000000000000000000000000000000000000000000000081526004018080602001828103825260308152602001806119826030913960400191505060405180910390610c30611354565b50505b610c3d8383610fe6565b8273ffffffffffffffffffffffffffffffffffffffff167f162eb12ad2bd8b6ca7960f162208414ab3bc2da9f37953788ffd8cf850c3492b83604051610c8391906118c7565b60405180910390a2505050565b600260005a610c9d61148a565b73ffffffffffffffffffffffffffffffffffffffff1673ffffffffffffffffffffffffffffffffffffffff168152602001908152602001600020600090610ce26113c2565b906101000a900460ff16610d67576040517f08c379a00000000000000000000000000000000000000000000000000000000081526004018080602001828103825260188152602001807f4c32476174657761792f6e6f742d617574686f72697a6564000000000000000081525060200191505060405180910390610d64611354565b50505b6000600260008373ffffffffffffffffffffffffffffffffffffffff1673ffffffffffffffffffffffffffffffffffffffff16815260200190815260200160002060006101000a81610db76113c2565b8160ff02191690831515021790610dcc611425565b5050508073ffffffffffffffffffffffffffffffffffffffff167f184450df2e323acec0ed3b5c7531b81f9b4cdef7914dfd4c0a4317416bb5251b60405160405180910390a250565b6001600090610e226113c2565b906101000a900473ffffffffffffffffffffffffffffffffffffffff1681565b600260205280600052604060002060009150610e5c6113c2565b906101000a900460ff1681565b6000620186a0905090565b7f000000000000000000000000000000000000000000000000000000000000000081565b610ea282826110b9565b600063f4f7b41a60e01b8383604051602401610ebf929190611843565b604051602081830303815290604052907bffffffffffffffffffffffffffffffffffffffffffffffffffffffff19166020820180517bffffffffffffffffffffffffffffffffffffffffffffffffffffffff83818316178352505050509050610f596001600090610f2e6113c2565b906101000a900473ffffffffffffffffffffffffffffffffffffffff1682610f54610e69565b611226565b5a610f6261148a565b73ffffffffffffffffffffffffffffffffffffffff167fbb2689ff876f7ef453cf8865dde5ab10349d222e2e1383c5152fbdb083f02da28484604051610fa9929190611843565b60405180910390a2505050565b600080600090610fc46113c2565b906101000a900473ffffffffffffffffffffffffffffffffffffffff16905090565b7f000000000000000000000000000000000000000000000000000000000000000073ffffffffffffffffffffffffffffffffffffffff166340c10f1983836040518363ffffffff1660e01b8152600401808373ffffffffffffffffffffffffffffffffffffffff16815260200182815260200192505050600060405180830381600087806110726114e7565b15801561108757600080611084611354565b50505b505a61109161164a565b5050505050501580156110b1573d6000803e3d60006110ae611354565b50505b505050505050565b60036000906110c66113c2565b906101000a900460ff1661114b576040517f08c379a00000000000000000000000000000000000000000000000000000000081526004018080602001828103825260108152602001807f4c32476174657761792f636c6f7365640000000000000000000000000000000081525060200191505060405180910390611148611354565b50505b7f000000000000000000000000000000000000000000000000000000000000000073ffffffffffffffffffffffffffffffffffffffff16639dc29fac5a61119061148a565b836040518363ffffffff1660e01b8152600401808373ffffffffffffffffffffffffffffffffffffffff16815260200182815260200192505050600060405180830381600087806111df6114e7565b1580156111f4576000806111f1611354565b50505b505a6111fe61164a565b50505050505015801561121e573d6000803e3d600061121b611354565b50505b505050505050565b61122e610fb6565b73ffffffffffffffffffffffffffffffffffffffff16633dbb202b8484846040518463ffffffff1660e01b8152600401808473ffffffffffffffffffffffffffffffffffffffff168152602001806020018363ffffffff168152602001828103825284818151815260200191508051906020019080838360005b838110156112c35780820151818401526020810190506112a8565b50505050905090810190601f1680156112f05780820380516001836020036101000a031916815260200191505b509450505050506000604051808303816000878061130c6114e7565b1580156113215760008061131e611354565b50505b505a61132b61164a565b50505050505015801561134b573d6000803e3d6000611348611354565b50505b50505050505050565b632a2a7adb598160e01b8152600481016020815285602082015260005b8681101561138f578086015181604084010152602081019050611371565b506020828760640184336000905af158600e01573d6000803e3d6000fd5b3d6001141558600a015760016000f35b505050565b6303daa959598160e01b8152836004820152602081602483336000905af158600e01573d6000803e3d6000fd5b3d6001141558600a015760016000f35b8051935060005b604081101561142057600081830152602081019050611406565b505050565b6322bd64c0598160e01b8152836004820152846024820152600081604483336000905af158600e01573d6000803e3d6000fd5b3d6001141558600a015760016000f35b60005b60408110156114855760008183015260208101905061146b565b505050565b6373509064598160e01b8152602081600483336000905af158600e01573d6000803e3d6000fd5b3d6001141558600a015760016000f35b8051935060005b60408110156114e2576000818301526020810190506114c8565b505050565b638435035b598160e01b8152836004820152602081602483336000905af158600e01573d6000803e3d6000fd5b3d6001141558600a015760016000f35b8051935060005b60408110156115455760008183015260208101905061152b565b505050565b638540661f598160e01b8152611589565b60008190508183111561156c578290505b92915050565b600081905081831015611583578290505b92915050565b836004820152846024820152606060448201528660648201526084810160005b888110156115c45780880151818301526020810190506115a9565b506060828960a40184336000905af158600e01573d6000803e3d6000fd5b3d6001141558600a015760016000f35b815160408301513d6000853e8b8b82606087013350600060045af150596116198d3d611572565b8c01611625818761155b565b5b8281101561163d5760008152602081019050611626565b50839d5050505050505050565b6385979f76598160e01b8152611689565b60008190508183111561166c578290505b92915050565b600081905081831015611683578290505b92915050565b836004820152846024820152606060448201528760648201526084810160005b898110156116c45780890151818301526020810190506116a9565b506060828a60a40184336000905af158600e01573d6000803e3d6000fd5b3d6001141558600a015760016000f35b815160408301513d6000853e8c8c82606087013350600060045af150596117198e3d611672565b8d01611725818761165b565b5b8281101561173d5760008152602081019050611726565b50839e5050505050505050565b611753816118f3565b82525050565b6117628161192f565b82525050565b60006117756025836118e2565b91507f436f6e74726163742068617320616c7265616479206265656e20696e6974696160008301527f6c697a65640000000000000000000000000000000000000000000000000000006020830152604082019050919050565b60006117db6025836118e2565b91507f436f6e747261637420686173206e6f7420796574206265656e20696e6974696160008301527f6c697a65640000000000000000000000000000000000000000000000000000006020830152604082019050919050565b61183d81611925565b82525050565b6000604082019050611858600083018561174a565b6118656020830184611834565b9392505050565b60006020820190506118816000830184611759565b92915050565b600060208201905081810360008301526118a081611768565b9050919050565b600060208201905081810360008301526118c0816117ce565b9050919050565b60006020820190506118dc6000830184611834565b92915050565b600082825260208201905092915050565b60006118fe82611905565b9050919050565b600073ffffffffffffffffffffffffffffffffffffffff82169050919050565b6000819050919050565b600061193a82611941565b9050919050565b600061194c82611905565b905091905056fe4f564d5f58434841494e3a206d657373656e67657220636f6e747261637420756e61757468656e746963617465644f564d5f58434841494e3a2077726f6e672073656e646572206f662063726f73732d646f6d61696e206d657373616765",
  "linkReferences": {},
  "deployedLinkReferences": {}
}