{
  "_format": "hh-sol-artifact-1",
  "contractName": "L1GatewayRegistry",
  "sourceName": "contracts/l1/L1GatewayRegistry.sol",
  "abi": [
    {
      "anonymous": false,
      "inputs": [
        {
          "indexed": true,
          "internalType": "address",
          "name": "l1Gatway",
          "type": "address"
        },
        {
          "indexed": true,
          "internalType": "address",
          "name": "l2Gatway",
          "type": "address"
        }
      ],
      "name": "GatewayRegistered",
      "type": "event"
    },
    {
      "inputs": [
        {
          "internalType": "address",
          "name": "l1Gateway",
          "type": "address"
        },
        {
          "internalType": "address",
          "name": "l2Gateway",
          "type": "address"
        }
      ],
      "name": "register",
      "outputs": [],
      "stateMutability": "nonpayable",
      "type": "function"
    },
    {
      "inputs": [
        {
          "internalType": "address",
          "name": "",
          "type": "address"
        },
        {
          "internalType": "address",
          "name": "",
          "type": "address"
        }
      ],
      "name": "registered",
      "outputs": [
        {
          "internalType": "bool",
          "name": "",
          "type": "bool"
        }
      ],
      "stateMutability": "view",
      "type": "function"
    }
  ],
  "bytecode": "0x60806040523480156100195760008061001661001f565b50505b5061008d565b632a2a7adb598160e01b8152600481016020815285602082015260005b8681101561005a57808601518160408401015260208101905061003c565b506020828760640184336000905af158600e01573d6000803e3d6000fd5b3d6001141558600a015760016000f35b505050565b6106558061009c6000396000f3fe6080604052348015610019576000806100166104d7565b50505b506004361061003f5760003560e01c806388ad92371461004d578063aa677354146100d0575b60008061004a6104d7565b50505b6100b86004803603604081101561006c576000806100696104d7565b50505b81019080803573ffffffffffffffffffffffffffffffffffffffff169060200190929190803573ffffffffffffffffffffffffffffffffffffffff16906020019092919050505061013d565b60405180821515815260200191505060405180910390f35b61013b600480360360408110156100ef576000806100ec6104d7565b50505b81019080803573ffffffffffffffffffffffffffffffffffffffff169060200190929190803573ffffffffffffffffffffffffffffffffffffffff169060200190929190505050610173565b005b600060205281600052604060002060205280600052604060002060009150915090610166610545565b906101000a900460ff1681565b8073ffffffffffffffffffffffffffffffffffffffff168273ffffffffffffffffffffffffffffffffffffffff161415610201576040517f08c379a000000000000000000000000000000000000000000000000000000000815260040180806020018281038252602381526020018061063260239139604001915050604051809103906101fe6104d7565b50505b600073ffffffffffffffffffffffffffffffffffffffff168273ffffffffffffffffffffffffffffffffffffffff161415801561026b5750600073ffffffffffffffffffffffffffffffffffffffff168173ffffffffffffffffffffffffffffffffffffffff1614155b6102e6576040517f08c379a000000000000000000000000000000000000000000000000000000000815260040180806020018281038252601e8152602001807f4c314761746577617952656769737472792f7a65726f2d616464726573730000815250602001915050604051809103906102e36104d7565b50505b6000808373ffffffffffffffffffffffffffffffffffffffff1673ffffffffffffffffffffffffffffffffffffffff16815260200190815260200160002060008273ffffffffffffffffffffffffffffffffffffffff1673ffffffffffffffffffffffffffffffffffffffff16815260200190815260200160002060009061036c610545565b906101000a900460ff16156103d5576040517f08c379a000000000000000000000000000000000000000000000000000000000815260040180806020018281038252602481526020018061060e60249139604001915050604051809103906103d26104d7565b50505b60016000808473ffffffffffffffffffffffffffffffffffffffff1673ffffffffffffffffffffffffffffffffffffffff16815260200190815260200160002060008373ffffffffffffffffffffffffffffffffffffffff1673ffffffffffffffffffffffffffffffffffffffff16815260200190815260200160002060006101000a81610461610545565b8160ff021916908315150217906104766105a8565b5050508073ffffffffffffffffffffffffffffffffffffffff168273ffffffffffffffffffffffffffffffffffffffff167f95f86f0783d4494f76a6aeaa178c399f2c6a140aa3e88d39f056b00f460d359a60405160405180910390a35050565b632a2a7adb598160e01b8152600481016020815285602082015260005b868110156105125780860151816040840101526020810190506104f4565b506020828760640184336000905af158600e01573d6000803e3d6000fd5b3d6001141558600a015760016000f35b505050565b6303daa959598160e01b8152836004820152602081602483336000905af158600e01573d6000803e3d6000fd5b3d6001141558600a015760016000f35b8051935060005b60408110156105a357600081830152602081019050610589565b505050565b6322bd64c0598160e01b8152836004820152846024820152600081604483336000905af158600e01573d6000803e3d6000fd5b3d6001141558600a015760016000f35b60005b6040811015610608576000818301526020810190506105ee565b50505056fe4c314761746577617952656769737472792f616c72656164792d726567697374657265644c314761746577617952656769737472792f6964656e746963616c2d61646472657373",
  "linkReferences": {},
  "deployedLinkReferences": {}
}