{
  "_format": "hh-sol-artifact-1",
  "contractName": "L1Escrow",
  "sourceName": "contracts/l1/L1Escrow.sol",
  "abi": [
    {
      "inputs": [],
      "stateMutability": "nonpayable",
      "type": "constructor"
    },
    {
      "anonymous": false,
      "inputs": [
        {
          "indexed": true,
          "internalType": "address",
          "name": "token",
          "type": "address"
        },
        {
          "indexed": true,
          "internalType": "address",
          "name": "spender",
          "type": "address"
        },
        {
          "indexed": false,
          "internalType": "uint256",
          "name": "value",
          "type": "uint256"
        }
      ],
      "name": "Approve",
      "type": "event"
    },
    {
      "anonymous": false,
      "inputs": [
        {
          "indexed": true,
          "internalType": "address",
          "name": "usr",
          "type": "address"
        }
      ],
      "name": "Deny",
      "type": "event"
    },
    {
      "anonymous": false,
      "inputs": [
        {
          "indexed": true,
          "internalType": "address",
          "name": "usr",
          "type": "address"
        }
      ],
      "name": "Rely",
      "type": "event"
    },
    {
      "inputs": [
        {
          "internalType": "address",
          "name": "token",
          "type": "address"
        },
        {
          "internalType": "address",
          "name": "spender",
          "type": "address"
        },
        {
          "internalType": "uint256",
          "name": "value",
          "type": "uint256"
        }
      ],
      "name": "approve",
      "outputs": [],
      "stateMutability": "nonpayable",
      "type": "function"
    },
    {
      "inputs": [
        {
          "internalType": "address",
          "name": "",
          "type": "address"
        }
      ],
      "name": "authorized",
      "outputs": [
        {
          "internalType": "bool",
          "name": "",
          "type": "bool"
        }
      ],
      "stateMutability": "view",
      "type": "function"
    },
    {
      "inputs": [
        {
          "internalType": "address",
          "name": "usr",
          "type": "address"
        }
      ],
      "name": "deny",
      "outputs": [],
      "stateMutability": "nonpayable",
      "type": "function"
    },
    {
      "inputs": [
        {
          "internalType": "address",
          "name": "usr",
          "type": "address"
        }
      ],
      "name": "rely",
      "outputs": [],
      "stateMutability": "nonpayable",
      "type": "function"
    }
  ],
  "bytecode": "0x6080604052348015610019576000806100166100d9565b50505b5060016000805a610028610147565b73ffffffffffffffffffffffffffffffffffffffff1673ffffffffffffffffffffffffffffffffffffffff16815260200190815260200160002060006101000a816100716101a4565b8160ff02191690831515021790610086610207565b5050505a610092610147565b73ffffffffffffffffffffffffffffffffffffffff167fdd0e34038ac38b2a1ce960229778ac48a8719bc900b6c4f8d0475c6e8b385a6060405160405180910390a261026c565b632a2a7adb598160e01b8152600481016020815285602082015260005b868110156101145780860151816040840101526020810190506100f6565b506020828760640184336000905af158600e01573d6000803e3d6000fd5b3d6001141558600a015760016000f35b505050565b6373509064598160e01b8152602081600483336000905af158600e01573d6000803e3d6000fd5b3d6001141558600a015760016000f35b8051935060005b604081101561019f57600081830152602081019050610185565b505050565b6303daa959598160e01b8152836004820152602081602483336000905af158600e01573d6000803e3d6000fd5b3d6001141558600a015760016000f35b8051935060005b6040811015610202576000818301526020810190506101e8565b505050565b6322bd64c0598160e01b8152836004820152846024820152600081604483336000905af158600e01573d6000803e3d6000fd5b3d6001141558600a015760016000f35b60005b60408110156102675760008183015260208101905061024d565b505050565b6109e98061027b6000396000f3fe6080604052348015610019576000806100166106f3565b50505b50600436106100555760003560e01c806365fae35e146100635780639c52a7f1146100b0578063b9181611146100fd578063e1f21c6714610160575b6000806100606106f3565b50505b6100ae600480360360208110156100825760008061007f6106f3565b50505b81019080803573ffffffffffffffffffffffffffffffffffffffff1690602001909291905050506101d7565b005b6100fb600480360360208110156100cf576000806100cc6106f3565b50505b81019080803573ffffffffffffffffffffffffffffffffffffffff16906020019092919050505061035a565b005b6101486004803603602081101561011c576000806101196106f3565b50505b81019080803573ffffffffffffffffffffffffffffffffffffffff1690602001909291905050506104dd565b60405180821515815260200191505060405180910390f35b6101d56004803603606081101561017f5760008061017c6106f3565b50505b81019080803573ffffffffffffffffffffffffffffffffffffffff169060200190929190803573ffffffffffffffffffffffffffffffffffffffff16906020019092919080359060200190929190505050610504565b005b6000805a6101e3610761565b73ffffffffffffffffffffffffffffffffffffffff1673ffffffffffffffffffffffffffffffffffffffff1681526020019081526020016000206000906102286107be565b906101000a900460ff166102ad576040517f08c379a00000000000000000000000000000000000000000000000000000000081526004018080602001828103825260178152602001807f4c31457363726f772f6e6f742d617574686f72697a6564000000000000000000815250602001915050604051809103906102aa6106f3565b50505b60016000808373ffffffffffffffffffffffffffffffffffffffff1673ffffffffffffffffffffffffffffffffffffffff16815260200190815260200160002060006101000a816102fc6107be565b8160ff02191690831515021790610311610821565b5050508073ffffffffffffffffffffffffffffffffffffffff167fdd0e34038ac38b2a1ce960229778ac48a8719bc900b6c4f8d0475c6e8b385a6060405160405180910390a250565b6000805a610366610761565b73ffffffffffffffffffffffffffffffffffffffff1673ffffffffffffffffffffffffffffffffffffffff1681526020019081526020016000206000906103ab6107be565b906101000a900460ff16610430576040517f08c379a00000000000000000000000000000000000000000000000000000000081526004018080602001828103825260178152602001807f4c31457363726f772f6e6f742d617574686f72697a65640000000000000000008152506020019150506040518091039061042d6106f3565b50505b60008060008373ffffffffffffffffffffffffffffffffffffffff1673ffffffffffffffffffffffffffffffffffffffff16815260200190815260200160002060006101000a8161047f6107be565b8160ff02191690831515021790610494610821565b5050508073ffffffffffffffffffffffffffffffffffffffff167f184450df2e323acec0ed3b5c7531b81f9b4cdef7914dfd4c0a4317416bb5251b60405160405180910390a250565b6000602052806000526040600020600091506104f76107be565b906101000a900460ff1681565b6000805a610510610761565b73ffffffffffffffffffffffffffffffffffffffff1673ffffffffffffffffffffffffffffffffffffffff1681526020019081526020016000206000906105556107be565b906101000a900460ff166105da576040517f08c379a00000000000000000000000000000000000000000000000000000000081526004018080602001828103825260178152602001807f4c31457363726f772f6e6f742d617574686f72697a6564000000000000000000815250602001915050604051809103906105d76106f3565b50505b8173ffffffffffffffffffffffffffffffffffffffff168373ffffffffffffffffffffffffffffffffffffffff167f6e11fb1b7f119e3f2fa29896ef5fdf8b8a2d0d4df6fe90ba8668e7d8b2ffa25e836040518082815260200191505060405180910390a38273ffffffffffffffffffffffffffffffffffffffff1663095ea7b383836040518363ffffffff1660e01b8152600401808373ffffffffffffffffffffffffffffffffffffffff16815260200182815260200192505050600060405180830381600087806106ab610886565b1580156106c0576000806106bd6106f3565b50505b505a6106ca6108e9565b5050505050501580156106ea573d6000803e3d60006106e76106f3565b50505b50505050505050565b632a2a7adb598160e01b8152600481016020815285602082015260005b8681101561072e578086015181604084010152602081019050610710565b506020828760640184336000905af158600e01573d6000803e3d6000fd5b3d6001141558600a015760016000f35b505050565b6373509064598160e01b8152602081600483336000905af158600e01573d6000803e3d6000fd5b3d6001141558600a015760016000f35b8051935060005b60408110156107b95760008183015260208101905061079f565b505050565b6303daa959598160e01b8152836004820152602081602483336000905af158600e01573d6000803e3d6000fd5b3d6001141558600a015760016000f35b8051935060005b604081101561081c57600081830152602081019050610802565b505050565b6322bd64c0598160e01b8152836004820152846024820152600081604483336000905af158600e01573d6000803e3d6000fd5b3d6001141558600a015760016000f35b60005b604081101561088157600081830152602081019050610867565b505050565b638435035b598160e01b8152836004820152602081602483336000905af158600e01573d6000803e3d6000fd5b3d6001141558600a015760016000f35b8051935060005b60408110156108e4576000818301526020810190506108ca565b505050565b6385979f76598160e01b8152610928565b60008190508183111561090b578290505b92915050565b600081905081831015610922578290505b92915050565b836004820152846024820152606060448201528760648201526084810160005b89811015610963578089015181830152602081019050610948565b506060828a60a40184336000905af158600e01573d6000803e3d6000fd5b3d6001141558600a015760016000f35b815160408301513d6000853e8c8c82606087013350600060045af150596109b88e3d610911565b8d016109c481876108fa565b5b828110156109dc57600081526020810190506109c5565b50839e505050505050505056",
  "linkReferences": {},
  "deployedLinkReferences": {}
}