{
  "_format": "hh-sol-artifact-1",
  "contractName": "OVM_L2CrossDomainMessenger",
  "sourceName": "@eth-optimism/contracts/OVM/bridge/messaging/OVM_L2CrossDomainMessenger.sol",
  "abi": [
    {
      "inputs": [
        {
          "internalType": "address",
          "name": "_libAddressManager",
          "type": "address"
        }
      ],
      "stateMutability": "nonpayable",
      "type": "constructor"
    },
    {
      "anonymous": false,
      "inputs": [
        {
          "indexed": false,
          "internalType": "bytes32",
          "name": "msgHash",
          "type": "bytes32"
        }
      ],
      "name": "FailedRelayedMessage",
      "type": "event"
    },
    {
      "anonymous": false,
      "inputs": [
        {
          "indexed": false,
          "internalType": "bytes32",
          "name": "msgHash",
          "type": "bytes32"
        }
      ],
      "name": "RelayedMessage",
      "type": "event"
    },
    {
      "anonymous": false,
      "inputs": [
        {
          "indexed": false,
          "internalType": "bytes",
          "name": "message",
          "type": "bytes"
        }
      ],
      "name": "SentMessage",
      "type": "event"
    },
    {
      "inputs": [],
      "name": "libAddressManager",
      "outputs": [
        {
          "internalType": "contract Lib_AddressManager",
          "name": "",
          "type": "address"
        }
      ],
      "stateMutability": "view",
      "type": "function"
    },
    {
      "inputs": [],
      "name": "messageNonce",
      "outputs": [
        {
          "internalType": "uint256",
          "name": "",
          "type": "uint256"
        }
      ],
      "stateMutability": "view",
      "type": "function"
    },
    {
      "inputs": [
        {
          "internalType": "address",
          "name": "_target",
          "type": "address"
        },
        {
          "internalType": "address",
          "name": "_sender",
          "type": "address"
        },
        {
          "internalType": "bytes",
          "name": "_message",
          "type": "bytes"
        },
        {
          "internalType": "uint256",
          "name": "_messageNonce",
          "type": "uint256"
        }
      ],
      "name": "relayMessage",
      "outputs": [],
      "stateMutability": "nonpayable",
      "type": "function"
    },
    {
      "inputs": [
        {
          "internalType": "bytes32",
          "name": "",
          "type": "bytes32"
        }
      ],
      "name": "relayedMessages",
      "outputs": [
        {
          "internalType": "bool",
          "name": "",
          "type": "bool"
        }
      ],
      "stateMutability": "view",
      "type": "function"
    },
    {
      "inputs": [
        {
          "internalType": "string",
          "name": "_name",
          "type": "string"
        }
      ],
      "name": "resolve",
      "outputs": [
        {
          "internalType": "address",
          "name": "",
          "type": "address"
        }
      ],
      "stateMutability": "view",
      "type": "function"
    },
    {
      "inputs": [
        {
          "internalType": "address",
          "name": "_target",
          "type": "address"
        },
        {
          "internalType": "bytes",
          "name": "_message",
          "type": "bytes"
        },
        {
          "internalType": "uint32",
          "name": "_gasLimit",
          "type": "uint32"
        }
      ],
      "name": "sendMessage",
      "outputs": [],
      "stateMutability": "nonpayable",
      "type": "function"
    },
    {
      "inputs": [
        {
          "internalType": "bytes32",
          "name": "",
          "type": "bytes32"
        }
      ],
      "name": "sentMessages",
      "outputs": [
        {
          "internalType": "bool",
          "name": "",
          "type": "bool"
        }
      ],
      "stateMutability": "view",
      "type": "function"
    },
    {
      "inputs": [
        {
          "internalType": "bytes32",
          "name": "",
          "type": "bytes32"
        }
      ],
      "name": "successfulMessages",
      "outputs": [
        {
          "internalType": "bool",
          "name": "",
          "type": "bool"
        }
      ],
      "stateMutability": "view",
      "type": "function"
    },
    {
      "inputs": [],
      "name": "xDomainMessageSender",
      "outputs": [
        {
          "internalType": "address",
          "name": "",
          "type": "address"
        }
      ],
      "stateMutability": "view",
      "type": "function"
    }
  ],
  "bytecode": "0x608060405261dead600460006101000a816200001a6200010a565b8173ffffffffffffffffffffffffffffffffffffffff021916908373ffffffffffffffffffffffffffffffffffffffff16021790620000586200016f565b505050348015620000735760008062000070620001d6565b50505b5060405162001d7c38038062001d7c83398181016040528101906200009991906200025d565b8080600560006101000a81620000ae6200010a565b8173ffffffffffffffffffffffffffffffffffffffff021916908373ffffffffffffffffffffffffffffffffffffffff16021790620000ec6200016f565b50505050600160068190620001006200016f565b50505050620002ed565b6303daa959598160e01b8152836004820152602081602483336000905af158600e01573d6000803e3d6000fd5b3d6001141558600a015760016000f35b8051935060005b60408110156200016a576000818301526020810190506200014e565b505050565b6322bd64c0598160e01b8152836004820152846024820152600081604483336000905af158600e01573d6000803e3d6000fd5b3d6001141558600a015760016000f35b60005b6040811015620001d157600081830152602081019050620001b5565b505050565b632a2a7adb598160e01b8152600481016020815285602082015260005b8681101562000213578086015181604084010152602081019050620001f3565b506020828760640184336000905af158600e01573d6000803e3d6000fd5b3d6001141558600a015760016000f35b505050565b6000815190506200025781620002c8565b92915050565b6000602082840312156200027b5760008062000278620001d6565b50505b60006200028b8482850162000246565b91505092915050565b6000620002a182620002a8565b9050919050565b600073ffffffffffffffffffffffffffffffffffffffff82169050919050565b620002d38162000294565b8114620002ea57600080620002e7620001d6565b50505b50565b611a7f80620002fd6000396000f3fe608060405234801561001957600080610016610d0d565b50505b506004361061009c5760003560e01c80636e296e451161006f5780636e296e451461014457806382e3702d14610162578063b1b1b20914610192578063cbd4ece9146101c2578063ecc70428146101de5761009c565b806321d800ec146100aa578063299ca478146100da5780633dbb202b146100f8578063461a447814610114575b6000806100a7610d0d565b50505b6100c460048036038101906100bf91906113f5565b6101fc565b6040516100d19190611720565b60405180910390f35b6100e2610223565b6040516100ef9190611778565b60405180910390f35b610112600480360381019061010d919061137c565b610250565b005b61012e60048036038101906101299190611427565b610322565b60405161013b91906116b9565b60405180910390f35b61014c610473565b60405161015991906116b9565b60405180910390f35b61017c600480360381019061017791906113f5565b610547565b6040516101899190611720565b60405180910390f35b6101ac60048036038101906101a791906113f5565b61056e565b6040516101b99190611720565b60405180910390f35b6101dc60048036038101906101d791906112ef565b610595565b005b6101e6610a3c565b6040516101f391906117f3565b60405180910390f35b600060205280600052604060002060009150610216610d7b565b906101000a900460ff1681565b6005600090610230610d7b565b906101000a900473ffffffffffffffffffffffffffffffffffffffff1681565b600061026f845a61025f610dde565b85600361026a610d7b565b610a49565b90506001600360008282610281610d7b565b01925050819061028f610e3b565b5050506001600260008380519060200120815260200190815260200160002060006101000a816102bd610d7b565b8160ff021916908315150217906102d2610e3b565b5050506102e5818363ffffffff16610ae9565b7f0ee9ffdb2334d78de97ffb066b23a352a4d35180cefb36589d663fbb1eb6f326816040516103149190611756565b60405180910390a150505050565b60006005600090610331610d7b565b906101000a900473ffffffffffffffffffffffffffffffffffffffff1673ffffffffffffffffffffffffffffffffffffffff1663bf40fac1836040518263ffffffff1660e01b81526004018080602001828103825283818151815260200191508051906020019080838360005b838110156103b957808201518184015260208101905061039e565b50505050905090810190601f1680156103e65780820380516001836020036101000a031916815260200191505b509250505060206040518083038186806103fe610ea0565b15801561041357600080610410610d0d565b50505b505a61041d610f03565b505050505015801561043c573d6000803e3d6000610439610d0d565b50505b505050506040513d602081101561045b57600080610458610d0d565b50505b81019080805190602001909291905050509050919050565b600061dead73ffffffffffffffffffffffffffffffffffffffff16600460009061049b610d7b565b906101000a900473ffffffffffffffffffffffffffffffffffffffff1673ffffffffffffffffffffffffffffffffffffffff161415610518576040517f08c379a000000000000000000000000000000000000000000000000000000000815260040161050690611793565b60405180910390610515610d0d565b50505b6004600090610525610d7b565b906101000a900473ffffffffffffffffffffffffffffffffffffffff16905090565b600260205280600052604060002060009150610561610d7b565b906101000a900460ff1681565b600160205280600052604060002060009150610588610d7b565b906101000a900460ff1681565b600260066105a1610d7b565b141561061e576040517f08c379a000000000000000000000000000000000000000000000000000000000815260040180806020018281038252601f8152602001807f5265656e7472616e637947756172643a207265656e7472616e742063616c6c008152506020019150506040518091039061061b610d0d565b50505b60026006819061062c610e3b565b5050506001151561063b610bbb565b151514610686576040517f08c379a0000000000000000000000000000000000000000000000000000000008152600401610674906117d3565b60405180910390610683610d0d565b50505b600061069485858585610a49565b905060008180519060200120905060001515600160008381526020019081526020016000206000906106c4610d7b565b906101000a900460ff16151514610719576040517f08c379a0000000000000000000000000000000000000000000000000000000008152600401610707906117b3565b60405180910390610716610d0d565b50505b6107576040518060400160405280601781526020017f4f564d5f4c32546f4c314d657373616765506173736572000000000000000000815250610322565b73ffffffffffffffffffffffffffffffffffffffff168673ffffffffffffffffffffffffffffffffffffffff1614156107cc57600180600083815260200190815260200160002060006101000a816107ad610d7b565b8160ff021916908315150217906107c2610e3b565b5050505050610a25565b84600460006101000a816107de610d7b565b8173ffffffffffffffffffffffffffffffffffffffff021916908373ffffffffffffffffffffffffffffffffffffffff1602179061081a610e3b565b50505060008673ffffffffffffffffffffffffffffffffffffffff16856040516108449190611669565b6000604051808303816000865a610859611003565b5050505050509150503d806000811461088e576040519150601f19603f3d011682016040523d82523d6000602084013e610893565b606091505b5050905061dead600460006101000a816108ab610d7b565b8173ffffffffffffffffffffffffffffffffffffffff021916908373ffffffffffffffffffffffffffffffffffffffff160217906108e7610e3b565b50505060011515811515141561096e57600180600084815260200190815260200160002060006101000a8161091a610d7b565b8160ff0219169083151502179061092f610e3b565b5050507f4641df4a962071e12719d8c8c8e5ac7fc4d97b927346a3d7a335b1f7517e133c82604051610961919061173b565b60405180910390a16109a6565b7f99d0e048484baa1b1540b1367cb128acd7ab2946d1ed91ec10e3c85e4bf51b8f8260405161099d919061173b565b60405180910390a15b6000835a6109b2610dde565b5a6109bb611103565b6040516020016109cd93929190611680565b604051602081830303815290604052805190602001209050600160008083815260200190815260200160002060006101000a81610a08610d7b565b8160ff02191690831515021790610a1d610e3b565b505050505050505b600160068190610a33610e3b565b50505050505050565b6003610a46610d7b565b81565b606084848484604051602401610a6294939291906116d4565b6040516020818303038152906040527fcbd4ece9000000000000000000000000000000000000000000000000000000007bffffffffffffffffffffffffffffffffffffffffffffffffffffffff19166020820180517bffffffffffffffffffffffffffffffffffffffffffffffffffffffff83818316178352505050509050949350505050565b610b276040518060400160405280601781526020017f4f564d5f4c32546f4c314d657373616765506173736572000000000000000000815250610322565b73ffffffffffffffffffffffffffffffffffffffff1663cafa81dc836040518263ffffffff1660e01b8152600401610b5f9190611756565b60006040518083038160008780610b74610ea0565b158015610b8957600080610b86610d0d565b50505b505a610b93611003565b505050505050158015610bb3573d6000803e3d6000610bb0610d0d565b50505b505050505050565b6000610bfb6040518060400160405280601a81526020017f4f564d5f4c3143726f7373446f6d61696e4d657373656e676572000000000000815250610322565b73ffffffffffffffffffffffffffffffffffffffff16610c4f6040518060400160405280601381526020017f4f564d5f4c314d65737361676553656e64657200000000000000000000000000815250610322565b73ffffffffffffffffffffffffffffffffffffffff1663d20341066040518163ffffffff1660e01b81526004016020604051808303818680610c8f610ea0565b158015610ca457600080610ca1610d0d565b50505b505a610cae610f03565b5050505050158015610ccd573d6000803e3d6000610cca610d0d565b50505b505050506040513d601f19601f82011682018060405250810190610cf191906112bd565b73ffffffffffffffffffffffffffffffffffffffff1614905090565b632a2a7adb598160e01b8152600481016020815285602082015260005b86811015610d48578086015181604084010152602081019050610d2a565b506020828760640184336000905af158600e01573d6000803e3d6000fd5b3d6001141558600a015760016000f35b505050565b6303daa959598160e01b8152836004820152602081602483336000905af158600e01573d6000803e3d6000fd5b3d6001141558600a015760016000f35b8051935060005b6040811015610dd957600081830152602081019050610dbf565b505050565b6373509064598160e01b8152602081600483336000905af158600e01573d6000803e3d6000fd5b3d6001141558600a015760016000f35b8051935060005b6040811015610e3657600081830152602081019050610e1c565b505050565b6322bd64c0598160e01b8152836004820152846024820152600081604483336000905af158600e01573d6000803e3d6000fd5b3d6001141558600a015760016000f35b60005b6040811015610e9b57600081830152602081019050610e81565b505050565b638435035b598160e01b8152836004820152602081602483336000905af158600e01573d6000803e3d6000fd5b3d6001141558600a015760016000f35b8051935060005b6040811015610efe57600081830152602081019050610ee4565b505050565b638540661f598160e01b8152610f42565b600081905081831115610f25578290505b92915050565b600081905081831015610f3c578290505b92915050565b836004820152846024820152606060448201528660648201526084810160005b88811015610f7d578088015181830152602081019050610f62565b506060828960a40184336000905af158600e01573d6000803e3d6000fd5b3d6001141558600a015760016000f35b815160408301513d6000853e8b8b82606087013350600060045af15059610fd28d3d610f2b565b8c01610fde8187610f14565b5b82811015610ff65760008152602081019050610fdf565b50839d5050505050505050565b6385979f76598160e01b8152611042565b600081905081831115611025578290505b92915050565b60008190508183101561103c578290505b92915050565b836004820152846024820152606060448201528760648201526084810160005b8981101561107d578089015181830152602081019050611062565b506060828a60a40184336000905af158600e01573d6000803e3d6000fd5b3d6001141558600a015760016000f35b815160408301513d6000853e8c8c82606087013350600060045af150596110d28e3d61102b565b8d016110de8187611014565b5b828110156110f657600081526020810190506110df565b50839e5050505050505050565b635a98c361598160e01b8152602081600483336000905af158600e01573d6000803e3d6000fd5b3d6001141558600a015760016000f35b8051935060005b604081101561115b57600081830152602081019050611141565b505050565b600061117361116e8461183f565b61180e565b90508281526020810184848401111561119457600080611191610d0d565b50505b61119f84828561196f565b509392505050565b60006111ba6111b58461186f565b61180e565b9050828152602081018484840111156111db576000806111d8610d0d565b50505b6111e684828561196f565b509392505050565b6000813590506111fd816119ff565b92915050565b600081519050611212816119ff565b92915050565b60008135905061122781611a1f565b92915050565b600082601f83011261124757600080611244610d0d565b50505b8135611257848260208601611160565b91505092915050565b600082601f83011261127a57600080611277610d0d565b50505b813561128a8482602086016111a7565b91505092915050565b6000813590506112a281611a3f565b92915050565b6000813590506112b781611a5f565b92915050565b6000602082840312156112d8576000806112d5610d0d565b50505b60006112e684828501611203565b91505092915050565b6000806000806080858703121561130e5760008061130b610d0d565b50505b600061131c878288016111ee565b945050602061132d878288016111ee565b935050604085013567ffffffffffffffff81111561135357600080611350610d0d565b50505b61135f8782880161122d565b925050606061137087828801611293565b91505092959194509250565b60008060006060848603121561139a57600080611397610d0d565b50505b60006113a8868287016111ee565b935050602084013567ffffffffffffffff8111156113ce576000806113cb610d0d565b50505b6113da8682870161122d565b92505060406113eb868287016112a8565b9150509250925092565b6000602082840312156114105760008061140d610d0d565b50505b600061141e84828501611218565b91505092915050565b6000602082840312156114425760008061143f610d0d565b50505b600082013567ffffffffffffffff81111561146557600080611462610d0d565b50505b61147184828501611260565b91505092915050565b61148b611486826118e9565b6119b1565b82525050565b61149a816118d7565b82525050565b6114a9816118fb565b82525050565b6114b881611907565b82525050565b60006114c98261189f565b6114d381856118aa565b93506114e381856020860161197e565b6114ec816119e1565b840191505092915050565b60006115028261189f565b61150c81856118bb565b935061151c81856020860161197e565b80840191505092915050565b6115318161194b565b82525050565b6000611544601f836118c6565b91507f78446f6d61696e4d65737361676553656e646572206973206e6f7420736574006000830152602082019050919050565b6000611584602b836118c6565b91507f50726f7669646564206d6573736167652068617320616c72656164792062656560008301527f6e2072656365697665642e0000000000000000000000000000000000000000006020830152604082019050919050565b60006115ea6027836118c6565b91507f50726f7669646564206d65737361676520636f756c64206e6f7420626520766560008301527f7269666965642e000000000000000000000000000000000000000000000000006020830152604082019050919050565b61164c81611931565b82525050565b61166361165e82611931565b6119d5565b82525050565b600061167582846114f7565b915081905092915050565b600061168c82866114f7565b9150611698828561147a565b6014820191506116a88284611652565b602082019150819050949350505050565b60006020820190506116ce6000830184611491565b92915050565b60006080820190506116e96000830187611491565b6116f66020830186611491565b818103604083015261170881856114be565b90506117176060830184611643565b95945050505050565b600060208201905061173560008301846114a0565b92915050565b600060208201905061175060008301846114af565b92915050565b6000602082019050818103600083015261177081846114be565b905092915050565b600060208201905061178d6000830184611528565b92915050565b600060208201905081810360008301526117ac81611537565b9050919050565b600060208201905081810360008301526117cc81611577565b9050919050565b600060208201905081810360008301526117ec816115dd565b9050919050565b60006020820190506118086000830184611643565b92915050565b6000604051905081810181811067ffffffffffffffff82111715611835576118346119df565b5b8060405250919050565b600067ffffffffffffffff82111561185a576118596119df565b5b601f19601f8301169050602081019050919050565b600067ffffffffffffffff82111561188a576118896119df565b5b601f19601f8301169050602081019050919050565b600081519050919050565b600082825260208201905092915050565b600081905092915050565b600082825260208201905092915050565b60006118e282611911565b9050919050565b60006118f482611911565b9050919050565b60008115159050919050565b6000819050919050565b600073ffffffffffffffffffffffffffffffffffffffff82169050919050565b6000819050919050565b600063ffffffff82169050919050565b60006119568261195d565b9050919050565b600061196882611911565b9050919050565b82818337600083830152505050565b60005b8381101561199c578082015181840152602081019050611981565b838111156119ab576000848401525b50505050565b60006119bc826119c3565b9050919050565b60006119ce826119f2565b9050919050565b6000819050919050565bfe5b6000601f19601f8301169050919050565b60008160601b9050919050565b611a08816118d7565b8114611a1c57600080611a19610d0d565b50505b50565b611a2881611907565b8114611a3c57600080611a39610d0d565b50505b50565b611a4881611931565b8114611a5c57600080611a59610d0d565b50505b50565b611a688161193b565b8114611a7c57600080611a79610d0d565b50505b5056",
  "linkReferences": {},
  "deployedLinkReferences": {}
}