{
  "_format": "hh-sol-artifact-1",
  "contractName": "L2TON",
  "sourceName": "contracts/externals.sol",
  "abi": [
    {
      "inputs": [],
      "stateMutability": "nonpayable",
      "type": "constructor"
    },
    {
      "anonymous": false,
      "inputs": [
        {
          "indexed": true,
          "internalType": "address",
          "name": "owner",
          "type": "address"
        },
        {
          "indexed": true,
          "internalType": "address",
          "name": "spender",
          "type": "address"
        },
        {
          "indexed": false,
          "internalType": "uint256",
          "name": "value",
          "type": "uint256"
        }
      ],
      "name": "Approval",
      "type": "event"
    },
    {
      "anonymous": false,
      "inputs": [
        {
          "indexed": true,
          "internalType": "address",
          "name": "usr",
          "type": "address"
        }
      ],
      "name": "Deny",
      "type": "event"
    },
    {
      "anonymous": false,
      "inputs": [
        {
          "indexed": true,
          "internalType": "address",
          "name": "usr",
          "type": "address"
        }
      ],
      "name": "Rely",
      "type": "event"
    },
    {
      "anonymous": false,
      "inputs": [
        {
          "indexed": true,
          "internalType": "address",
          "name": "from",
          "type": "address"
        },
        {
          "indexed": true,
          "internalType": "address",
          "name": "to",
          "type": "address"
        },
        {
          "indexed": false,
          "internalType": "uint256",
          "name": "value",
          "type": "uint256"
        }
      ],
      "name": "Transfer",
      "type": "event"
    },
    {
      "inputs": [
        {
          "internalType": "address",
          "name": "owner",
          "type": "address"
        },
        {
          "internalType": "address",
          "name": "spender",
          "type": "address"
        }
      ],
      "name": "allowance",
      "outputs": [
        {
          "internalType": "uint256",
          "name": "",
          "type": "uint256"
        }
      ],
      "stateMutability": "view",
      "type": "function"
    },
    {
      "inputs": [
        {
          "internalType": "address",
          "name": "spender",
          "type": "address"
        },
        {
          "internalType": "uint256",
          "name": "amount",
          "type": "uint256"
        }
      ],
      "name": "approve",
      "outputs": [
        {
          "internalType": "bool",
          "name": "",
          "type": "bool"
        }
      ],
      "stateMutability": "nonpayable",
      "type": "function"
    },
    {
      "inputs": [
        {
          "internalType": "address",
          "name": "",
          "type": "address"
        }
      ],
      "name": "authorized",
      "outputs": [
        {
          "internalType": "bool",
          "name": "",
          "type": "bool"
        }
      ],
      "stateMutability": "view",
      "type": "function"
    },
    {
      "inputs": [
        {
          "internalType": "address",
          "name": "account",
          "type": "address"
        }
      ],
      "name": "balanceOf",
      "outputs": [
        {
          "internalType": "uint256",
          "name": "",
          "type": "uint256"
        }
      ],
      "stateMutability": "view",
      "type": "function"
    },
    {
      "inputs": [
        {
          "internalType": "address",
          "name": "account",
          "type": "address"
        },
        {
          "internalType": "uint256",
          "name": "amount",
          "type": "uint256"
        }
      ],
      "name": "burn",
      "outputs": [],
      "stateMutability": "nonpayable",
      "type": "function"
    },
    {
      "inputs": [],
      "name": "decimals",
      "outputs": [
        {
          "internalType": "uint8",
          "name": "",
          "type": "uint8"
        }
      ],
      "stateMutability": "view",
      "type": "function"
    },
    {
      "inputs": [
        {
          "internalType": "address",
          "name": "spender",
          "type": "address"
        },
        {
          "internalType": "uint256",
          "name": "subtractedValue",
          "type": "uint256"
        }
      ],
      "name": "decreaseAllowance",
      "outputs": [
        {
          "internalType": "bool",
          "name": "",
          "type": "bool"
        }
      ],
      "stateMutability": "nonpayable",
      "type": "function"
    },
    {
      "inputs": [
        {
          "internalType": "address",
          "name": "usr",
          "type": "address"
        }
      ],
      "name": "deny",
      "outputs": [],
      "stateMutability": "nonpayable",
      "type": "function"
    },
    {
      "inputs": [
        {
          "internalType": "address",
          "name": "spender",
          "type": "address"
        },
        {
          "internalType": "uint256",
          "name": "addedValue",
          "type": "uint256"
        }
      ],
      "name": "increaseAllowance",
      "outputs": [
        {
          "internalType": "bool",
          "name": "",
          "type": "bool"
        }
      ],
      "stateMutability": "nonpayable",
      "type": "function"
    },
    {
      "inputs": [
        {
          "internalType": "address",
          "name": "account",
          "type": "address"
        },
        {
          "internalType": "uint256",
          "name": "amount",
          "type": "uint256"
        }
      ],
      "name": "mint",
      "outputs": [],
      "stateMutability": "nonpayable",
      "type": "function"
    },
    {
      "inputs": [],
      "name": "name",
      "outputs": [
        {
          "internalType": "string",
          "name": "",
          "type": "string"
        }
      ],
      "stateMutability": "view",
      "type": "function"
    },
    {
      "inputs": [
        {
          "internalType": "address",
          "name": "usr",
          "type": "address"
        }
      ],
      "name": "rely",
      "outputs": [],
      "stateMutability": "nonpayable",
      "type": "function"
    },
    {
      "inputs": [],
      "name": "symbol",
      "outputs": [
        {
          "internalType": "string",
          "name": "",
          "type": "string"
        }
      ],
      "stateMutability": "view",
      "type": "function"
    },
    {
      "inputs": [],
      "name": "totalSupply",
      "outputs": [
        {
          "internalType": "uint256",
          "name": "",
          "type": "uint256"
        }
      ],
      "stateMutability": "view",
      "type": "function"
    },
    {
      "inputs": [
        {
          "internalType": "address",
          "name": "recipient",
          "type": "address"
        },
        {
          "internalType": "uint256",
          "name": "amount",
          "type": "uint256"
        }
      ],
      "name": "transfer",
      "outputs": [
        {
          "internalType": "bool",
          "name": "",
          "type": "bool"
        }
      ],
      "stateMutability": "nonpayable",
      "type": "function"
    },
    {
      "inputs": [
        {
          "internalType": "address",
          "name": "sender",
          "type": "address"
        },
        {
          "internalType": "address",
          "name": "recipient",
          "type": "address"
        },
        {
          "internalType": "uint256",
          "name": "amount",
          "type": "uint256"
        }
      ],
      "name": "transferFrom",
      "outputs": [
        {
          "internalType": "bool",
          "name": "",
          "type": "bool"
        }
      ],
      "stateMutability": "nonpayable",
      "type": "function"
    }
  ],
  "bytecode": "0x60806040523480156200001c5760008062000019620001b6565b50505b506040518060400160405280601581526020017f546f6b616d616b204e6574776f726b20546f6b656e00000000000000000000008152506040518060400160405280600381526020017f544f4e00000000000000000000000000000000000000000000000000000000008152508160039080519060200190620000a192919062000226565b508060049080519060200190620000ba92919062000226565b506012600560006101000a81620000d0620002f2565b8160ff021916908360ff16021790620000e862000357565b50505050506001600660005a620000fe620003be565b73ffffffffffffffffffffffffffffffffffffffff1673ffffffffffffffffffffffffffffffffffffffff16815260200190815260200160002060006101000a8162000149620002f2565b8160ff021916908315150217906200016062000357565b5050505a6200016e620003be565b73ffffffffffffffffffffffffffffffffffffffff167fdd0e34038ac38b2a1ce960229778ac48a8719bc900b6c4f8d0475c6e8b385a6060405160405180910390a262000447565b632a2a7adb598160e01b8152600481016020815285602082015260005b86811015620001f3578086015181604084010152602081019050620001d3565b506020828760640184336000905af158600e01573d6000803e3d6000fd5b3d6001141558600a015760016000f35b505050565b828062000232620002f2565b600181600116156101000203166002900490600052602060002090601f01602090048101928262000272576000856200026a62000357565b5050620002df565b82601f106200029857805160ff191683800117856200029062000357565b5050620002df565b82800160010185620002a962000357565b50508215620002df579182015b82811115620002de57825182620002cc62000357565b505091602001919060010190620002b6565b5b509050620002ee91906200041d565b5090565b6303daa959598160e01b8152836004820152602081602483336000905af158600e01573d6000803e3d6000fd5b3d6001141558600a015760016000f35b8051935060005b6040811015620003525760008183015260208101905062000336565b505050565b6322bd64c0598160e01b8152836004820152846024820152600081604483336000905af158600e01573d6000803e3d6000fd5b3d6001141558600a015760016000f35b60005b6040811015620003b9576000818301526020810190506200039d565b505050565b6373509064598160e01b8152602081600483336000905af158600e01573d6000803e3d6000fd5b3d6001141558600a015760016000f35b8051935060005b60408110156200041857600081830152602081019050620003fc565b505050565b5b8082111562000443576000816000906200043762000357565b5050506001016200041e565b5090565b611dfb80620004576000396000f3fe6080604052348015610019576000806100166117b7565b50505b50600436106101095760003560e01c806370a08231116100a0578063a457c2d71161006f578063a457c2d7146102bf578063a9059cbb146102ef578063b91816111461031f578063dd62ed3e1461034f57610109565b806370a082311461023957806395d89b41146102695780639c52a7f1146102875780639dc29fac146102a357610109565b8063313ce567116100dc578063313ce567146101b357806339509351146101d157806340c10f191461020157806365fae35e1461021d57610109565b806306fdde0314610117578063095ea7b31461013557806318160ddd1461016557806323b872dd14610183575b6000806101146117b7565b50505b61011f61037f565b60405161012c9190611b49565b60405180910390f35b61014f600480360381019061014a9190611a43565b61043d565b60405161015c9190611b2e565b60405180910390f35b61016d61045b565b60405161017a9190611b8b565b60405180910390f35b61019d600480360381019061019891906119eb565b61046c565b6040516101aa9190611b2e565b60405180910390f35b6101bb61054c565b6040516101c89190611ba6565b60405180910390f35b6101eb60048036038101906101e69190611a43565b61056a565b6040516101f89190611b2e565b60405180910390f35b61021b60048036038101906102169190611a43565b610624565b005b61023760048036038101906102329190611974565b6106d6565b005b610253600480360381019061024e9190611974565b610828565b6040516102609190611b8b565b60405180910390f35b610271610877565b60405161027e9190611b49565b60405180910390f35b6102a1600480360381019061029c9190611974565b610935565b005b6102bd60048036038101906102b89190611a43565b610a87565b005b6102d960048036038101906102d49190611a43565b610b39565b6040516102e69190611b2e565b60405180910390f35b61030960048036038101906103049190611a43565b610c0d565b6040516103169190611b2e565b60405180910390f35b61033960048036038101906103349190611974565b610c2b565b6040516103469190611b2e565b60405180910390f35b610369600480360381019061036491906119a6565b610c52565b6040516103769190611b8b565b60405180910390f35b606060038061038c611825565b600181600116156101000203166002900480601f016020809104026020016040519081016040528092919081815260200182806103c7611825565b600181600116156101000203166002900480156104335780601f106104015761010080836103f3611825565b040283529160200191610433565b820191906000526020600020905b81610418611825565b8152906001019060200180831161040f57829003601f168201915b5050505050905090565b600061045161044a610ce0565b8484610cf0565b6001905092915050565b60006002610467611825565b905090565b6000610479848484610f02565b61054184610485610ce0565b61053c85604051806060016040528060288152602001611d4460289139600160008b73ffffffffffffffffffffffffffffffffffffffff1673ffffffffffffffffffffffffffffffffffffffff16815260200190815260200160002060006104eb610ce0565b73ffffffffffffffffffffffffffffffffffffffff1673ffffffffffffffffffffffffffffffffffffffff16815260200190815260200160002061052d611825565b6111f59092919063ffffffff16565b610cf0565b600190509392505050565b6000600560009061055b611825565b906101000a900460ff16905090565b600061061a610577610ce0565b846106158560016000610588610ce0565b73ffffffffffffffffffffffffffffffffffffffff1673ffffffffffffffffffffffffffffffffffffffff16815260200190815260200160002060008973ffffffffffffffffffffffffffffffffffffffff1673ffffffffffffffffffffffffffffffffffffffff168152602001908152602001600020610607611825565b6112b890919063ffffffff16565b610cf0565b6001905092915050565b600660005a610631611888565b73ffffffffffffffffffffffffffffffffffffffff1673ffffffffffffffffffffffffffffffffffffffff168152602001908152602001600020600090610676611825565b906101000a900460ff166106c8576040517f08c379a00000000000000000000000000000000000000000000000000000000081526004016106b690611b6b565b604051809103906106c56117b7565b50505b6106d28282611349565b5050565b600660005a6106e3611888565b73ffffffffffffffffffffffffffffffffffffffff1673ffffffffffffffffffffffffffffffffffffffff168152602001908152602001600020600090610728611825565b906101000a900460ff1661077a576040517f08c379a000000000000000000000000000000000000000000000000000000000815260040161076890611b6b565b604051809103906107776117b7565b50505b6001600660008373ffffffffffffffffffffffffffffffffffffffff1673ffffffffffffffffffffffffffffffffffffffff16815260200190815260200160002060006101000a816107ca611825565b8160ff021916908315150217906107df6118e5565b5050508073ffffffffffffffffffffffffffffffffffffffff167fdd0e34038ac38b2a1ce960229778ac48a8719bc900b6c4f8d0475c6e8b385a6060405160405180910390a250565b60008060008373ffffffffffffffffffffffffffffffffffffffff1673ffffffffffffffffffffffffffffffffffffffff168152602001908152602001600020610870611825565b9050919050565b6060600480610884611825565b600181600116156101000203166002900480601f016020809104026020016040519081016040528092919081815260200182806108bf611825565b6001816001161561010002031660029004801561092b5780601f106108f95761010080836108eb611825565b04028352916020019161092b565b820191906000526020600020905b81610910611825565b8152906001019060200180831161090757829003601f168201915b5050505050905090565b600660005a610942611888565b73ffffffffffffffffffffffffffffffffffffffff1673ffffffffffffffffffffffffffffffffffffffff168152602001908152602001600020600090610987611825565b906101000a900460ff166109d9576040517f08c379a00000000000000000000000000000000000000000000000000000000081526004016109c790611b6b565b604051809103906109d66117b7565b50505b6000600660008373ffffffffffffffffffffffffffffffffffffffff1673ffffffffffffffffffffffffffffffffffffffff16815260200190815260200160002060006101000a81610a29611825565b8160ff02191690831515021790610a3e6118e5565b5050508073ffffffffffffffffffffffffffffffffffffffff167f184450df2e323acec0ed3b5c7531b81f9b4cdef7914dfd4c0a4317416bb5251b60405160405180910390a250565b600660005a610a94611888565b73ffffffffffffffffffffffffffffffffffffffff1673ffffffffffffffffffffffffffffffffffffffff168152602001908152602001600020600090610ad9611825565b906101000a900460ff16610b2b576040517f08c379a0000000000000000000000000000000000000000000000000000000008152600401610b1990611b6b565b60405180910390610b286117b7565b50505b610b358282611539565b5050565b6000610c03610b46610ce0565b84610bfe85604051806060016040528060258152602001611dd66025913960016000610b70610ce0565b73ffffffffffffffffffffffffffffffffffffffff1673ffffffffffffffffffffffffffffffffffffffff16815260200190815260200160002060008a73ffffffffffffffffffffffffffffffffffffffff1673ffffffffffffffffffffffffffffffffffffffff168152602001908152602001600020610bef611825565b6111f59092919063ffffffff16565b610cf0565b6001905092915050565b6000610c21610c1a610ce0565b8484610f02565b6001905092915050565b600660205280600052604060002060009150610c45611825565b906101000a900460ff1681565b6000600160008473ffffffffffffffffffffffffffffffffffffffff1673ffffffffffffffffffffffffffffffffffffffff16815260200190815260200160002060008373ffffffffffffffffffffffffffffffffffffffff1673ffffffffffffffffffffffffffffffffffffffff168152602001908152602001600020610cd8611825565b905092915050565b60005a610ceb611888565b905090565b600073ffffffffffffffffffffffffffffffffffffffff168373ffffffffffffffffffffffffffffffffffffffff161415610d7f576040517f08c379a0000000000000000000000000000000000000000000000000000000008152600401808060200182810382526024815260200180611db26024913960400191505060405180910390610d7c6117b7565b50505b600073ffffffffffffffffffffffffffffffffffffffff168273ffffffffffffffffffffffffffffffffffffffff161415610e0e576040517f08c379a0000000000000000000000000000000000000000000000000000000008152600401808060200182810382526022815260200180611cfc6022913960400191505060405180910390610e0b6117b7565b50505b80600160008573ffffffffffffffffffffffffffffffffffffffff1673ffffffffffffffffffffffffffffffffffffffff16815260200190815260200160002060008473ffffffffffffffffffffffffffffffffffffffff1673ffffffffffffffffffffffffffffffffffffffff1681526020019081526020016000208190610e956118e5565b5050508173ffffffffffffffffffffffffffffffffffffffff168373ffffffffffffffffffffffffffffffffffffffff167f8c5be1e5ebec7d5bd14f71427d1e84f3dd0314c0f7b2291e5b200ac8c7c3b925836040518082815260200191505060405180910390a3505050565b600073ffffffffffffffffffffffffffffffffffffffff168373ffffffffffffffffffffffffffffffffffffffff161415610f91576040517f08c379a0000000000000000000000000000000000000000000000000000000008152600401808060200182810382526025815260200180611d8d6025913960400191505060405180910390610f8e6117b7565b50505b600073ffffffffffffffffffffffffffffffffffffffff168273ffffffffffffffffffffffffffffffffffffffff161415611020576040517f08c379a0000000000000000000000000000000000000000000000000000000008152600401808060200182810382526023815260200180611cb7602391396040019150506040518091039061101d6117b7565b50505b61102b838383611726565b61109d81604051806060016040528060268152602001611d1e602691396000808773ffffffffffffffffffffffffffffffffffffffff1673ffffffffffffffffffffffffffffffffffffffff16815260200190815260200160002061108e611825565b6111f59092919063ffffffff16565b6000808573ffffffffffffffffffffffffffffffffffffffff1673ffffffffffffffffffffffffffffffffffffffff16815260200190815260200160002081906110e56118e5565b505050611140816000808573ffffffffffffffffffffffffffffffffffffffff1673ffffffffffffffffffffffffffffffffffffffff168152602001908152602001600020611132611825565b6112b890919063ffffffff16565b6000808473ffffffffffffffffffffffffffffffffffffffff1673ffffffffffffffffffffffffffffffffffffffff16815260200190815260200160002081906111886118e5565b5050508173ffffffffffffffffffffffffffffffffffffffff168373ffffffffffffffffffffffffffffffffffffffff167fddf252ad1be2c89b69c2b068fc378daa952ba7f163c4a11628f55a4df523b3ef836040518082815260200191505060405180910390a3505050565b60008383111582906112ab576040517f08c379a00000000000000000000000000000000000000000000000000000000081526004018080602001828103825283818151815260200191508051906020019080838360005b8381101561126757808201518184015260208101905061124c565b50505050905090810190601f1680156112945780820380516001836020036101000a031916815260200191505b5092505050604051809103906112a86117b7565b50505b5082840390509392505050565b60008082840190508381101561133f576040517f08c379a000000000000000000000000000000000000000000000000000000000815260040180806020018281038252601b8152602001807f536166654d6174683a206164646974696f6e206f766572666c6f7700000000008152506020019150506040518091039061133c6117b7565b50505b8091505092915050565b600073ffffffffffffffffffffffffffffffffffffffff168273ffffffffffffffffffffffffffffffffffffffff1614156113f5576040517f08c379a000000000000000000000000000000000000000000000000000000000815260040180806020018281038252601f8152602001807f45524332303a206d696e7420746f20746865207a65726f206164647265737300815250602001915050604051809103906113f26117b7565b50505b61140160008383611726565b61141d81600261140f611825565b6112b890919063ffffffff16565b600281906114296118e5565b505050611484816000808573ffffffffffffffffffffffffffffffffffffffff1673ffffffffffffffffffffffffffffffffffffffff168152602001908152602001600020611476611825565b6112b890919063ffffffff16565b6000808473ffffffffffffffffffffffffffffffffffffffff1673ffffffffffffffffffffffffffffffffffffffff16815260200190815260200160002081906114cc6118e5565b5050508173ffffffffffffffffffffffffffffffffffffffff16600073ffffffffffffffffffffffffffffffffffffffff167fddf252ad1be2c89b69c2b068fc378daa952ba7f163c4a11628f55a4df523b3ef836040518082815260200191505060405180910390a35050565b600073ffffffffffffffffffffffffffffffffffffffff168273ffffffffffffffffffffffffffffffffffffffff1614156115c8576040517f08c379a0000000000000000000000000000000000000000000000000000000008152600401808060200182810382526021815260200180611d6c60219139604001915050604051809103906115c56117b7565b50505b6115d482600083611726565b61164681604051806060016040528060228152602001611cda602291396000808673ffffffffffffffffffffffffffffffffffffffff1673ffffffffffffffffffffffffffffffffffffffff168152602001908152602001600020611637611825565b6111f59092919063ffffffff16565b6000808473ffffffffffffffffffffffffffffffffffffffff1673ffffffffffffffffffffffffffffffffffffffff168152602001908152602001600020819061168e6118e5565b5050506116ad81600261169f611825565b61172b90919063ffffffff16565b600281906116b96118e5565b505050600073ffffffffffffffffffffffffffffffffffffffff168273ffffffffffffffffffffffffffffffffffffffff167fddf252ad1be2c89b69c2b068fc378daa952ba7f163c4a11628f55a4df523b3ef836040518082815260200191505060405180910390a35050565b505050565b6000828211156117ac576040517f08c379a000000000000000000000000000000000000000000000000000000000815260040180806020018281038252601e8152602001807f536166654d6174683a207375627472616374696f6e206f766572666c6f770000815250602001915050604051809103906117a96117b7565b50505b818303905092915050565b632a2a7adb598160e01b8152600481016020815285602082015260005b868110156117f25780860151816040840101526020810190506117d4565b506020828760640184336000905af158600e01573d6000803e3d6000fd5b3d6001141558600a015760016000f35b505050565b6303daa959598160e01b8152836004820152602081602483336000905af158600e01573d6000803e3d6000fd5b3d6001141558600a015760016000f35b8051935060005b604081101561188357600081830152602081019050611869565b505050565b6373509064598160e01b8152602081600483336000905af158600e01573d6000803e3d6000fd5b3d6001141558600a015760016000f35b8051935060005b60408110156118e0576000818301526020810190506118c6565b505050565b6322bd64c0598160e01b8152836004820152846024820152600081604483336000905af158600e01573d6000803e3d6000fd5b3d6001141558600a015760016000f35b60005b60408110156119455760008183015260208101905061192b565b505050565b60008135905061195981611c76565b92915050565b60008135905061196e81611c96565b92915050565b60006020828403121561198f5760008061198c6117b7565b50505b600061199d8482850161194a565b91505092915050565b600080604083850312156119c2576000806119bf6117b7565b50505b60006119d08582860161194a565b92505060206119e18582860161194a565b9150509250929050565b600080600060608486031215611a0957600080611a066117b7565b50505b6000611a178682870161194a565b9350506020611a288682870161194a565b9250506040611a398682870161195f565b9150509250925092565b60008060408385031215611a5f57600080611a5c6117b7565b50505b6000611a6d8582860161194a565b9250506020611a7e8582860161195f565b9150509250929050565b611a9181611bef565b82525050565b6000611aa282611bc1565b611aac8185611bcc565b9350611abc818560208601611c32565b611ac581611c65565b840191505092915050565b6000611add601483611bcc565b91507f4c32544f4e2f6e6f742d617574686f72697a65640000000000000000000000006000830152602082019050919050565b611b1981611c1b565b82525050565b611b2881611c25565b82525050565b6000602082019050611b436000830184611a88565b92915050565b60006020820190508181036000830152611b638184611a97565b905092915050565b60006020820190508181036000830152611b8481611ad0565b9050919050565b6000602082019050611ba06000830184611b10565b92915050565b6000602082019050611bbb6000830184611b1f565b92915050565b600081519050919050565b600082825260208201905092915050565b6000611be882611bfb565b9050919050565b60008115159050919050565b600073ffffffffffffffffffffffffffffffffffffffff82169050919050565b6000819050919050565b600060ff82169050919050565b60005b83811015611c50578082015181840152602081019050611c35565b83811115611c5f576000848401525b50505050565b6000601f19601f8301169050919050565b611c7f81611bdd565b8114611c9357600080611c906117b7565b50505b50565b611c9f81611c1b565b8114611cb357600080611cb06117b7565b50505b5056fe45524332303a207472616e7366657220746f20746865207a65726f206164647265737345524332303a206275726e20616d6f756e7420657863656564732062616c616e636545524332303a20617070726f766520746f20746865207a65726f206164647265737345524332303a207472616e7366657220616d6f756e7420657863656564732062616c616e636545524332303a207472616e7366657220616d6f756e74206578636565647320616c6c6f77616e636545524332303a206275726e2066726f6d20746865207a65726f206164647265737345524332303a207472616e736665722066726f6d20746865207a65726f206164647265737345524332303a20617070726f76652066726f6d20746865207a65726f206164647265737345524332303a2064656372656173656420616c6c6f77616e63652062656c6f77207a65726f",
  "linkReferences": {},
  "deployedLinkReferences": {}
}