{
  "_format": "hh-sol-artifact-1",
  "contractName": "L1GatewayRegistry",
  "sourceName": "contracts/l1/L1GatewayRegistry.sol",
  "abi": [
    {
      "anonymous": false,
      "inputs": [
        {
          "indexed": true,
          "internalType": "address",
          "name": "l1Gatway",
          "type": "address"
        },
        {
          "indexed": true,
          "internalType": "address",
          "name": "l2Gatway",
          "type": "address"
        }
      ],
      "name": "GatewayRegistered",
      "type": "event"
    },
    {
      "inputs": [
        {
          "internalType": "address",
          "name": "l1Gateway",
          "type": "address"
        },
        {
          "internalType": "address",
          "name": "l2Gateway",
          "type": "address"
        }
      ],
      "name": "register",
      "outputs": [],
      "stateMutability": "nonpayable",
      "type": "function"
    },
    {
      "inputs": [
        {
          "internalType": "address",
          "name": "",
          "type": "address"
        },
        {
          "internalType": "address",
          "name": "",
          "type": "address"
        }
      ],
      "name": "registered",
      "outputs": [
        {
          "internalType": "bool",
          "name": "",
          "type": "bool"
        }
      ],
      "stateMutability": "view",
      "type": "function"
    }
  ],
  "bytecode": "0x608060405234801561001057600080fd5b506104f7806100206000396000f3fe608060405234801561001057600080fd5b50600436106100365760003560e01c806388ad92371461003b578063aa677354146100b5575b600080fd5b61009d6004803603604081101561005157600080fd5b81019080803573ffffffffffffffffffffffffffffffffffffffff169060200190929190803573ffffffffffffffffffffffffffffffffffffffff169060200190929190505050610119565b60405180821515815260200191505060405180910390f35b610117600480360360408110156100cb57600080fd5b81019080803573ffffffffffffffffffffffffffffffffffffffff169060200190929190803573ffffffffffffffffffffffffffffffffffffffff169060200190929190505050610148565b005b60006020528160005260406000206020528060005260406000206000915091509054906101000a900460ff1681565b8073ffffffffffffffffffffffffffffffffffffffff168273ffffffffffffffffffffffffffffffffffffffff1614156101cd576040517f08c379a000000000000000000000000000000000000000000000000000000000815260040180806020018281038252602381526020018061049f6023913960400191505060405180910390fd5b600073ffffffffffffffffffffffffffffffffffffffff168273ffffffffffffffffffffffffffffffffffffffff16141580156102375750600073ffffffffffffffffffffffffffffffffffffffff168173ffffffffffffffffffffffffffffffffffffffff1614155b6102a9576040517f08c379a000000000000000000000000000000000000000000000000000000000815260040180806020018281038252601e8152602001807f4c314761746577617952656769737472792f7a65726f2d61646472657373000081525060200191505060405180910390fd5b6000808373ffffffffffffffffffffffffffffffffffffffff1673ffffffffffffffffffffffffffffffffffffffff16815260200190815260200160002060008273ffffffffffffffffffffffffffffffffffffffff1673ffffffffffffffffffffffffffffffffffffffff16815260200190815260200160002060009054906101000a900460ff1615610388576040517f08c379a000000000000000000000000000000000000000000000000000000000815260040180806020018281038252602481526020018061047b6024913960400191505060405180910390fd5b60016000808473ffffffffffffffffffffffffffffffffffffffff1673ffffffffffffffffffffffffffffffffffffffff16815260200190815260200160002060008373ffffffffffffffffffffffffffffffffffffffff1673ffffffffffffffffffffffffffffffffffffffff16815260200190815260200160002060006101000a81548160ff0219169083151502179055508073ffffffffffffffffffffffffffffffffffffffff168273ffffffffffffffffffffffffffffffffffffffff167f95f86f0783d4494f76a6aeaa178c399f2c6a140aa3e88d39f056b00f460d359a60405160405180910390a3505056fe4c314761746577617952656769737472792f616c72656164792d726567697374657265644c314761746577617952656769737472792f6964656e746963616c2d61646472657373a26469706673582212208e205bbe341064b4d7273710e15a3a5038460c906f2ba9da71a90ff3134e903e64736f6c63430007060033",
  "linkReferences": {},
  "deployedLinkReferences": {}
}