{
  "_format": "hh-sol-artifact-1",
  "contractName": "OVM_L1CrossDomainMessenger",
  "sourceName": "@eth-optimism/contracts/OVM/bridge/messaging/OVM_L1CrossDomainMessenger.sol",
  "abi": [
    {
      "inputs": [],
      "stateMutability": "nonpayable",
      "type": "constructor"
    },
    {
      "anonymous": false,
      "inputs": [
        {
          "indexed": false,
          "internalType": "bytes32",
          "name": "msgHash",
          "type": "bytes32"
        }
      ],
      "name": "FailedRelayedMessage",
      "type": "event"
    },
    {
      "anonymous": false,
      "inputs": [
        {
          "indexed": true,
          "internalType": "bytes32",
          "name": "_xDomainCalldataHash",
          "type": "bytes32"
        }
      ],
      "name": "MessageAllowed",
      "type": "event"
    },
    {
      "anonymous": false,
      "inputs": [
        {
          "indexed": true,
          "internalType": "bytes32",
          "name": "_xDomainCalldataHash",
          "type": "bytes32"
        }
      ],
      "name": "MessageBlocked",
      "type": "event"
    },
    {
      "anonymous": false,
      "inputs": [
        {
          "indexed": true,
          "internalType": "address",
          "name": "previousOwner",
          "type": "address"
        },
        {
          "indexed": true,
          "internalType": "address",
          "name": "newOwner",
          "type": "address"
        }
      ],
      "name": "OwnershipTransferred",
      "type": "event"
    },
    {
      "anonymous": false,
      "inputs": [
        {
          "indexed": false,
          "internalType": "address",
          "name": "account",
          "type": "address"
        }
      ],
      "name": "Paused",
      "type": "event"
    },
    {
      "anonymous": false,
      "inputs": [
        {
          "indexed": false,
          "internalType": "bytes32",
          "name": "msgHash",
          "type": "bytes32"
        }
      ],
      "name": "RelayedMessage",
      "type": "event"
    },
    {
      "anonymous": false,
      "inputs": [
        {
          "indexed": false,
          "internalType": "bytes",
          "name": "message",
          "type": "bytes"
        }
      ],
      "name": "SentMessage",
      "type": "event"
    },
    {
      "anonymous": false,
      "inputs": [
        {
          "indexed": false,
          "internalType": "address",
          "name": "account",
          "type": "address"
        }
      ],
      "name": "Unpaused",
      "type": "event"
    },
    {
      "inputs": [
        {
          "internalType": "bytes32",
          "name": "_xDomainCalldataHash",
          "type": "bytes32"
        }
      ],
      "name": "allowMessage",
      "outputs": [],
      "stateMutability": "nonpayable",
      "type": "function"
    },
    {
      "inputs": [
        {
          "internalType": "bytes32",
          "name": "_xDomainCalldataHash",
          "type": "bytes32"
        }
      ],
      "name": "blockMessage",
      "outputs": [],
      "stateMutability": "nonpayable",
      "type": "function"
    },
    {
      "inputs": [
        {
          "internalType": "bytes32",
          "name": "",
          "type": "bytes32"
        }
      ],
      "name": "blockedMessages",
      "outputs": [
        {
          "internalType": "bool",
          "name": "",
          "type": "bool"
        }
      ],
      "stateMutability": "view",
      "type": "function"
    },
    {
      "inputs": [
        {
          "internalType": "address",
          "name": "_libAddressManager",
          "type": "address"
        }
      ],
      "name": "initialize",
      "outputs": [],
      "stateMutability": "nonpayable",
      "type": "function"
    },
    {
      "inputs": [],
      "name": "libAddressManager",
      "outputs": [
        {
          "internalType": "contract Lib_AddressManager",
          "name": "",
          "type": "address"
        }
      ],
      "stateMutability": "view",
      "type": "function"
    },
    {
      "inputs": [],
      "name": "messageNonce",
      "outputs": [
        {
          "internalType": "uint256",
          "name": "",
          "type": "uint256"
        }
      ],
      "stateMutability": "view",
      "type": "function"
    },
    {
      "inputs": [],
      "name": "owner",
      "outputs": [
        {
          "internalType": "address",
          "name": "",
          "type": "address"
        }
      ],
      "stateMutability": "view",
      "type": "function"
    },
    {
      "inputs": [],
      "name": "pause",
      "outputs": [],
      "stateMutability": "nonpayable",
      "type": "function"
    },
    {
      "inputs": [],
      "name": "paused",
      "outputs": [
        {
          "internalType": "bool",
          "name": "",
          "type": "bool"
        }
      ],
      "stateMutability": "view",
      "type": "function"
    },
    {
      "inputs": [
        {
          "internalType": "address",
          "name": "_target",
          "type": "address"
        },
        {
          "internalType": "address",
          "name": "_sender",
          "type": "address"
        },
        {
          "internalType": "bytes",
          "name": "_message",
          "type": "bytes"
        },
        {
          "internalType": "uint256",
          "name": "_messageNonce",
          "type": "uint256"
        },
        {
          "components": [
            {
              "internalType": "bytes32",
              "name": "stateRoot",
              "type": "bytes32"
            },
            {
              "components": [
                {
                  "internalType": "uint256",
                  "name": "batchIndex",
                  "type": "uint256"
                },
                {
                  "internalType": "bytes32",
                  "name": "batchRoot",
                  "type": "bytes32"
                },
                {
                  "internalType": "uint256",
                  "name": "batchSize",
                  "type": "uint256"
                },
                {
                  "internalType": "uint256",
                  "name": "prevTotalElements",
                  "type": "uint256"
                },
                {
                  "internalType": "bytes",
                  "name": "extraData",
                  "type": "bytes"
                }
              ],
              "internalType": "struct Lib_OVMCodec.ChainBatchHeader",
              "name": "stateRootBatchHeader",
              "type": "tuple"
            },
            {
              "components": [
                {
                  "internalType": "uint256",
                  "name": "index",
                  "type": "uint256"
                },
                {
                  "internalType": "bytes32[]",
                  "name": "siblings",
                  "type": "bytes32[]"
                }
              ],
              "internalType": "struct Lib_OVMCodec.ChainInclusionProof",
              "name": "stateRootProof",
              "type": "tuple"
            },
            {
              "internalType": "bytes",
              "name": "stateTrieWitness",
              "type": "bytes"
            },
            {
              "internalType": "bytes",
              "name": "storageTrieWitness",
              "type": "bytes"
            }
          ],
          "internalType": "struct iOVM_L1CrossDomainMessenger.L2MessageInclusionProof",
          "name": "_proof",
          "type": "tuple"
        }
      ],
      "name": "relayMessage",
      "outputs": [],
      "stateMutability": "nonpayable",
      "type": "function"
    },
    {
      "inputs": [
        {
          "internalType": "bytes32",
          "name": "",
          "type": "bytes32"
        }
      ],
      "name": "relayedMessages",
      "outputs": [
        {
          "internalType": "bool",
          "name": "",
          "type": "bool"
        }
      ],
      "stateMutability": "view",
      "type": "function"
    },
    {
      "inputs": [],
      "name": "renounceOwnership",
      "outputs": [],
      "stateMutability": "nonpayable",
      "type": "function"
    },
    {
      "inputs": [
        {
          "internalType": "address",
          "name": "_target",
          "type": "address"
        },
        {
          "internalType": "address",
          "name": "_sender",
          "type": "address"
        },
        {
          "internalType": "bytes",
          "name": "_message",
          "type": "bytes"
        },
        {
          "internalType": "uint256",
          "name": "_messageNonce",
          "type": "uint256"
        },
        {
          "internalType": "uint32",
          "name": "_gasLimit",
          "type": "uint32"
        }
      ],
      "name": "replayMessage",
      "outputs": [],
      "stateMutability": "nonpayable",
      "type": "function"
    },
    {
      "inputs": [
        {
          "internalType": "string",
          "name": "_name",
          "type": "string"
        }
      ],
      "name": "resolve",
      "outputs": [
        {
          "internalType": "address",
          "name": "",
          "type": "address"
        }
      ],
      "stateMutability": "view",
      "type": "function"
    },
    {
      "inputs": [
        {
          "internalType": "address",
          "name": "_target",
          "type": "address"
        },
        {
          "internalType": "bytes",
          "name": "_message",
          "type": "bytes"
        },
        {
          "internalType": "uint32",
          "name": "_gasLimit",
          "type": "uint32"
        }
      ],
      "name": "sendMessage",
      "outputs": [],
      "stateMutability": "nonpayable",
      "type": "function"
    },
    {
      "inputs": [
        {
          "internalType": "bytes32",
          "name": "",
          "type": "bytes32"
        }
      ],
      "name": "sentMessages",
      "outputs": [
        {
          "internalType": "bool",
          "name": "",
          "type": "bool"
        }
      ],
      "stateMutability": "view",
      "type": "function"
    },
    {
      "inputs": [
        {
          "internalType": "bytes32",
          "name": "",
          "type": "bytes32"
        }
      ],
      "name": "successfulMessages",
      "outputs": [
        {
          "internalType": "bool",
          "name": "",
          "type": "bool"
        }
      ],
      "stateMutability": "view",
      "type": "function"
    },
    {
      "inputs": [
        {
          "internalType": "address",
          "name": "newOwner",
          "type": "address"
        }
      ],
      "name": "transferOwnership",
      "outputs": [],
      "stateMutability": "nonpayable",
      "type": "function"
    },
    {
      "inputs": [],
      "name": "xDomainMessageSender",
      "outputs": [
        {
          "internalType": "address",
          "name": "",
          "type": "address"
        }
      ],
      "stateMutability": "view",
      "type": "function"
    }
  ],
  "bytecode": "0x608060405261dead600460006101000a81548173ffffffffffffffffffffffffffffffffffffffff021916908373ffffffffffffffffffffffffffffffffffffffff16021790555034801561005357600080fd5b50600080600560006101000a81548173ffffffffffffffffffffffffffffffffffffffff021916908373ffffffffffffffffffffffffffffffffffffffff16021790555050614aa6806100a76000396000f3fe608060405234801561001057600080fd5b50600436106101215760003560e01c806381ada46c116100ad578063c4d66de811610071578063c4d66de8146102e2578063c6b94ab0146102fe578063d7fd19dd1461032e578063ecc704281461034a578063f2fde38b1461036857610121565b806381ada46c1461023e57806382e3702d1461025a5780638456cb591461028a5780638da5cb5b14610294578063b1b1b209146102b257610121565b8063461a4478116100f4578063461a4478146101ac5780635c975abb146101dc5780636e296e45146101fa578063706ceab614610218578063715018a61461023457610121565b80630ecf2eea1461012657806321d800ec14610142578063299ca478146101725780633dbb202b14610190575b600080fd5b610140600480360381019061013b9190613cd9565b610384565b005b61015c60048036038101906101579190613cd9565b61048f565b60405161016991906144b5565b60405180910390f35b61017a6104af565b6040516101879190614552565b60405180910390f35b6101aa60048036038101906101a59190613c49565b6104d5565b005b6101c660048036038101906101c19190613d02565b610578565b6040516101d39190614410565b60405180910390f35b6101e4610694565b6040516101f191906144b5565b60405180910390f35b6102026106ab565b60405161020f9190614410565b60405180910390f35b610232600480360381019061022d9190613bba565b610768565b005b61023c6107fe565b005b61025860048036038101906102539190613cd9565b61096e565b005b610274600480360381019061026f9190613cd9565b610a79565b60405161028191906144b5565b60405180910390f35b610292610a99565b005b61029c610b52565b6040516102a99190614410565b60405180910390f35b6102cc60048036038101906102c79190613cd9565b610b7c565b6040516102d991906144b5565b60405180910390f35b6102fc60048036038101906102f79190613aea565b610b9c565b005b61031860048036038101906103139190613cd9565b610dd5565b60405161032591906144b5565b60405180910390f35b61034860048036038101906103439190613b13565b610df5565b005b61035261131b565b60405161035f919061468f565b60405180910390f35b610382600480360381019061037d9190613aea565b611321565b005b61038c611516565b73ffffffffffffffffffffffffffffffffffffffff166103aa610b52565b73ffffffffffffffffffffffffffffffffffffffff1614610433576040517f08c379a00000000000000000000000000000000000000000000000000000000081526004018080602001828103825260208152602001807f4f776e61626c653a2063616c6c6572206973206e6f7420746865206f776e657281525060200191505060405180910390fd5b600160ce600083815260200190815260200160002060006101000a81548160ff021916908315150217905550807ff52508d5339edf0d7e5060a416df98db067af561bdc60872d29c0439eaa13a0260405160405180910390a250565b60006020528060005260406000206000915054906101000a900460ff1681565b600560009054906101000a900473ffffffffffffffffffffffffffffffffffffffff1681565b60006104e584338560035461151e565b905060016003600082825401925050819055506001600260008380519060200120815260200190815260200160002060006101000a81548160ff02191690831515021790555061053b818363ffffffff166115be565b7f0ee9ffdb2334d78de97ffb066b23a352a4d35180cefb36589d663fbb1eb6f3268160405161056a9190614530565b60405180910390a150505050565b6000600560009054906101000a900473ffffffffffffffffffffffffffffffffffffffff1673ffffffffffffffffffffffffffffffffffffffff1663bf40fac1836040518263ffffffff1660e01b81526004018080602001828103825283818151815260200191508051906020019080838360005b838110156106085780820151818401526020810190506105ed565b50505050905090810190601f1680156106355780820380516001836020036101000a031916815260200191505b509250505060206040518083038186803b15801561065257600080fd5b505afa158015610666573d6000803e3d6000fd5b505050506040513d602081101561067c57600080fd5b81019080805190602001909291905050509050919050565b6000606a60009054906101000a900460ff16905090565b600061dead73ffffffffffffffffffffffffffffffffffffffff16600460009054906101000a900473ffffffffffffffffffffffffffffffffffffffff1673ffffffffffffffffffffffffffffffffffffffff161415610740576040517f08c379a00000000000000000000000000000000000000000000000000000000081526004016107379061456d565b60405180910390fd5b600460009054906101000a900473ffffffffffffffffffffffffffffffffffffffff16905090565b60006107768686868661151e565b905060011515600260008380519060200120815260200190815260200160002060009054906101000a900460ff161515146107e6576040517f08c379a00000000000000000000000000000000000000000000000000000000081526004016107dd906145cd565b60405180910390fd5b6107f6818363ffffffff166115be565b505050505050565b610806611516565b73ffffffffffffffffffffffffffffffffffffffff16610824610b52565b73ffffffffffffffffffffffffffffffffffffffff16146108ad576040517f08c379a00000000000000000000000000000000000000000000000000000000081526004018080602001828103825260208152602001807f4f776e61626c653a2063616c6c6572206973206e6f7420746865206f776e657281525060200191505060405180910390fd5b600073ffffffffffffffffffffffffffffffffffffffff16603860009054906101000a900473ffffffffffffffffffffffffffffffffffffffff1673ffffffffffffffffffffffffffffffffffffffff167f8be0079c531659141344cd1fd0a4f28419497f9722a3daafe3b4186f6b6457e060405160405180910390a36000603860006101000a81548173ffffffffffffffffffffffffffffffffffffffff021916908373ffffffffffffffffffffffffffffffffffffffff160217905550565b610976611516565b73ffffffffffffffffffffffffffffffffffffffff16610994610b52565b73ffffffffffffffffffffffffffffffffffffffff1614610a1d576040517f08c379a00000000000000000000000000000000000000000000000000000000081526004018080602001828103825260208152602001807f4f776e61626c653a2063616c6c6572206973206e6f7420746865206f776e657281525060200191505060405180910390fd5b600060ce600083815260200190815260200160002060006101000a81548160ff021916908315150217905550807f52c8a2680a9f4cc0ad0bf88f32096eadbebf0646ea611d93a0ce6a29a024040560405160405180910390a250565b60026020528060005260406000206000915054906101000a900460ff1681565b610aa1611516565b73ffffffffffffffffffffffffffffffffffffffff16610abf610b52565b73ffffffffffffffffffffffffffffffffffffffff1614610b48576040517f08c379a00000000000000000000000000000000000000000000000000000000081526004018080602001828103825260208152602001807f4f776e61626c653a2063616c6c6572206973206e6f7420746865206f776e657281525060200191505060405180910390fd5b610b506116ab565b565b6000603860009054906101000a900473ffffffffffffffffffffffffffffffffffffffff16905090565b60016020528060005260406000206000915054906101000a900460ff1681565b600560159054906101000a900460ff1680610bbb5750610bba611797565b5b80610bd35750600560149054906101000a900460ff16155b610c28576040517f08c379a000000000000000000000000000000000000000000000000000000000815260040180806020018281038252602e815260200180614a1d602e913960400191505060405180910390fd5b6000600560159054906101000a900460ff161590508015610c7a576001600560156101000a81548160ff0219169083151502179055506001600560146101000a81548160ff0219169083151502179055505b600073ffffffffffffffffffffffffffffffffffffffff16600560009054906101000a900473ffffffffffffffffffffffffffffffffffffffff1673ffffffffffffffffffffffffffffffffffffffff1614610d0b576040517f08c379a0000000000000000000000000000000000000000000000000000000008152600401610d029061464d565b60405180910390fd5b81600560006101000a81548173ffffffffffffffffffffffffffffffffffffffff021916908373ffffffffffffffffffffffffffffffffffffffff16021790555061dead600460006101000a81548173ffffffffffffffffffffffffffffffffffffffff021916908373ffffffffffffffffffffffffffffffffffffffff160217905550610d976117a8565b610d9f6118ab565b610da7611a57565b610daf611b75565b8015610dd1576000600560156101000a81548160ff0219169083151502179055505b5050565b60ce6020528060005260406000206000915054906101000a900460ff1681565b6002609c541415610e6e576040517f08c379a000000000000000000000000000000000000000000000000000000000815260040180806020018281038252601f8152602001807f5265656e7472616e637947756172643a207265656e7472616e742063616c6c0081525060200191505060405180910390fd5b6002609c819055506000610eb66040518060400160405280601481526020017f4f564d5f4c324d65737361676552656c61796572000000000000000000000000815250610578565b9050600073ffffffffffffffffffffffffffffffffffffffff168173ffffffffffffffffffffffffffffffffffffffff1614610f5b578073ffffffffffffffffffffffffffffffffffffffff163373ffffffffffffffffffffffffffffffffffffffff1614610f5a576040517f08c379a0000000000000000000000000000000000000000000000000000000008152600401610f519061460d565b60405180910390fd5b5b610f63610694565b15610fd6576040517f08c379a00000000000000000000000000000000000000000000000000000000081526004018080602001828103825260108152602001807f5061757361626c653a207061757365640000000000000000000000000000000081525060200191505060405180910390fd5b6000610fe48787878761151e565b905060011515610ff48285611c80565b151514611036576040517f08c379a000000000000000000000000000000000000000000000000000000000815260040161102d9061462d565b60405180910390fd5b600081805190602001209050600015156001600083815260200190815260200160002060009054906101000a900460ff161515146110a9576040517f08c379a00000000000000000000000000000000000000000000000000000000081526004016110a09061458d565b60405180910390fd5b6000151560ce600083815260200190815260200160002060009054906101000a900460ff16151514611110576040517f08c379a0000000000000000000000000000000000000000000000000000000008152600401611107906145ed565b60405180910390fd5b86600460006101000a81548173ffffffffffffffffffffffffffffffffffffffff021916908373ffffffffffffffffffffffffffffffffffffffff16021790555060008873ffffffffffffffffffffffffffffffffffffffff1687604051611178919061437d565b6000604051808303816000865af19150503d80600081146111b5576040519150601f19603f3d011682016040523d82523d6000602084013e6111ba565b606091505b5050905061dead600460006101000a81548173ffffffffffffffffffffffffffffffffffffffff021916908373ffffffffffffffffffffffffffffffffffffffff16021790555060011515811515141561127557600180600084815260200190815260200160002060006101000a81548160ff0219169083151502179055507f4641df4a962071e12719d8c8c8e5ac7fc4d97b927346a3d7a335b1f7517e133c8260405161126891906144d0565b60405180910390a16112ad565b7f99d0e048484baa1b1540b1367cb128acd7ab2946d1ed91ec10e3c85e4bf51b8f826040516112a491906144d0565b60405180910390a15b60008333436040516020016112c4939291906143bc565b604051602081830303815290604052805190602001209050600160008083815260200190815260200160002060006101000a81548160ff02191690831515021790555050505050506001609c819055505050505050565b60035481565b611329611516565b73ffffffffffffffffffffffffffffffffffffffff16611347610b52565b73ffffffffffffffffffffffffffffffffffffffff16146113d0576040517f08c379a00000000000000000000000000000000000000000000000000000000081526004018080602001828103825260208152602001807f4f776e61626c653a2063616c6c6572206973206e6f7420746865206f776e657281525060200191505060405180910390fd5b600073ffffffffffffffffffffffffffffffffffffffff168173ffffffffffffffffffffffffffffffffffffffff161415611456576040517f08c379a00000000000000000000000000000000000000000000000000000000081526004018080602001828103825260268152602001806149cd6026913960400191505060405180910390fd5b8073ffffffffffffffffffffffffffffffffffffffff16603860009054906101000a900473ffffffffffffffffffffffffffffffffffffffff1673ffffffffffffffffffffffffffffffffffffffff167f8be0079c531659141344cd1fd0a4f28419497f9722a3daafe3b4186f6b6457e060405160405180910390a380603860006101000a81548173ffffffffffffffffffffffffffffffffffffffff021916908373ffffffffffffffffffffffffffffffffffffffff16021790555050565b600033905090565b606084848484604051602401611537949392919061442b565b6040516020818303038152906040527fcbd4ece9000000000000000000000000000000000000000000000000000000007bffffffffffffffffffffffffffffffffffffffffffffffffffffffff19166020820180517bffffffffffffffffffffffffffffffffffffffffffffffffffffffff83818316178352505050509050949350505050565b6115fc6040518060400160405280601d81526020017f4f564d5f43616e6f6e6963616c5472616e73616374696f6e436861696e000000815250610578565b73ffffffffffffffffffffffffffffffffffffffff16636fee07e06116556040518060400160405280601a81526020017f4f564d5f4c3243726f7373446f6d61696e4d657373656e676572000000000000815250610578565b83856040518463ffffffff1660e01b815260040161167593929190614477565b600060405180830381600087803b15801561168f57600080fd5b505af11580156116a3573d6000803e3d6000fd5b505050505050565b6116b3610694565b15611726576040517f08c379a00000000000000000000000000000000000000000000000000000000081526004018080602001828103825260108152602001807f5061757361626c653a207061757365640000000000000000000000000000000081525060200191505060405180910390fd5b6001606a60006101000a81548160ff0219169083151502179055507f62e78cea01bee320cd4e420270b5ea74000d11b0c9f74754ebdbfc544b05a25861176a611516565b604051808273ffffffffffffffffffffffffffffffffffffffff16815260200191505060405180910390a1565b60006117a230611ca5565b15905090565b600560159054906101000a900460ff16806117c757506117c6611797565b5b806117df5750600560149054906101000a900460ff16155b611834576040517f08c379a000000000000000000000000000000000000000000000000000000000815260040180806020018281038252602e815260200180614a1d602e913960400191505060405180910390fd5b6000600560159054906101000a900460ff161590508015611886576001600560156101000a81548160ff0219169083151502179055506001600560146101000a81548160ff0219169083151502179055505b80156118a8576000600560156101000a81548160ff0219169083151502179055505b50565b600560159054906101000a900460ff16806118ca57506118c9611797565b5b806118e25750600560149054906101000a900460ff16155b611937576040517f08c379a000000000000000000000000000000000000000000000000000000000815260040180806020018281038252602e815260200180614a1d602e913960400191505060405180910390fd5b6000600560159054906101000a900460ff161590508015611989576001600560156101000a81548160ff0219169083151502179055506001600560146101000a81548160ff0219169083151502179055505b6000611993611516565b905080603860006101000a81548173ffffffffffffffffffffffffffffffffffffffff021916908373ffffffffffffffffffffffffffffffffffffffff1602179055508073ffffffffffffffffffffffffffffffffffffffff16600073ffffffffffffffffffffffffffffffffffffffff167f8be0079c531659141344cd1fd0a4f28419497f9722a3daafe3b4186f6b6457e060405160405180910390a3508015611a54576000600560156101000a81548160ff0219169083151502179055505b50565b600560159054906101000a900460ff1680611a765750611a75611797565b5b80611a8e5750600560149054906101000a900460ff16155b611ae3576040517f08c379a000000000000000000000000000000000000000000000000000000000815260040180806020018281038252602e815260200180614a1d602e913960400191505060405180910390fd5b6000600560159054906101000a900460ff161590508015611b35576001600560156101000a81548160ff0219169083151502179055506001600560146101000a81548160ff0219169083151502179055505b6000606a60006101000a81548160ff0219169083151502179055508015611b72576000600560156101000a81548160ff0219169083151502179055505b50565b600560159054906101000a900460ff1680611b945750611b93611797565b5b80611bac5750600560149054906101000a900460ff16155b611c01576040517f08c379a000000000000000000000000000000000000000000000000000000000815260040180806020018281038252602e815260200180614a1d602e913960400191505060405180910390fd5b6000600560159054906101000a900460ff161590508015611c53576001600560156101000a81548160ff0219169083151502179055506001600560146101000a81548160ff0219169083151502179055505b6001609c819055508015611c7d576000600560156101000a81548160ff0219169083151502179055505b50565b6000611c8b82611cb8565b8015611c9d5750611c9c8383611e38565b5b905092915050565b600080823b905060008111915050919050565b600080611cf96040518060400160405280601881526020017f4f564d5f5374617465436f6d6d69746d656e74436861696e0000000000000000815250610578565b9050600015158173ffffffffffffffffffffffffffffffffffffffff16639418bddd85602001516040518263ffffffff1660e01b8152600401611d3c919061466d565b60206040518083038186803b158015611d5457600080fd5b505afa158015611d68573d6000803e3d6000fd5b505050506040513d601f19601f82011682018060405250810190611d8c9190613cb0565b1515148015611e3057508073ffffffffffffffffffffffffffffffffffffffff16634d69ee578460000151856020015186604001516040518463ffffffff1660e01b8152600401611ddf939291906144eb565b60206040518083038186803b158015611df757600080fd5b505afa158015611e0b573d6000803e3d6000fd5b505050506040513d601f19601f82011682018060405250810190611e2f9190613cb0565b5b915050919050565b60008083611e7a6040518060400160405280601a81526020017f4f564d5f4c3243726f7373446f6d61696e4d657373656e676572000000000000815250610578565b604051602001611e8b929190614394565b604051602081830303815290604052805190602001206000604051602001611eb4929190614351565b604051602081830303815290604052805190602001209050600080611f15734200000000000000000000000000000000000000604051602001611ef7919061431b565b60405160208183030381529060405286606001518760000151611fcc565b915091506001151582151514611f60576040517f08c379a0000000000000000000000000000000000000000000000000000000008152600401611f57906145ad565b60405180910390fd5b6000611f6b82611ff5565b9050611fc084604051602001611f819190614336565b6040516020818303038152906040526001604051602001611fa291906143f5565b604051602081830303815290604052886080015184604001516120a3565b94505050505092915050565b600060606000611fdb866120c8565b9050611fe88186866120f8565b9250925050935093915050565b611ffd6136cd565b6000612008836121f4565b905060405180608001604052806120328360008151811061202557fe5b602002602001015161220e565b81526020016120548360018151811061204757fe5b602002602001015161220e565b81526020016120768360028151811061206957fe5b6020026020010151612223565b81526020016120988360038151811061208b57fe5b6020026020010151612223565b815250915050919050565b6000806120af866120c8565b90506120bd81868686612374565b915050949350505050565b606081805190602001206040516020016120e29190614336565b6040516020818303038152906040529050919050565b600060606000612107856123a7565b90506000806000612119848a89612486565b925092509250600080835114905080806121305750815b6121a2576040517f08c379a000000000000000000000000000000000000000000000000000000000815260040180806020018281038252601a8152602001807f50726f76696465642070726f6f6620697320696e76616c69642e00000000000081525060200191505060405180910390fd5b6000816121be57604051806020016040528060008152506121de565b6121dd8660018703815181106121d057fe5b6020026020010151612984565b5b9050818197509750505050505050935093915050565b6060612207612202836129b5565b6129e3565b9050919050565b600061221982612223565b60001c9050919050565b60006021826000015111156122a0576040517f08c379a000000000000000000000000000000000000000000000000000000000815260040180806020018281038252601a8152602001807f496e76616c696420524c5020627974657333322076616c75652e00000000000081525060200191505060405180910390fd5b60008060006122ae85612bcd565b925092509250600060018111156122c157fe5b8160018111156122cd57fe5b14612340576040517f08c379a000000000000000000000000000000000000000000000000000000000815260040180806020018281038252601a8152602001807f496e76616c696420524c5020627974657333322076616c75652e00000000000081525060200191505060405180910390fd5b6000838660200151019050600081519050602084101561236757836020036101000a810490505b8095505050505050919050565b60008060006123848786866120f8565b9150915081801561239b575061239a8682613003565b5b92505050949350505050565b606060006123b4836121f4565b90506000815167ffffffffffffffff811180156123d057600080fd5b5060405190808252806020026020018201604052801561240a57816020015b6123f76136fb565b8152602001906001900390816123ef5790505b50905060005b825181101561247b57600061243784838151811061242a57fe5b602002602001015161301e565b90506040518060400160405280828152602001612453836121f4565b81525083838151811061246257fe5b6020026020010181905250508080600101915050612410565b508092505050919050565b6000606060008060009050600061249c876130d9565b905060008690506000806124ae6136fb565b60005b8c51811015612934578c81815181106124c657fe5b6020026020010151915082840193506001870196506000841415612569578482600001518051906020012014612564576040517f08c379a00000000000000000000000000000000000000000000000000000000081526004018080602001828103825260118152602001807f496e76616c696420726f6f74206861736800000000000000000000000000000081525060200191505060405180910390fd5b61267e565b6020826000015151106125fb5784826000015180519060200120146125f6576040517f08c379a000000000000000000000000000000000000000000000000000000000815260040180806020018281038252601b8152602001807f496e76616c6964206c6172676520696e7465726e616c2068617368000000000081525060200191505060405180910390fd5b61267d565b846126098360000151613237565b1461267c576040517f08c379a000000000000000000000000000000000000000000000000000000000815260040180806020018281038252601a8152602001807f496e76616c696420696e7465726e616c206e6f6465206861736800000000000081525060200191505060405180910390fd5b5b5b600160100182602001515114156126f057855184141561269d57612934565b60008685815181106126ab57fe5b602001015160f81c60f81b60f81c9050600083602001518260ff16815181106126d057fe5b602002602001015190506126e381613283565b9650600194505050612927565b600282602001515114156128b9576000612709836132c1565b905060008160008151811061271a57fe5b602001015160f81c60f81b60f81c9050600060028260ff168161273957fe5b066002039050600061274e848360ff166132f3565b9050600061275c8b8a6132f3565b9050600061276a838361332b565b9050600260ff168560ff1614806127875750600360ff168560ff16145b156127db5780835114801561279c5750808251145b156127a757808a0199505b608060f81b7effffffffffffffffffffffffffffffffffffffffffffffffffffffffffffff19169a50505050505050612934565b600060ff168560ff1614806127f65750600160ff168560ff16145b15612868578251811461283757608060f81b7effffffffffffffffffffffffffffffffffffffffffffffffffffffffffffff19169a50505050505050612934565b612858886020015160018151811061284b57fe5b6020026020010151613283565b9a50809850505050505050612927565b6040517f08c379a0000000000000000000000000000000000000000000000000000000008152600401808060200182810382526026815260200180614a4b6026913960400191505060405180910390fd5b6040517f08c379a000000000000000000000000000000000000000000000000000000000815260040180806020018281038252601d8152602001807f526563656976656420616e20756e706172736561626c65206e6f64652e00000081525060200191505060405180910390fd5b80806001019150506124b1565b506000608060f81b7effffffffffffffffffffffffffffffffffffffffffffffffffffffffffffff1916851490508661296d87866132f3565b829950995099505050505050505093509350939050565b60606129ae8260200151600184602001515103815181106129a157fe5b602002602001015161301e565b9050919050565b6129bd613715565b600060208301905060405180604001604052808451815260200182815250915050919050565b60606000806129f184612bcd565b9250509150600180811115612a0257fe5b816001811115612a0e57fe5b14612a81576040517f08c379a00000000000000000000000000000000000000000000000000000000081526004018080602001828103825260178152602001807f496e76616c696420524c50206c6973742076616c75652e00000000000000000081525060200191505060405180910390fd5b6000602067ffffffffffffffff81118015612a9b57600080fd5b50604051908082528060200260200182016040528015612ad557816020015b612ac2613715565b815260200190600190039081612aba5790505b5090506000808490505b8660000151811015612bbd5760208210612b44576040517f08c379a000000000000000000000000000000000000000000000000000000000815260040180806020018281038252602a8152602001806149f3602a913960400191505060405180910390fd5b600080612b706040518060400160405280858c60000151038152602001858c6020015101815250612bcd565b509150915060405180604001604052808383018152602001848b6020015101815250858581518110612b9e57fe5b6020026020010181905250600184019350808201830192505050612adf565b8183528295505050505050919050565b600080600080846000015111612c4b576040517f08c379a00000000000000000000000000000000000000000000000000000000081526004018080602001828103825260188152602001807f524c50206974656d2063616e6e6f74206265206e756c6c2e000000000000000081525060200191505060405180910390fd5b6000846020015190506000815160001a9050607f8111612c78576000600160009450945094505050612ffc565b60b78111612d1457600060808203905080876000015111612d01576040517f08c379a00000000000000000000000000000000000000000000000000000000081526004018080602001828103825260198152602001807f496e76616c696420524c502073686f727420737472696e672e0000000000000081525060200191505060405180910390fd5b6001816000955095509550505050612ffc565b60bf8111612e4057600060b78203905080876000015111612d9d576040517f08c379a000000000000000000000000000000000000000000000000000000000815260040180806020018281038252601f8152602001807f496e76616c696420524c50206c6f6e6720737472696e67206c656e6774682e0081525060200191505060405180910390fd5b6000816020036101000a6001850151049050808201886000015111612e2a576040517f08c379a00000000000000000000000000000000000000000000000000000000081526004018080602001828103825260188152602001807f496e76616c696420524c50206c6f6e6720737472696e672e000000000000000081525060200191505060405180910390fd5b8160010181600096509650965050505050612ffc565b60f78111612edc57600060c08203905080876000015111612ec9576040517f08c379a00000000000000000000000000000000000000000000000000000000081526004018080602001828103825260178152602001807f496e76616c696420524c502073686f7274206c6973742e00000000000000000081525060200191505060405180910390fd5b6001816001955095509550505050612ffc565b600060f78203905080876000015111612f5d576040517f08c379a000000000000000000000000000000000000000000000000000000000815260040180806020018281038252601d8152602001807f496e76616c696420524c50206c6f6e67206c697374206c656e6774682e00000081525060200191505060405180910390fd5b6000816020036101000a6001850151049050808201886000015111612fea576040517f08c379a00000000000000000000000000000000000000000000000000000000081526004018080602001828103825260168152602001807f496e76616c696420524c50206c6f6e67206c6973742e0000000000000000000081525060200191505060405180910390fd5b81600101816001965096509650505050505b9193909250565b60008180519060200120838051906020012014905092915050565b6060600080600061302e85612bcd565b9250925092506000600181111561304157fe5b81600181111561304d57fe5b146130c0576040517f08c379a00000000000000000000000000000000000000000000000000000000081526004018080602001828103825260188152602001807f496e76616c696420524c502062797465732076616c75652e000000000000000081525060200191505060405180910390fd5b6130cf856020015184846133da565b9350505050919050565b60606000600283510267ffffffffffffffff811180156130f857600080fd5b506040519080825280601f01601f19166020018201604052801561312b5781602001600182028036833780820191505090505b50905060005b835181101561322d57600484828151811061314857fe5b602001015160f81c60f81b7effffffffffffffffffffffffffffffffffffffffffffffffffffffffffffff1916901c82600283028151811061318657fe5b60200101907effffffffffffffffffffffffffffffffffffffffffffffffffffffffffffff1916908160001a90535060108482815181106131c357fe5b602001015160f81c60f81b60f81c60ff16816131db57fe5b0660f81b8260016002840201815181106131f157fe5b60200101907effffffffffffffffffffffffffffffffffffffffffffffffffffffffffffff1916908160001a9053508080600101915050613131565b5080915050919050565b6000602082511015613255576000602083015190508091505061327e565b81806020019051602081101561326a57600080fd5b810190808051906020019092919050505090505b919050565b600060606020836000015110156132a45761329d836134b4565b90506132b0565b6132ad8361301e565b90505b6132b981613237565b915050919050565b60606132ec6132e783602001516000815181106132da57fe5b602002602001015161301e565b6130d9565b9050919050565b60608251821061331457604051806020016040528060008152509050613325565b6133228383848651036134c6565b90505b92915050565b600080600090505b8084511180156133435750808351115b80156133be575082818151811061335657fe5b602001015160f81c60f81b7effffffffffffffffffffffffffffffffffffffffffffffffffffffffffffff191684828151811061338f57fe5b602001015160f81c60f81b7effffffffffffffffffffffffffffffffffffffffffffffffffffffffffffff1916145b156133d0578080600101915050613333565b8091505092915050565b606060008267ffffffffffffffff811180156133f557600080fd5b506040519080825280601f01601f1916602001820160405280156134285781602001600182028036833780820191505090505b50905060008151141561343e57809150506134ad565b60008486019050600060208301905060005b6020868161345a57fe5b0481101561347f57825182526020830192506020820191508080600101915050613450565b50600060016020878161348e57fe5b066020036101000a039050808251168119845116178252839450505050505b9392505050565b60606134bf826136b0565b9050919050565b606081601f83011015613541576040517f08c379a000000000000000000000000000000000000000000000000000000000815260040180806020018281038252600e8152602001807f736c6963655f6f766572666c6f7700000000000000000000000000000000000081525060200191505060405180910390fd5b8282840110156135b9576040517f08c379a000000000000000000000000000000000000000000000000000000000815260040180806020018281038252600e8152602001807f736c6963655f6f766572666c6f7700000000000000000000000000000000000081525060200191505060405180910390fd5b81830184511015613632576040517f08c379a00000000000000000000000000000000000000000000000000000000081526004018080602001828103825260118152602001807f736c6963655f6f75744f66426f756e647300000000000000000000000000000081525060200191505060405180910390fd5b606082156000811461365357604051915060008252602082016040526136a4565b6040519150601f8416801560200281840101858101878315602002848b0101015b818310156136915780518352602083019250602081019050613674565b50868552601f19601f8301166040525050505b50809150509392505050565b60606136c68260200151600084600001516133da565b9050919050565b6040518060800160405280600081526020016000815260200160008019168152602001600080191681525090565b604051806040016040528060608152602001606081525090565b604051806040016040528060008152602001600081525090565b600061374261373d846146db565b6146aa565b9050808382526020820190508285602086028201111561376157600080fd5b60005b858110156137915781613777888261386b565b845260208401935060208301925050600181019050613764565b5050509392505050565b60006137ae6137a984614707565b6146aa565b9050828152602081018484840111156137c657600080fd5b6137d184828561488e565b509392505050565b60006137ec6137e784614737565b6146aa565b90508281526020810184848401111561380457600080fd5b61380f84828561488e565b509392505050565b60008135905061382681614959565b92915050565b600082601f83011261383d57600080fd5b813561384d84826020860161372f565b91505092915050565b60008151905061386581614970565b92915050565b60008135905061387a81614987565b92915050565b600082601f83011261389157600080fd5b81356138a184826020860161379b565b91505092915050565b600082601f8301126138bb57600080fd5b81356138cb8482602086016137d9565b91505092915050565b600060a082840312156138e657600080fd5b6138f060a06146aa565b9050600061390084828501613ac0565b60008301525060206139148482850161386b565b602083015250604061392884828501613ac0565b604083015250606061393c84828501613ac0565b606083015250608082013567ffffffffffffffff81111561395c57600080fd5b61396884828501613880565b60808301525092915050565b60006040828403121561398657600080fd5b61399060406146aa565b905060006139a084828501613ac0565b600083015250602082013567ffffffffffffffff8111156139c057600080fd5b6139cc8482850161382c565b60208301525092915050565b600060a082840312156139ea57600080fd5b6139f460a06146aa565b90506000613a048482850161386b565b600083015250602082013567ffffffffffffffff811115613a2457600080fd5b613a30848285016138d4565b602083015250604082013567ffffffffffffffff811115613a5057600080fd5b613a5c84828501613974565b604083015250606082013567ffffffffffffffff811115613a7c57600080fd5b613a8884828501613880565b606083015250608082013567ffffffffffffffff811115613aa857600080fd5b613ab484828501613880565b60808301525092915050565b600081359050613acf8161499e565b92915050565b600081359050613ae4816149b5565b92915050565b600060208284031215613afc57600080fd5b6000613b0a84828501613817565b91505092915050565b600080600080600060a08688031215613b2b57600080fd5b6000613b3988828901613817565b9550506020613b4a88828901613817565b945050604086013567ffffffffffffffff811115613b6757600080fd5b613b7388828901613880565b9350506060613b8488828901613ac0565b925050608086013567ffffffffffffffff811115613ba157600080fd5b613bad888289016139d8565b9150509295509295909350565b600080600080600060a08688031215613bd257600080fd5b6000613be088828901613817565b9550506020613bf188828901613817565b945050604086013567ffffffffffffffff811115613c0e57600080fd5b613c1a88828901613880565b9350506060613c2b88828901613ac0565b9250506080613c3c88828901613ad5565b9150509295509295909350565b600080600060608486031215613c5e57600080fd5b6000613c6c86828701613817565b935050602084013567ffffffffffffffff811115613c8957600080fd5b613c9586828701613880565b9250506040613ca686828701613ad5565b9150509250925092565b600060208284031215613cc257600080fd5b6000613cd084828501613856565b91505092915050565b600060208284031215613ceb57600080fd5b6000613cf98482850161386b565b91505092915050565b600060208284031215613d1457600080fd5b600082013567ffffffffffffffff811115613d2e57600080fd5b613d3a848285016138aa565b91505092915050565b6000613d4f8383613e05565b60208301905092915050565b613d6c613d67826147fb565b6148e2565b82525050565b613d7b816147e9565b82525050565b613d92613d8d826147e9565b6148d0565b82525050565b6000613da382614777565b613dad818561479a565b9350613db883614767565b8060005b83811015613de9578151613dd08882613d43565b9750613ddb8361478d565b925050600181019050613dbc565b5085935050505092915050565b613dff8161480d565b82525050565b613e0e81614819565b82525050565b613e1d81614819565b82525050565b613e34613e2f82614819565b6148f4565b82525050565b6000613e4582614782565b613e4f81856147ab565b9350613e5f81856020860161489d565b613e688161492e565b840191505092915050565b6000613e7e82614782565b613e8881856147bc565b9350613e9881856020860161489d565b613ea18161492e565b840191505092915050565b6000613eb782614782565b613ec181856147cd565b9350613ed181856020860161489d565b80840191505092915050565b613ee68161486a565b82525050565b6000613ef9601f836147d8565b91507f78446f6d61696e4d65737361676553656e646572206973206e6f7420736574006000830152602082019050919050565b6000613f39602b836147d8565b91507f50726f7669646564206d6573736167652068617320616c72656164792062656560008301527f6e2072656365697665642e0000000000000000000000000000000000000000006020830152604082019050919050565b6000613f9f604d836147d8565b91507f4d6573736167652070617373696e67207072656465706c6f7920686173206e6f60008301527f74206265656e20696e697469616c697a6564206f7220696e76616c696420707260208301527f6f6f662070726f76696465642e000000000000000000000000000000000000006040830152606082019050919050565b600061402b602b836147d8565b91507f50726f7669646564206d65737361676520686173206e6f7420616c726561647960008301527f206265656e2073656e742e0000000000000000000000000000000000000000006020830152604082019050919050565b60006140916022836147d8565b91507f50726f7669646564206d65737361676520686173206265656e20626c6f636b6560008301527f642e0000000000000000000000000000000000000000000000000000000000006020830152604082019050919050565b60006140f76036836147d8565b91507f4f6e6c79204f564d5f4c324d65737361676552656c617965722063616e20726560008301527f6c6179204c322d746f2d4c31206d657373616765732e000000000000000000006020830152604082019050919050565b600061415d6027836147d8565b91507f50726f7669646564206d65737361676520636f756c64206e6f7420626520766560008301527f7269666965642e000000000000000000000000000000000000000000000000006020830152604082019050919050565b60006141c3602a836147d8565b91507f4c3143726f7373446f6d61696e4d657373656e67657220616c7265616479206960008301527f6e7469616c697a65642e000000000000000000000000000000000000000000006020830152604082019050919050565b600060a08301600083015161423460008601826142cf565b5060208301516142476020860182613e05565b50604083015161425a60408601826142cf565b50606083015161426d60608601826142cf565b50608083015184820360808601526142858282613e3a565b9150508091505092915050565b60006040830160008301516142aa60008601826142cf565b50602083015184820360208601526142c28282613d98565b9150508091505092915050565b6142d881614843565b82525050565b6142e781614843565b82525050565b6142fe6142f982614843565b614910565b82525050565b6143156143108261485d565b61491a565b82525050565b60006143278284613d5b565b60148201915081905092915050565b60006143428284613e23565b60208201915081905092915050565b600061435d8285613e23565b60208201915061436d82846142ed565b6020820191508190509392505050565b60006143898284613eac565b915081905092915050565b60006143a08285613eac565b91506143ac8284613d81565b6014820191508190509392505050565b60006143c88286613eac565b91506143d48285613d5b565b6014820191506143e482846142ed565b602082019150819050949350505050565b60006144018284614304565b60018201915081905092915050565b60006020820190506144256000830184613d72565b92915050565b60006080820190506144406000830187613d72565b61444d6020830186613d72565b818103604083015261445f8185613e73565b905061446e60608301846142de565b95945050505050565b600060608201905061448c6000830186613d72565b61449960208301856142de565b81810360408301526144ab8184613e73565b9050949350505050565b60006020820190506144ca6000830184613df6565b92915050565b60006020820190506144e56000830184613e14565b92915050565b60006060820190506145006000830186613e14565b8181036020830152614512818561421c565b905081810360408301526145268184614292565b9050949350505050565b6000602082019050818103600083015261454a8184613e73565b905092915050565b60006020820190506145676000830184613edd565b92915050565b6000602082019050818103600083015261458681613eec565b9050919050565b600060208201905081810360008301526145a681613f2c565b9050919050565b600060208201905081810360008301526145c681613f92565b9050919050565b600060208201905081810360008301526145e68161401e565b9050919050565b6000602082019050818103600083015261460681614084565b9050919050565b60006020820190508181036000830152614626816140ea565b9050919050565b6000602082019050818103600083015261464681614150565b9050919050565b60006020820190508181036000830152614666816141b6565b9050919050565b60006020820190508181036000830152614687818461421c565b905092915050565b60006020820190506146a460008301846142de565b92915050565b6000604051905081810181811067ffffffffffffffff821117156146d1576146d061492c565b5b8060405250919050565b600067ffffffffffffffff8211156146f6576146f561492c565b5b602082029050602081019050919050565b600067ffffffffffffffff8211156147225761472161492c565b5b601f19601f8301169050602081019050919050565b600067ffffffffffffffff8211156147525761475161492c565b5b601f19601f8301169050602081019050919050565b6000819050602082019050919050565b600081519050919050565b600081519050919050565b6000602082019050919050565b600082825260208201905092915050565b600082825260208201905092915050565b600082825260208201905092915050565b600081905092915050565b600082825260208201905092915050565b60006147f482614823565b9050919050565b600061480682614823565b9050919050565b60008115159050919050565b6000819050919050565b600073ffffffffffffffffffffffffffffffffffffffff82169050919050565b6000819050919050565b600063ffffffff82169050919050565b600060ff82169050919050565b60006148758261487c565b9050919050565b600061488782614823565b9050919050565b82818337600083830152505050565b60005b838110156148bb5780820151818401526020810190506148a0565b838111156148ca576000848401525b50505050565b60006148db826148fe565b9050919050565b60006148ed826148fe565b9050919050565b6000819050919050565b60006149098261494c565b9050919050565b6000819050919050565b60006149258261493f565b9050919050565bfe5b6000601f19601f8301169050919050565b60008160f81b9050919050565b60008160601b9050919050565b614962816147e9565b811461496d57600080fd5b50565b6149798161480d565b811461498457600080fd5b50565b61499081614819565b811461499b57600080fd5b50565b6149a781614843565b81146149b257600080fd5b50565b6149be8161484d565b81146149c957600080fd5b5056fe4f776e61626c653a206e6577206f776e657220697320746865207a65726f206164647265737350726f766964656420524c50206c6973742065786365656473206d6178206c697374206c656e6774682e496e697469616c697a61626c653a20636f6e747261637420697320616c726561647920696e697469616c697a656452656365697665642061206e6f6465207769746820616e20756e6b6e6f776e20707265666978a26469706673582212204215bf02b82a1610d8ea3d79d32e03a7f959771dcf625bd83afd738dd88f471564736f6c63430007060033",
  "linkReferences": {},
  "deployedLinkReferences": {}
}