{
  "_format": "hh-sol-artifact-1",
  "contractName": "OVM_L2CrossDomainMessenger",
  "sourceName": "@eth-optimism/contracts/OVM/bridge/messaging/OVM_L2CrossDomainMessenger.sol",
  "abi": [
    {
      "inputs": [
        {
          "internalType": "address",
          "name": "_libAddressManager",
          "type": "address"
        }
      ],
      "stateMutability": "nonpayable",
      "type": "constructor"
    },
    {
      "anonymous": false,
      "inputs": [
        {
          "indexed": false,
          "internalType": "bytes32",
          "name": "msgHash",
          "type": "bytes32"
        }
      ],
      "name": "FailedRelayedMessage",
      "type": "event"
    },
    {
      "anonymous": false,
      "inputs": [
        {
          "indexed": false,
          "internalType": "bytes32",
          "name": "msgHash",
          "type": "bytes32"
        }
      ],
      "name": "RelayedMessage",
      "type": "event"
    },
    {
      "anonymous": false,
      "inputs": [
        {
          "indexed": false,
          "internalType": "bytes",
          "name": "message",
          "type": "bytes"
        }
      ],
      "name": "SentMessage",
      "type": "event"
    },
    {
      "inputs": [],
      "name": "libAddressManager",
      "outputs": [
        {
          "internalType": "contract Lib_AddressManager",
          "name": "",
          "type": "address"
        }
      ],
      "stateMutability": "view",
      "type": "function"
    },
    {
      "inputs": [],
      "name": "messageNonce",
      "outputs": [
        {
          "internalType": "uint256",
          "name": "",
          "type": "uint256"
        }
      ],
      "stateMutability": "view",
      "type": "function"
    },
    {
      "inputs": [
        {
          "internalType": "address",
          "name": "_target",
          "type": "address"
        },
        {
          "internalType": "address",
          "name": "_sender",
          "type": "address"
        },
        {
          "internalType": "bytes",
          "name": "_message",
          "type": "bytes"
        },
        {
          "internalType": "uint256",
          "name": "_messageNonce",
          "type": "uint256"
        }
      ],
      "name": "relayMessage",
      "outputs": [],
      "stateMutability": "nonpayable",
      "type": "function"
    },
    {
      "inputs": [
        {
          "internalType": "bytes32",
          "name": "",
          "type": "bytes32"
        }
      ],
      "name": "relayedMessages",
      "outputs": [
        {
          "internalType": "bool",
          "name": "",
          "type": "bool"
        }
      ],
      "stateMutability": "view",
      "type": "function"
    },
    {
      "inputs": [
        {
          "internalType": "string",
          "name": "_name",
          "type": "string"
        }
      ],
      "name": "resolve",
      "outputs": [
        {
          "internalType": "address",
          "name": "",
          "type": "address"
        }
      ],
      "stateMutability": "view",
      "type": "function"
    },
    {
      "inputs": [
        {
          "internalType": "address",
          "name": "_target",
          "type": "address"
        },
        {
          "internalType": "bytes",
          "name": "_message",
          "type": "bytes"
        },
        {
          "internalType": "uint32",
          "name": "_gasLimit",
          "type": "uint32"
        }
      ],
      "name": "sendMessage",
      "outputs": [],
      "stateMutability": "nonpayable",
      "type": "function"
    },
    {
      "inputs": [
        {
          "internalType": "bytes32",
          "name": "",
          "type": "bytes32"
        }
      ],
      "name": "sentMessages",
      "outputs": [
        {
          "internalType": "bool",
          "name": "",
          "type": "bool"
        }
      ],
      "stateMutability": "view",
      "type": "function"
    },
    {
      "inputs": [
        {
          "internalType": "bytes32",
          "name": "",
          "type": "bytes32"
        }
      ],
      "name": "successfulMessages",
      "outputs": [
        {
          "internalType": "bool",
          "name": "",
          "type": "bool"
        }
      ],
      "stateMutability": "view",
      "type": "function"
    },
    {
      "inputs": [],
      "name": "xDomainMessageSender",
      "outputs": [
        {
          "internalType": "address",
          "name": "",
          "type": "address"
        }
      ],
      "stateMutability": "view",
      "type": "function"
    }
  ],
  "bytecode": "0x608060405261dead600460006101000a81548173ffffffffffffffffffffffffffffffffffffffff021916908373ffffffffffffffffffffffffffffffffffffffff1602179055503480156200005457600080fd5b506040516200159c3803806200159c83398181016040528101906200007a9190620000e3565b8080600560006101000a81548173ffffffffffffffffffffffffffffffffffffffff021916908373ffffffffffffffffffffffffffffffffffffffff160217905550506001600681905550506200015d565b600081519050620000dd8162000143565b92915050565b600060208284031215620000f657600080fd5b60006200010684828501620000cc565b91505092915050565b60006200011c8262000123565b9050919050565b600073ffffffffffffffffffffffffffffffffffffffff82169050919050565b6200014e816200010f565b81146200015a57600080fd5b50565b61142f806200016d6000396000f3fe608060405234801561001057600080fd5b50600436106100935760003560e01c80636e296e45116100665780636e296e451461013257806382e3702d14610150578063b1b1b20914610180578063cbd4ece9146101b0578063ecc70428146101cc57610093565b806321d800ec14610098578063299ca478146100c85780633dbb202b146100e6578063461a447814610102575b600080fd5b6100b260048036038101906100ad9190610dae565b6101ea565b6040516100bf91906110be565b60405180910390f35b6100d061020a565b6040516100dd9190611116565b60405180910390f35b61010060048036038101906100fb9190610d47565b610230565b005b61011c60048036038101906101179190610dd7565b6102d3565b6040516101299190611057565b60405180910390f35b61013a6103ef565b6040516101479190611057565b60405180910390f35b61016a60048036038101906101659190610dae565b6104ac565b60405161017791906110be565b60405180910390f35b61019a60048036038101906101959190610dae565b6104cc565b6040516101a791906110be565b60405180910390f35b6101ca60048036038101906101c59190610ccc565b6104ec565b005b6101d46108eb565b6040516101e19190611191565b60405180910390f35b60006020528060005260406000206000915054906101000a900460ff1681565b600560009054906101000a900473ffffffffffffffffffffffffffffffffffffffff1681565b60006102408433856003546108f1565b905060016003600082825401925050819055506001600260008380519060200120815260200190815260200160002060006101000a81548160ff021916908315150217905550610296818363ffffffff16610991565b7f0ee9ffdb2334d78de97ffb066b23a352a4d35180cefb36589d663fbb1eb6f326816040516102c591906110f4565b60405180910390a150505050565b6000600560009054906101000a900473ffffffffffffffffffffffffffffffffffffffff1673ffffffffffffffffffffffffffffffffffffffff1663bf40fac1836040518263ffffffff1660e01b81526004018080602001828103825283818151815260200191508051906020019080838360005b83811015610363578082015181840152602081019050610348565b50505050905090810190601f1680156103905780820380516001836020036101000a031916815260200191505b509250505060206040518083038186803b1580156103ad57600080fd5b505afa1580156103c1573d6000803e3d6000fd5b505050506040513d60208110156103d757600080fd5b81019080805190602001909291905050509050919050565b600061dead73ffffffffffffffffffffffffffffffffffffffff16600460009054906101000a900473ffffffffffffffffffffffffffffffffffffffff1673ffffffffffffffffffffffffffffffffffffffff161415610484576040517f08c379a000000000000000000000000000000000000000000000000000000000815260040161047b90611131565b60405180910390fd5b600460009054906101000a900473ffffffffffffffffffffffffffffffffffffffff16905090565b60026020528060005260406000206000915054906101000a900460ff1681565b60016020528060005260406000206000915054906101000a900460ff1681565b60026006541415610565576040517f08c379a000000000000000000000000000000000000000000000000000000000815260040180806020018281038252601f8152602001807f5265656e7472616e637947756172643a207265656e7472616e742063616c6c0081525060200191505060405180910390fd5b600260068190555060011515610579610a3d565b1515146105bb576040517f08c379a00000000000000000000000000000000000000000000000000000000081526004016105b290611171565b60405180910390fd5b60006105c9858585856108f1565b9050600081805190602001209050600015156001600083815260200190815260200160002060009054906101000a900460ff1615151461063e576040517f08c379a000000000000000000000000000000000000000000000000000000000815260040161063590611151565b60405180910390fd5b61067c6040518060400160405280601781526020017f4f564d5f4c32546f4c314d6573736167655061737365720000000000000000008152506102d3565b73ffffffffffffffffffffffffffffffffffffffff168673ffffffffffffffffffffffffffffffffffffffff1614156106e157600180600083815260200190815260200160002060006101000a81548160ff02191690831515021790555050506108dd565b84600460006101000a81548173ffffffffffffffffffffffffffffffffffffffff021916908373ffffffffffffffffffffffffffffffffffffffff16021790555060008673ffffffffffffffffffffffffffffffffffffffff16856040516107499190611007565b6000604051808303816000865af19150503d8060008114610786576040519150601f19603f3d011682016040523d82523d6000602084013e61078b565b606091505b5050905061dead600460006101000a81548173ffffffffffffffffffffffffffffffffffffffff021916908373ffffffffffffffffffffffffffffffffffffffff16021790555060011515811515141561084657600180600084815260200190815260200160002060006101000a81548160ff0219169083151502179055507f4641df4a962071e12719d8c8c8e5ac7fc4d97b927346a3d7a335b1f7517e133c8260405161083991906110d9565b60405180910390a161087e565b7f99d0e048484baa1b1540b1367cb128acd7ab2946d1ed91ec10e3c85e4bf51b8f8260405161087591906110d9565b60405180910390a15b60008333436040516020016108959392919061101e565b604051602081830303815290604052805190602001209050600160008083815260200190815260200160002060006101000a81548160ff021916908315150217905550505050505b600160068190555050505050565b60035481565b60608484848460405160240161090a9493929190611072565b6040516020818303038152906040527fcbd4ece9000000000000000000000000000000000000000000000000000000007bffffffffffffffffffffffffffffffffffffffffffffffffffffffff19166020820180517bffffffffffffffffffffffffffffffffffffffffffffffffffffffff83818316178352505050509050949350505050565b6109cf6040518060400160405280601781526020017f4f564d5f4c32546f4c314d6573736167655061737365720000000000000000008152506102d3565b73ffffffffffffffffffffffffffffffffffffffff1663cafa81dc836040518263ffffffff1660e01b8152600401610a0791906110f4565b600060405180830381600087803b158015610a2157600080fd5b505af1158015610a35573d6000803e3d6000fd5b505050505050565b6000610a7d6040518060400160405280601a81526020017f4f564d5f4c3143726f7373446f6d61696e4d657373656e6765720000000000008152506102d3565b73ffffffffffffffffffffffffffffffffffffffff16610ad16040518060400160405280601381526020017f4f564d5f4c314d65737361676553656e646572000000000000000000000000008152506102d3565b73ffffffffffffffffffffffffffffffffffffffff1663d20341066040518163ffffffff1660e01b815260040160206040518083038186803b158015610b1657600080fd5b505afa158015610b2a573d6000803e3d6000fd5b505050506040513d601f19601f82011682018060405250810190610b4e9190610ca3565b73ffffffffffffffffffffffffffffffffffffffff1614905090565b6000610b7d610b78846111dd565b6111ac565b905082815260208101848484011115610b9557600080fd5b610ba084828561130d565b509392505050565b6000610bbb610bb68461120d565b6111ac565b905082815260208101848484011115610bd357600080fd5b610bde84828561130d565b509392505050565b600081359050610bf58161139d565b92915050565b600081519050610c0a8161139d565b92915050565b600081359050610c1f816113b4565b92915050565b600082601f830112610c3657600080fd5b8135610c46848260208601610b6a565b91505092915050565b600082601f830112610c6057600080fd5b8135610c70848260208601610ba8565b91505092915050565b600081359050610c88816113cb565b92915050565b600081359050610c9d816113e2565b92915050565b600060208284031215610cb557600080fd5b6000610cc384828501610bfb565b91505092915050565b60008060008060808587031215610ce257600080fd5b6000610cf087828801610be6565b9450506020610d0187828801610be6565b935050604085013567ffffffffffffffff811115610d1e57600080fd5b610d2a87828801610c25565b9250506060610d3b87828801610c79565b91505092959194509250565b600080600060608486031215610d5c57600080fd5b6000610d6a86828701610be6565b935050602084013567ffffffffffffffff811115610d8757600080fd5b610d9386828701610c25565b9250506040610da486828701610c8e565b9150509250925092565b600060208284031215610dc057600080fd5b6000610dce84828501610c10565b91505092915050565b600060208284031215610de957600080fd5b600082013567ffffffffffffffff811115610e0357600080fd5b610e0f84828501610c4f565b91505092915050565b610e29610e2482611287565b61134f565b82525050565b610e3881611275565b82525050565b610e4781611299565b82525050565b610e56816112a5565b82525050565b6000610e678261123d565b610e718185611248565b9350610e8181856020860161131c565b610e8a8161137f565b840191505092915050565b6000610ea08261123d565b610eaa8185611259565b9350610eba81856020860161131c565b80840191505092915050565b610ecf816112e9565b82525050565b6000610ee2601f83611264565b91507f78446f6d61696e4d65737361676553656e646572206973206e6f7420736574006000830152602082019050919050565b6000610f22602b83611264565b91507f50726f7669646564206d6573736167652068617320616c72656164792062656560008301527f6e2072656365697665642e0000000000000000000000000000000000000000006020830152604082019050919050565b6000610f88602783611264565b91507f50726f7669646564206d65737361676520636f756c64206e6f7420626520766560008301527f7269666965642e000000000000000000000000000000000000000000000000006020830152604082019050919050565b610fea816112cf565b82525050565b611001610ffc826112cf565b611373565b82525050565b60006110138284610e95565b915081905092915050565b600061102a8286610e95565b91506110368285610e18565b6014820191506110468284610ff0565b602082019150819050949350505050565b600060208201905061106c6000830184610e2f565b92915050565b60006080820190506110876000830187610e2f565b6110946020830186610e2f565b81810360408301526110a68185610e5c565b90506110b56060830184610fe1565b95945050505050565b60006020820190506110d36000830184610e3e565b92915050565b60006020820190506110ee6000830184610e4d565b92915050565b6000602082019050818103600083015261110e8184610e5c565b905092915050565b600060208201905061112b6000830184610ec6565b92915050565b6000602082019050818103600083015261114a81610ed5565b9050919050565b6000602082019050818103600083015261116a81610f15565b9050919050565b6000602082019050818103600083015261118a81610f7b565b9050919050565b60006020820190506111a66000830184610fe1565b92915050565b6000604051905081810181811067ffffffffffffffff821117156111d3576111d261137d565b5b8060405250919050565b600067ffffffffffffffff8211156111f8576111f761137d565b5b601f19601f8301169050602081019050919050565b600067ffffffffffffffff8211156112285761122761137d565b5b601f19601f8301169050602081019050919050565b600081519050919050565b600082825260208201905092915050565b600081905092915050565b600082825260208201905092915050565b6000611280826112af565b9050919050565b6000611292826112af565b9050919050565b60008115159050919050565b6000819050919050565b600073ffffffffffffffffffffffffffffffffffffffff82169050919050565b6000819050919050565b600063ffffffff82169050919050565b60006112f4826112fb565b9050919050565b6000611306826112af565b9050919050565b82818337600083830152505050565b60005b8381101561133a57808201518184015260208101905061131f565b83811115611349576000848401525b50505050565b600061135a82611361565b9050919050565b600061136c82611390565b9050919050565b6000819050919050565bfe5b6000601f19601f8301169050919050565b60008160601b9050919050565b6113a681611275565b81146113b157600080fd5b50565b6113bd816112a5565b81146113c857600080fd5b50565b6113d4816112cf565b81146113df57600080fd5b50565b6113eb816112d9565b81146113f657600080fd5b5056fea26469706673582212203f7069670bbea4c4907604b92b3433e32e39d1693e0d96e40386b88010fc420964736f6c63430007060033",
  "linkReferences": {},
  "deployedLinkReferences": {}
}