{
  "_format": "hh-sol-artifact-1",
  "contractName": "OVM_L1CrossDomainMessenger",
  "sourceName": "@eth-optimism/contracts/OVM/bridge/messaging/OVM_L1CrossDomainMessenger.sol",
  "abi": [
    {
      "inputs": [],
      "stateMutability": "nonpayable",
      "type": "constructor"
    },
    {
      "anonymous": false,
      "inputs": [
        {
          "indexed": false,
          "internalType": "bytes32",
          "name": "msgHash",
          "type": "bytes32"
        }
      ],
      "name": "FailedRelayedMessage",
      "type": "event"
    },
    {
      "anonymous": false,
      "inputs": [
        {
          "indexed": true,
          "internalType": "bytes32",
          "name": "_xDomainCalldataHash",
          "type": "bytes32"
        }
      ],
      "name": "MessageAllowed",
      "type": "event"
    },
    {
      "anonymous": false,
      "inputs": [
        {
          "indexed": true,
          "internalType": "bytes32",
          "name": "_xDomainCalldataHash",
          "type": "bytes32"
        }
      ],
      "name": "MessageBlocked",
      "type": "event"
    },
    {
      "anonymous": false,
      "inputs": [
        {
          "indexed": true,
          "internalType": "address",
          "name": "previousOwner",
          "type": "address"
        },
        {
          "indexed": true,
          "internalType": "address",
          "name": "newOwner",
          "type": "address"
        }
      ],
      "name": "OwnershipTransferred",
      "type": "event"
    },
    {
      "anonymous": false,
      "inputs": [
        {
          "indexed": false,
          "internalType": "address",
          "name": "account",
          "type": "address"
        }
      ],
      "name": "Paused",
      "type": "event"
    },
    {
      "anonymous": false,
      "inputs": [
        {
          "indexed": false,
          "internalType": "bytes32",
          "name": "msgHash",
          "type": "bytes32"
        }
      ],
      "name": "RelayedMessage",
      "type": "event"
    },
    {
      "anonymous": false,
      "inputs": [
        {
          "indexed": false,
          "internalType": "bytes",
          "name": "message",
          "type": "bytes"
        }
      ],
      "name": "SentMessage",
      "type": "event"
    },
    {
      "anonymous": false,
      "inputs": [
        {
          "indexed": false,
          "internalType": "address",
          "name": "account",
          "type": "address"
        }
      ],
      "name": "Unpaused",
      "type": "event"
    },
    {
      "inputs": [
        {
          "internalType": "bytes32",
          "name": "_xDomainCalldataHash",
          "type": "bytes32"
        }
      ],
      "name": "allowMessage",
      "outputs": [],
      "stateMutability": "nonpayable",
      "type": "function"
    },
    {
      "inputs": [
        {
          "internalType": "bytes32",
          "name": "_xDomainCalldataHash",
          "type": "bytes32"
        }
      ],
      "name": "blockMessage",
      "outputs": [],
      "stateMutability": "nonpayable",
      "type": "function"
    },
    {
      "inputs": [
        {
          "internalType": "bytes32",
          "name": "",
          "type": "bytes32"
        }
      ],
      "name": "blockedMessages",
      "outputs": [
        {
          "internalType": "bool",
          "name": "",
          "type": "bool"
        }
      ],
      "stateMutability": "view",
      "type": "function"
    },
    {
      "inputs": [
        {
          "internalType": "address",
          "name": "_libAddressManager",
          "type": "address"
        }
      ],
      "name": "initialize",
      "outputs": [],
      "stateMutability": "nonpayable",
      "type": "function"
    },
    {
      "inputs": [],
      "name": "libAddressManager",
      "outputs": [
        {
          "internalType": "contract Lib_AddressManager",
          "name": "",
          "type": "address"
        }
      ],
      "stateMutability": "view",
      "type": "function"
    },
    {
      "inputs": [],
      "name": "messageNonce",
      "outputs": [
        {
          "internalType": "uint256",
          "name": "",
          "type": "uint256"
        }
      ],
      "stateMutability": "view",
      "type": "function"
    },
    {
      "inputs": [],
      "name": "owner",
      "outputs": [
        {
          "internalType": "address",
          "name": "",
          "type": "address"
        }
      ],
      "stateMutability": "view",
      "type": "function"
    },
    {
      "inputs": [],
      "name": "pause",
      "outputs": [],
      "stateMutability": "nonpayable",
      "type": "function"
    },
    {
      "inputs": [],
      "name": "paused",
      "outputs": [
        {
          "internalType": "bool",
          "name": "",
          "type": "bool"
        }
      ],
      "stateMutability": "view",
      "type": "function"
    },
    {
      "inputs": [
        {
          "internalType": "address",
          "name": "_target",
          "type": "address"
        },
        {
          "internalType": "address",
          "name": "_sender",
          "type": "address"
        },
        {
          "internalType": "bytes",
          "name": "_message",
          "type": "bytes"
        },
        {
          "internalType": "uint256",
          "name": "_messageNonce",
          "type": "uint256"
        },
        {
          "components": [
            {
              "internalType": "bytes32",
              "name": "stateRoot",
              "type": "bytes32"
            },
            {
              "components": [
                {
                  "internalType": "uint256",
                  "name": "batchIndex",
                  "type": "uint256"
                },
                {
                  "internalType": "bytes32",
                  "name": "batchRoot",
                  "type": "bytes32"
                },
                {
                  "internalType": "uint256",
                  "name": "batchSize",
                  "type": "uint256"
                },
                {
                  "internalType": "uint256",
                  "name": "prevTotalElements",
                  "type": "uint256"
                },
                {
                  "internalType": "bytes",
                  "name": "extraData",
                  "type": "bytes"
                }
              ],
              "internalType": "struct Lib_OVMCodec.ChainBatchHeader",
              "name": "stateRootBatchHeader",
              "type": "tuple"
            },
            {
              "components": [
                {
                  "internalType": "uint256",
                  "name": "index",
                  "type": "uint256"
                },
                {
                  "internalType": "bytes32[]",
                  "name": "siblings",
                  "type": "bytes32[]"
                }
              ],
              "internalType": "struct Lib_OVMCodec.ChainInclusionProof",
              "name": "stateRootProof",
              "type": "tuple"
            },
            {
              "internalType": "bytes",
              "name": "stateTrieWitness",
              "type": "bytes"
            },
            {
              "internalType": "bytes",
              "name": "storageTrieWitness",
              "type": "bytes"
            }
          ],
          "internalType": "struct iOVM_L1CrossDomainMessenger.L2MessageInclusionProof",
          "name": "_proof",
          "type": "tuple"
        }
      ],
      "name": "relayMessage",
      "outputs": [],
      "stateMutability": "nonpayable",
      "type": "function"
    },
    {
      "inputs": [
        {
          "internalType": "bytes32",
          "name": "",
          "type": "bytes32"
        }
      ],
      "name": "relayedMessages",
      "outputs": [
        {
          "internalType": "bool",
          "name": "",
          "type": "bool"
        }
      ],
      "stateMutability": "view",
      "type": "function"
    },
    {
      "inputs": [],
      "name": "renounceOwnership",
      "outputs": [],
      "stateMutability": "nonpayable",
      "type": "function"
    },
    {
      "inputs": [
        {
          "internalType": "address",
          "name": "_target",
          "type": "address"
        },
        {
          "internalType": "address",
          "name": "_sender",
          "type": "address"
        },
        {
          "internalType": "bytes",
          "name": "_message",
          "type": "bytes"
        },
        {
          "internalType": "uint256",
          "name": "_messageNonce",
          "type": "uint256"
        },
        {
          "internalType": "uint32",
          "name": "_gasLimit",
          "type": "uint32"
        }
      ],
      "name": "replayMessage",
      "outputs": [],
      "stateMutability": "nonpayable",
      "type": "function"
    },
    {
      "inputs": [
        {
          "internalType": "string",
          "name": "_name",
          "type": "string"
        }
      ],
      "name": "resolve",
      "outputs": [
        {
          "internalType": "address",
          "name": "",
          "type": "address"
        }
      ],
      "stateMutability": "view",
      "type": "function"
    },
    {
      "inputs": [
        {
          "internalType": "address",
          "name": "_target",
          "type": "address"
        },
        {
          "internalType": "bytes",
          "name": "_message",
          "type": "bytes"
        },
        {
          "internalType": "uint32",
          "name": "_gasLimit",
          "type": "uint32"
        }
      ],
      "name": "sendMessage",
      "outputs": [],
      "stateMutability": "nonpayable",
      "type": "function"
    },
    {
      "inputs": [
        {
          "internalType": "bytes32",
          "name": "",
          "type": "bytes32"
        }
      ],
      "name": "sentMessages",
      "outputs": [
        {
          "internalType": "bool",
          "name": "",
          "type": "bool"
        }
      ],
      "stateMutability": "view",
      "type": "function"
    },
    {
      "inputs": [
        {
          "internalType": "bytes32",
          "name": "",
          "type": "bytes32"
        }
      ],
      "name": "successfulMessages",
      "outputs": [
        {
          "internalType": "bool",
          "name": "",
          "type": "bool"
        }
      ],
      "stateMutability": "view",
      "type": "function"
    },
    {
      "inputs": [
        {
          "internalType": "address",
          "name": "newOwner",
          "type": "address"
        }
      ],
      "name": "transferOwnership",
      "outputs": [],
      "stateMutability": "nonpayable",
      "type": "function"
    },
    {
      "inputs": [],
      "name": "xDomainMessageSender",
      "outputs": [
        {
          "internalType": "address",
          "name": "",
          "type": "address"
        }
      ],
      "stateMutability": "view",
      "type": "function"
    }
  ],
  "bytecode": "0x608060405261dead600460006101000a816200001a620000d2565b8173ffffffffffffffffffffffffffffffffffffffff021916908373ffffffffffffffffffffffffffffffffffffffff160217906200005862000137565b5050503480156200007357600080620000706200019e565b50505b50600080600560006101000a816200008a620000d2565b8173ffffffffffffffffffffffffffffffffffffffff021916908373ffffffffffffffffffffffffffffffffffffffff16021790620000c862000137565b505050506200020e565b6303daa959598160e01b8152836004820152602081602483336000905af158600e01573d6000803e3d6000fd5b3d6001141558600a015760016000f35b8051935060005b6040811015620001325760008183015260208101905062000116565b505050565b6322bd64c0598160e01b8152836004820152846024820152600081604483336000905af158600e01573d6000803e3d6000fd5b3d6001141558600a015760016000f35b60005b604081101562000199576000818301526020810190506200017d565b505050565b632a2a7adb598160e01b8152600481016020815285602082015260005b86811015620001db578086015181604084010152602081019050620001bb565b506020828760640184336000905af158600e01573d6000803e3d6000fd5b3d6001141558600a015760016000f35b505050565b6155cf806200021e6000396000f3fe608060405234801561001957600080610016613cb8565b50505b506004361061012a5760003560e01c806381ada46c116100b6578063c4d66de81161007a578063c4d66de8146102f4578063c6b94ab014610310578063d7fd19dd14610340578063ecc704281461035c578063f2fde38b1461037a5761012a565b806381ada46c1461025057806382e3702d1461026c5780638456cb591461029c5780638da5cb5b146102a6578063b1b1b209146102c45761012a565b8063461a4478116100fd578063461a4478146101be5780635c975abb146101ee5780636e296e451461020c578063706ceab61461022a578063715018a6146102465761012a565b80630ecf2eea1461013857806321d800ec14610154578063299ca478146101845780633dbb202b146101a2575b600080610135613cb8565b50505b610152600480360381019061014d91906147ef565b610396565b005b61016e600480360381019061016991906147ef565b6104ba565b60405161017b9190614fe6565b60405180910390f35b61018c6104e1565b6040516101999190615083565b60405180910390f35b6101bc60048036038101906101b79190614744565b61050e565b005b6101d860048036038101906101d39190614821565b6105e0565b6040516101e59190614f41565b60405180910390f35b6101f6610731565b6040516102039190614fe6565b60405180910390f35b61021461074f565b6040516102219190614f41565b60405180910390f35b610244600480360381019061023f91906146a3565b610823565b005b61024e6108c9565b005b61026a600480360381019061026591906147ef565b610a59565b005b610286600480360381019061028191906147ef565b610b7d565b6040516102939190614fe6565b60405180910390f35b6102a4610ba4565b005b6102ae610c66565b6040516102bb9190614f41565b60405180910390f35b6102de60048036038101906102d991906147ef565b610c97565b6040516102eb9190614fe6565b60405180910390f35b61030e600480360381019061030991906145af565b610cbe565b005b61032a600480360381019061032591906147ef565b610f75565b6040516103379190614fe6565b60405180910390f35b61035a600480360381019061035591906145e1565b610f9c565b005b610364611584565b60405161037191906151c0565b60405180910390f35b610394600480360381019061038f91906145af565b611591565b005b61039e6117af565b73ffffffffffffffffffffffffffffffffffffffff166103bc610c66565b73ffffffffffffffffffffffffffffffffffffffff161461044e576040517f08c379a00000000000000000000000000000000000000000000000000000000081526004018080602001828103825260208152602001807f4f776e61626c653a2063616c6c6572206973206e6f7420746865206f776e65728152506020019150506040518091039061044b613cb8565b50505b600160ce600083815260200190815260200160002060006101000a81610472613d26565b8160ff02191690831515021790610487613d89565b505050807ff52508d5339edf0d7e5060a416df98db067af561bdc60872d29c0439eaa13a0260405160405180910390a250565b6000602052806000526040600020600091506104d4613d26565b906101000a900460ff1681565b60056000906104ee613d26565b906101000a900473ffffffffffffffffffffffffffffffffffffffff1681565b600061052d845a61051d613dee565b856003610528613d26565b6117bf565b9050600160036000828261053f613d26565b01925050819061054d613d89565b5050506001600260008380519060200120815260200190815260200160002060006101000a8161057b613d26565b8160ff02191690831515021790610590613d89565b5050506105a3818363ffffffff1661185f565b7f0ee9ffdb2334d78de97ffb066b23a352a4d35180cefb36589d663fbb1eb6f326816040516105d29190615061565b60405180910390a150505050565b600060056000906105ef613d26565b906101000a900473ffffffffffffffffffffffffffffffffffffffff1673ffffffffffffffffffffffffffffffffffffffff1663bf40fac1836040518263ffffffff1660e01b81526004018080602001828103825283818151815260200191508051906020019080838360005b8381101561067757808201518184015260208101905061065c565b50505050905090810190601f1680156106a45780820380516001836020036101000a031916815260200191505b509250505060206040518083038186806106bc613e4b565b1580156106d1576000806106ce613cb8565b50505b505a6106db613eae565b50505050501580156106fa573d6000803e3d60006106f7613cb8565b50505b505050506040513d602081101561071957600080610716613cb8565b50505b81019080805190602001909291905050509050919050565b6000606a600090610740613d26565b906101000a900460ff16905090565b600061dead73ffffffffffffffffffffffffffffffffffffffff166004600090610777613d26565b906101000a900473ffffffffffffffffffffffffffffffffffffffff1673ffffffffffffffffffffffffffffffffffffffff1614156107f4576040517f08c379a00000000000000000000000000000000000000000000000000000000081526004016107e29061509e565b604051809103906107f1613cb8565b50505b6004600090610801613d26565b906101000a900473ffffffffffffffffffffffffffffffffffffffff16905090565b6000610831868686866117bf565b905060011515600260008380519060200120815260200190815260200160002060009061085c613d26565b906101000a900460ff161515146108b1576040517f08c379a000000000000000000000000000000000000000000000000000000000815260040161089f906150fe565b604051809103906108ae613cb8565b50505b6108c1818363ffffffff1661185f565b505050505050565b6108d16117af565b73ffffffffffffffffffffffffffffffffffffffff166108ef610c66565b73ffffffffffffffffffffffffffffffffffffffff1614610981576040517f08c379a00000000000000000000000000000000000000000000000000000000081526004018080602001828103825260208152602001807f4f776e61626c653a2063616c6c6572206973206e6f7420746865206f776e65728152506020019150506040518091039061097e613cb8565b50505b600073ffffffffffffffffffffffffffffffffffffffff1660386000906109a6613d26565b906101000a900473ffffffffffffffffffffffffffffffffffffffff1673ffffffffffffffffffffffffffffffffffffffff167f8be0079c531659141344cd1fd0a4f28419497f9722a3daafe3b4186f6b6457e060405160405180910390a36000603860006101000a81610a18613d26565b8173ffffffffffffffffffffffffffffffffffffffff021916908373ffffffffffffffffffffffffffffffffffffffff16021790610a54613d89565b505050565b610a616117af565b73ffffffffffffffffffffffffffffffffffffffff16610a7f610c66565b73ffffffffffffffffffffffffffffffffffffffff1614610b11576040517f08c379a00000000000000000000000000000000000000000000000000000000081526004018080602001828103825260208152602001807f4f776e61626c653a2063616c6c6572206973206e6f7420746865206f776e657281525060200191505060405180910390610b0e613cb8565b50505b600060ce600083815260200190815260200160002060006101000a81610b35613d26565b8160ff02191690831515021790610b4a613d89565b505050807f52c8a2680a9f4cc0ad0bf88f32096eadbebf0646ea611d93a0ce6a29a024040560405160405180910390a250565b600260205280600052604060002060009150610b97613d26565b906101000a900460ff1681565b610bac6117af565b73ffffffffffffffffffffffffffffffffffffffff16610bca610c66565b73ffffffffffffffffffffffffffffffffffffffff1614610c5c576040517f08c379a00000000000000000000000000000000000000000000000000000000081526004018080602001828103825260208152602001807f4f776e61626c653a2063616c6c6572206973206e6f7420746865206f776e657281525060200191505060405180910390610c59613cb8565b50505b610c64611972565b565b60006038600090610c75613d26565b906101000a900473ffffffffffffffffffffffffffffffffffffffff16905090565b600160205280600052604060002060009150610cb1613d26565b906101000a900460ff1681565b6005601590610ccb613d26565b906101000a900460ff1680610ce45750610ce3611a77565b5b80610d0357506005601490610cf7613d26565b906101000a900460ff16155b610d61576040517f08c379a000000000000000000000000000000000000000000000000000000000815260040180806020018281038252602e81526020018061557b602e913960400191505060405180910390610d5e613cb8565b50505b60006005601590610d70613d26565b906101000a900460ff161590508015610dda576001600560156101000a81610d96613d26565b8160ff02191690831515021790610dab613d89565b5050506001600560146101000a81610dc1613d26565b8160ff02191690831515021790610dd6613d89565b5050505b600073ffffffffffffffffffffffffffffffffffffffff166005600090610dff613d26565b906101000a900473ffffffffffffffffffffffffffffffffffffffff1673ffffffffffffffffffffffffffffffffffffffff1614610e7b576040517f08c379a0000000000000000000000000000000000000000000000000000000008152600401610e699061517e565b60405180910390610e78613cb8565b50505b81600560006101000a81610e8d613d26565b8173ffffffffffffffffffffffffffffffffffffffff021916908373ffffffffffffffffffffffffffffffffffffffff16021790610ec9613d89565b50505061dead600460006101000a81610ee0613d26565b8173ffffffffffffffffffffffffffffffffffffffff021916908373ffffffffffffffffffffffffffffffffffffffff16021790610f1c613d89565b505050610f27611ae3565b610f2f611c34565b610f37611e3e565b610f3f611fba565b8015610f71576000600560156101000a81610f58613d26565b8160ff02191690831515021790610f6d613d89565b5050505b5050565b60ce60205280600052604060002060009150610f8f613d26565b906101000a900460ff1681565b6002609c610fa8613d26565b1415611025576040517f08c379a000000000000000000000000000000000000000000000000000000000815260040180806020018281038252601f8152602001807f5265656e7472616e637947756172643a207265656e7472616e742063616c6c0081525060200191505060405180910390611022613cb8565b50505b6002609c8190611033613d89565b50505060006110766040518060400160405280601481526020017f4f564d5f4c324d65737361676552656c617965720000000000000000000000008152506105e0565b9050600073ffffffffffffffffffffffffffffffffffffffff168173ffffffffffffffffffffffffffffffffffffffff161461112c578073ffffffffffffffffffffffffffffffffffffffff165a6110cc613dee565b73ffffffffffffffffffffffffffffffffffffffff161461112b576040517f08c379a00000000000000000000000000000000000000000000000000000000081526004016111199061513e565b60405180910390611128613cb8565b50505b5b611134610731565b156111b0576040517f08c379a00000000000000000000000000000000000000000000000000000000081526004018080602001828103825260108152602001807f5061757361626c653a2070617573656400000000000000000000000000000000815250602001915050604051809103906111ad613cb8565b50505b60006111be878787876117bf565b9050600115156111ce828561211c565b151514611219576040517f08c379a00000000000000000000000000000000000000000000000000000000081526004016112079061515e565b60405180910390611216613cb8565b50505b6000818051906020012090506000151560016000838152602001908152602001600020600090611247613d26565b906101000a900460ff1615151461129c576040517f08c379a000000000000000000000000000000000000000000000000000000000815260040161128a906150be565b60405180910390611299613cb8565b50505b6000151560ce60008381526020019081526020016000206000906112be613d26565b906101000a900460ff16151514611313576040517f08c379a00000000000000000000000000000000000000000000000000000000081526004016113019061511e565b60405180910390611310613cb8565b50505b86600460006101000a81611325613d26565b8173ffffffffffffffffffffffffffffffffffffffff021916908373ffffffffffffffffffffffffffffffffffffffff16021790611361613d89565b50505060008873ffffffffffffffffffffffffffffffffffffffff168760405161138b9190614eae565b6000604051808303816000865a6113a0613fae565b5050505050509150503d80600081146113d5576040519150601f19603f3d011682016040523d82523d6000602084013e6113da565b606091505b5050905061dead600460006101000a816113f2613d26565b8173ffffffffffffffffffffffffffffffffffffffff021916908373ffffffffffffffffffffffffffffffffffffffff1602179061142e613d89565b5050506001151581151514156114b557600180600084815260200190815260200160002060006101000a81611461613d26565b8160ff02191690831515021790611476613d89565b5050507f4641df4a962071e12719d8c8c8e5ac7fc4d97b927346a3d7a335b1f7517e133c826040516114a89190615001565b60405180910390a16114ed565b7f99d0e048484baa1b1540b1367cb128acd7ab2946d1ed91ec10e3c85e4bf51b8f826040516114e49190615001565b60405180910390a15b6000835a6114f9613dee565b5a6115026140ae565b60405160200161151493929190614eed565b604051602081830303815290604052805190602001209050600160008083815260200190815260200160002060006101000a8161154f613d26565b8160ff02191690831515021790611564613d89565b50505050505050506001609c819061157a613d89565b5050505050505050565b600361158e613d26565b81565b6115996117af565b73ffffffffffffffffffffffffffffffffffffffff166115b7610c66565b73ffffffffffffffffffffffffffffffffffffffff1614611649576040517f08c379a00000000000000000000000000000000000000000000000000000000081526004018080602001828103825260208152602001807f4f776e61626c653a2063616c6c6572206973206e6f7420746865206f776e657281525060200191505060405180910390611646613cb8565b50505b600073ffffffffffffffffffffffffffffffffffffffff168173ffffffffffffffffffffffffffffffffffffffff1614156116d8576040517f08c379a000000000000000000000000000000000000000000000000000000000815260040180806020018281038252602681526020018061552b60269139604001915050604051809103906116d5613cb8565b50505b8073ffffffffffffffffffffffffffffffffffffffff1660386000906116fc613d26565b906101000a900473ffffffffffffffffffffffffffffffffffffffff1673ffffffffffffffffffffffffffffffffffffffff167f8be0079c531659141344cd1fd0a4f28419497f9722a3daafe3b4186f6b6457e060405160405180910390a380603860006101000a8161176d613d26565b8173ffffffffffffffffffffffffffffffffffffffff021916908373ffffffffffffffffffffffffffffffffffffffff160217906117a9613d89565b50505050565b60005a6117ba613dee565b905090565b6060848484846040516024016117d89493929190614f5c565b6040516020818303038152906040527fcbd4ece9000000000000000000000000000000000000000000000000000000007bffffffffffffffffffffffffffffffffffffffffffffffffffffffff19166020820180517bffffffffffffffffffffffffffffffffffffffffffffffffffffffff83818316178352505050509050949350505050565b61189d6040518060400160405280601d81526020017f4f564d5f43616e6f6e6963616c5472616e73616374696f6e436861696e0000008152506105e0565b73ffffffffffffffffffffffffffffffffffffffff16636fee07e06118f66040518060400160405280601a81526020017f4f564d5f4c3243726f7373446f6d61696e4d657373656e6765720000000000008152506105e0565b83856040518463ffffffff1660e01b815260040161191693929190614fa8565b6000604051808303816000878061192b613e4b565b1580156119405760008061193d613cb8565b50505b505a61194a613fae565b50505050505015801561196a573d6000803e3d6000611967613cb8565b50505b505050505050565b61197a610731565b156119f6576040517f08c379a00000000000000000000000000000000000000000000000000000000081526004018080602001828103825260108152602001807f5061757361626c653a2070617573656400000000000000000000000000000000815250602001915050604051809103906119f3613cb8565b50505b6001606a60006101000a81611a09613d26565b8160ff02191690831515021790611a1e613d89565b5050507f62e78cea01bee320cd4e420270b5ea74000d11b0c9f74754ebdbfc544b05a258611a4a6117af565b604051808273ffffffffffffffffffffffffffffffffffffffff16815260200191505060405180910390a1565b6000611add5a63996d79a5598160e01b8152602081600483336000905af158600e01573d6000803e3d6000fd5b3d6001141558600a015760016000f35b8051925060005b6040811015611ad557600081830152602081019050611abb565b505050612141565b15905090565b6005601590611af0613d26565b906101000a900460ff1680611b095750611b08611a77565b5b80611b2857506005601490611b1c613d26565b906101000a900460ff16155b611b86576040517f08c379a000000000000000000000000000000000000000000000000000000000815260040180806020018281038252602e81526020018061557b602e913960400191505060405180910390611b83613cb8565b50505b60006005601590611b95613d26565b906101000a900460ff161590508015611bff576001600560156101000a81611bbb613d26565b8160ff02191690831515021790611bd0613d89565b5050506001600560146101000a81611be6613d26565b8160ff02191690831515021790611bfb613d89565b5050505b8015611c31576000600560156101000a81611c18613d26565b8160ff02191690831515021790611c2d613d89565b5050505b50565b6005601590611c41613d26565b906101000a900460ff1680611c5a5750611c59611a77565b5b80611c7957506005601490611c6d613d26565b906101000a900460ff16155b611cd7576040517f08c379a000000000000000000000000000000000000000000000000000000000815260040180806020018281038252602e81526020018061557b602e913960400191505060405180910390611cd4613cb8565b50505b60006005601590611ce6613d26565b906101000a900460ff161590508015611d50576001600560156101000a81611d0c613d26565b8160ff02191690831515021790611d21613d89565b5050506001600560146101000a81611d37613d26565b8160ff02191690831515021790611d4c613d89565b5050505b6000611d5a6117af565b905080603860006101000a81611d6e613d26565b8173ffffffffffffffffffffffffffffffffffffffff021916908373ffffffffffffffffffffffffffffffffffffffff16021790611daa613d89565b5050508073ffffffffffffffffffffffffffffffffffffffff16600073ffffffffffffffffffffffffffffffffffffffff167f8be0079c531659141344cd1fd0a4f28419497f9722a3daafe3b4186f6b6457e060405160405180910390a3508015611e3b576000600560156101000a81611e22613d26565b8160ff02191690831515021790611e37613d89565b5050505b50565b6005601590611e4b613d26565b906101000a900460ff1680611e645750611e63611a77565b5b80611e8357506005601490611e77613d26565b906101000a900460ff16155b611ee1576040517f08c379a000000000000000000000000000000000000000000000000000000000815260040180806020018281038252602e81526020018061557b602e913960400191505060405180910390611ede613cb8565b50505b60006005601590611ef0613d26565b906101000a900460ff161590508015611f5a576001600560156101000a81611f16613d26565b8160ff02191690831515021790611f2b613d89565b5050506001600560146101000a81611f41613d26565b8160ff02191690831515021790611f56613d89565b5050505b6000606a60006101000a81611f6d613d26565b8160ff02191690831515021790611f82613d89565b5050508015611fb7576000600560156101000a81611f9e613d26565b8160ff02191690831515021790611fb3613d89565b5050505b50565b6005601590611fc7613d26565b906101000a900460ff1680611fe05750611fdf611a77565b5b80611fff57506005601490611ff3613d26565b906101000a900460ff16155b61205d576040517f08c379a000000000000000000000000000000000000000000000000000000000815260040180806020018281038252602e81526020018061557b602e91396040019150506040518091039061205a613cb8565b50505b6000600560159061206c613d26565b906101000a900460ff1615905080156120d6576001600560156101000a81612092613d26565b8160ff021916908315150217906120a7613d89565b5050506001600560146101000a816120bd613d26565b8160ff021916908315150217906120d2613d89565b5050505b6001609c81906120e4613d89565b5050508015612119576000600560156101000a81612100613d26565b8160ff02191690831515021790612115613d89565b5050505b50565b60006121278261215b565b801561213957506121388383612325565b5b905092915050565b6000808261214d613e4b565b905060008111915050919050565b60008061219c6040518060400160405280601881526020017f4f564d5f5374617465436f6d6d69746d656e74436861696e00000000000000008152506105e0565b9050600015158173ffffffffffffffffffffffffffffffffffffffff16639418bddd85602001516040518263ffffffff1660e01b81526004016121df919061519e565b60206040518083038186806121f2613e4b565b15801561220757600080612204613cb8565b50505b505a612211613eae565b5050505050158015612230573d6000803e3d600061222d613cb8565b50505b505050506040513d601f19601f8201168201806040525081019061225491906147bd565b151514801561231d57508073ffffffffffffffffffffffffffffffffffffffff16634d69ee578460000151856020015186604001516040518463ffffffff1660e01b81526004016122a79392919061501c565b60206040518083038186806122ba613e4b565b1580156122cf576000806122cc613cb8565b50505b505a6122d9613eae565b50505050501580156122f8573d6000803e3d60006122f5613cb8565b50505b505050506040513d601f19601f8201168201806040525081019061231c91906147bd565b5b915050919050565b600080836123676040518060400160405280601a81526020017f4f564d5f4c3243726f7373446f6d61696e4d657373656e6765720000000000008152506105e0565b604051602001612378929190614ec5565b6040516020818303038152906040528051906020012060006040516020016123a1929190614e82565b6040516020818303038152906040528051906020012090506000806124027342000000000000000000000000000000000000006040516020016123e49190614e4c565b604051602081830303815290604052866060015187600001516124c2565b915091506001151582151514612456576040517f08c379a0000000000000000000000000000000000000000000000000000000008152600401612444906150de565b60405180910390612453613cb8565b50505b6000612461826124eb565b90506124b6846040516020016124779190614e67565b60405160208183030381529060405260016040516020016124989190614f26565b60405160208183030381529060405288608001518460400151612599565b94505050505092915050565b6000606060006124d1866125be565b90506124de8186866125ee565b9250925050935093915050565b6124f361410b565b60006124fe836126f3565b905060405180608001604052806125288360008151811061251b57fe5b602002602001015161270d565b815260200161254a8360018151811061253d57fe5b602002602001015161270d565b815260200161256c8360028151811061255f57fe5b6020026020010151612722565b815260200161258e8360038151811061258157fe5b6020026020010151612722565b815250915050919050565b6000806125a5866125be565b90506125b381868686612885565b915050949350505050565b606081805190602001206040516020016125d89190614e67565b6040516020818303038152906040529050919050565b6000606060006125fd856128b8565b9050600080600061260f848a896129a0565b925092509250600080835114905080806126265750815b6126a1576040517f08c379a000000000000000000000000000000000000000000000000000000000815260040180806020018281038252601a8152602001807f50726f76696465642070726f6f6620697320696e76616c69642e0000000000008152506020019150506040518091039061269e613cb8565b50505b6000816126bd57604051806020016040528060008152506126dd565b6126dc8660018703815181106126cf57fe5b6020026020010151612ed6565b5b9050818197509750505050505050935093915050565b606061270661270183612f07565b612f35565b9050919050565b600061271882612722565b60001c9050919050565b60006021826000015111156127a8576040517f08c379a000000000000000000000000000000000000000000000000000000000815260040180806020018281038252601a8152602001807f496e76616c696420524c5020627974657333322076616c75652e000000000000815250602001915050604051809103906127a5613cb8565b50505b60008060006127b68561313a565b925092509250600060018111156127c957fe5b8160018111156127d557fe5b14612851576040517f08c379a000000000000000000000000000000000000000000000000000000000815260040180806020018281038252601a8152602001807f496e76616c696420524c5020627974657333322076616c75652e0000000000008152506020019150506040518091039061284e613cb8565b50505b6000838660200151019050600081519050602084101561287857836020036101000a810490505b8095505050505050919050565b60008060006128958786866125ee565b915091508180156128ac57506128ab86826135af565b5b92505050949350505050565b606060006128c5836126f3565b90506000815167ffffffffffffffff811180156128ea576000806128e7613cb8565b50505b5060405190808252806020026020018201604052801561292457816020015b612911614139565b8152602001906001900390816129095790505b50905060005b825181101561299557600061295184838151811061294457fe5b60200260200101516135ca565b9050604051806040016040528082815260200161296d836126f3565b81525083838151811061297c57fe5b602002602001018190525050808060010191505061292a565b508092505050919050565b600060606000806000905060006129b68761368e565b905060008690506000806129c8614139565b60005b8c51811015612e86578c81815181106129e057fe5b6020026020010151915082840193506001870196506000841415612a8c578482600001518051906020012014612a87576040517f08c379a00000000000000000000000000000000000000000000000000000000081526004018080602001828103825260118152602001807f496e76616c696420726f6f74206861736800000000000000000000000000000081525060200191505060405180910390612a84613cb8565b50505b612bb3565b602082600001515110612b27578482600001518051906020012014612b22576040517f08c379a000000000000000000000000000000000000000000000000000000000815260040180806020018281038252601b8152602001807f496e76616c6964206c6172676520696e7465726e616c2068617368000000000081525060200191505060405180910390612b1f613cb8565b50505b612bb2565b84612b3583600001516137f5565b14612bb1576040517f08c379a000000000000000000000000000000000000000000000000000000000815260040180806020018281038252601a8152602001807f496e76616c696420696e7465726e616c206e6f6465206861736800000000000081525060200191505060405180910390612bae613cb8565b50505b5b5b60016010018260200151511415612c25578551841415612bd257612e86565b6000868581518110612be057fe5b602001015160f81c60f81b60f81c9050600083602001518260ff1681518110612c0557fe5b60200260200101519050612c188161384a565b9650600194505050612e79565b60028260200151511415612e01576000612c3e83613888565b9050600081600081518110612c4f57fe5b602001015160f81c60f81b60f81c9050600060028260ff1681612c6e57fe5b0660020390506000612c83848360ff166138ba565b90506000612c918b8a6138ba565b90506000612c9f83836138f2565b9050600260ff168560ff161480612cbc5750600360ff168560ff16145b15612d1057808351148015612cd15750808251145b15612cdc57808a0199505b608060f81b7effffffffffffffffffffffffffffffffffffffffffffffffffffffffffffff19169a50505050505050612e86565b600060ff168560ff161480612d2b5750600160ff168560ff16145b15612d9d5782518114612d6c57608060f81b7effffffffffffffffffffffffffffffffffffffffffffffffffffffffffffff19169a50505050505050612e86565b612d8d8860200151600181518110612d8057fe5b602002602001015161384a565b9a50809850505050505050612e79565b6040517f08c379a00000000000000000000000000000000000000000000000000000000081526004018080602001828103825260268152602001806155a96026913960400191505060405180910390612df4613cb8565b5050505050505050612e78565b6040517f08c379a000000000000000000000000000000000000000000000000000000000815260040180806020018281038252601d8152602001807f526563656976656420616e20756e706172736561626c65206e6f64652e00000081525060200191505060405180910390612e75613cb8565b50505b5b80806001019150506129cb565b506000608060f81b7effffffffffffffffffffffffffffffffffffffffffffffffffffffffffffff19168514905086612ebf87866138ba565b829950995099505050505050505093509350939050565b6060612f00826020015160018460200151510381518110612ef357fe5b60200260200101516135ca565b9050919050565b612f0f614153565b600060208301905060405180604001604052808451815260200182815250915050919050565b6060600080612f438461313a565b9250509150600180811115612f5457fe5b816001811115612f6057fe5b14612fdc576040517f08c379a00000000000000000000000000000000000000000000000000000000081526004018080602001828103825260178152602001807f496e76616c696420524c50206c6973742076616c75652e00000000000000000081525060200191505060405180910390612fd9613cb8565b50505b6000602067ffffffffffffffff81118015612fff57600080612ffc613cb8565b50505b5060405190808252806020026020018201604052801561303957816020015b613026614153565b81526020019060019003908161301e5790505b5090506000808490505b866000015181101561312a57602082106130b1576040517f08c379a000000000000000000000000000000000000000000000000000000000815260040180806020018281038252602a815260200180615551602a9139604001915050604051809103906130ae613cb8565b50505b6000806130dd6040518060400160405280858c60000151038152602001858c602001510181525061313a565b509150915060405180604001604052808383018152602001848b602001510181525085858151811061310b57fe5b6020026020010181905250600184019350808201830192505050613043565b8183528295505050505050919050565b6000806000808460000151116131c1576040517f08c379a00000000000000000000000000000000000000000000000000000000081526004018080602001828103825260188152602001807f524c50206974656d2063616e6e6f74206265206e756c6c2e0000000000000000815250602001915050604051809103906131be613cb8565b50505b6000846020015190506000815160001a9050607f81116131ee5760006001600094509450945050506135a8565b60b7811161329357600060808203905080876000015111613280576040517f08c379a00000000000000000000000000000000000000000000000000000000081526004018080602001828103825260198152602001807f496e76616c696420524c502073686f727420737472696e672e000000000000008152506020019150506040518091039061327d613cb8565b50505b60018160009550955095505050506135a8565b60bf81116133d157600060b78203905080876000015111613325576040517f08c379a000000000000000000000000000000000000000000000000000000000815260040180806020018281038252601f8152602001807f496e76616c696420524c50206c6f6e6720737472696e67206c656e6774682e0081525060200191505060405180910390613322613cb8565b50505b6000816020036101000a60018501510490508082018860000151116133bb576040517f08c379a00000000000000000000000000000000000000000000000000000000081526004018080602001828103825260188152602001807f496e76616c696420524c50206c6f6e6720737472696e672e0000000000000000815250602001915050604051809103906133b8613cb8565b50505b81600101816000965096509650505050506135a8565b60f7811161347657600060c08203905080876000015111613463576040517f08c379a00000000000000000000000000000000000000000000000000000000081526004018080602001828103825260178152602001807f496e76616c696420524c502073686f7274206c6973742e00000000000000000081525060200191505060405180910390613460613cb8565b50505b60018160019550955095505050506135a8565b600060f78203905080876000015111613500576040517f08c379a000000000000000000000000000000000000000000000000000000000815260040180806020018281038252601d8152602001807f496e76616c696420524c50206c6f6e67206c697374206c656e6774682e000000815250602001915050604051809103906134fd613cb8565b50505b6000816020036101000a6001850151049050808201886000015111613596576040517f08c379a00000000000000000000000000000000000000000000000000000000081526004018080602001828103825260168152602001807f496e76616c696420524c50206c6f6e67206c6973742e0000000000000000000081525060200191505060405180910390613593613cb8565b50505b81600101816001965096509650505050505b9193909250565b60008180519060200120838051906020012014905092915050565b606060008060006135da8561313a565b925092509250600060018111156135ed57fe5b8160018111156135f957fe5b14613675576040517f08c379a00000000000000000000000000000000000000000000000000000000081526004018080602001828103825260188152602001807f496e76616c696420524c502062797465732076616c75652e000000000000000081525060200191505060405180910390613672613cb8565b50505b613684856020015184846139a1565b9350505050919050565b60606000600283510267ffffffffffffffff811180156136b6576000806136b3613cb8565b50505b506040519080825280601f01601f1916602001820160405280156136e95781602001600182028036833780820191505090505b50905060005b83518110156137eb57600484828151811061370657fe5b602001015160f81c60f81b7effffffffffffffffffffffffffffffffffffffffffffffffffffffffffffff1916901c82600283028151811061374457fe5b60200101907effffffffffffffffffffffffffffffffffffffffffffffffffffffffffffff1916908160001a905350601084828151811061378157fe5b602001015160f81c60f81b60f81c60ff168161379957fe5b0660f81b8260016002840201815181106137af57fe5b60200101907effffffffffffffffffffffffffffffffffffffffffffffffffffffffffffff1916908160001a90535080806001019150506136ef565b5080915050919050565b60006020825110156138135760006020830151905080915050613845565b8180602001905160208110156138315760008061382e613cb8565b50505b810190808051906020019092919050505090505b919050565b6000606060208360000151101561386b5761386483613a84565b9050613877565b613874836135ca565b90505b613880816137f5565b915050919050565b60606138b36138ae83602001516000815181106138a157fe5b60200260200101516135ca565b61368e565b9050919050565b6060825182106138db576040518060200160405280600081525090506138ec565b6138e9838384865103613a96565b90505b92915050565b600080600090505b80845111801561390a5750808351115b8015613985575082818151811061391d57fe5b602001015160f81c60f81b7effffffffffffffffffffffffffffffffffffffffffffffffffffffffffffff191684828151811061395657fe5b602001015160f81c60f81b7effffffffffffffffffffffffffffffffffffffffffffffffffffffffffffff1916145b156139975780806001019150506138fa565b8091505092915050565b606060008267ffffffffffffffff811180156139c5576000806139c2613cb8565b50505b506040519080825280601f01601f1916602001820160405280156139f85781602001600182028036833780820191505090505b509050600081511415613a0e5780915050613a7d565b60008486019050600060208301905060005b60208681613a2a57fe5b04811015613a4f57825182526020830192506020820191508080600101915050613a20565b506000600160208781613a5e57fe5b066020036101000a039050808251168119845116178252839450505050505b9392505050565b6060613a8f82613c9b565b9050919050565b606081601f83011015613b1a576040517f08c379a000000000000000000000000000000000000000000000000000000000815260040180806020018281038252600e8152602001807f736c6963655f6f766572666c6f7700000000000000000000000000000000000081525060200191505060405180910390613b17613cb8565b50505b828284011015613b9b576040517f08c379a000000000000000000000000000000000000000000000000000000000815260040180806020018281038252600e8152602001807f736c6963655f6f766572666c6f7700000000000000000000000000000000000081525060200191505060405180910390613b98613cb8565b50505b81830184511015613c1d576040517f08c379a00000000000000000000000000000000000000000000000000000000081526004018080602001828103825260118152602001807f736c6963655f6f75744f66426f756e647300000000000000000000000000000081525060200191505060405180910390613c1a613cb8565b50505b6060821560008114613c3e5760405191506000825260208201604052613c8f565b6040519150601f8416801560200281840101858101878315602002848b0101015b81831015613c7c5780518352602083019250602081019050613c5f565b50868552601f19601f8301166040525050505b50809150509392505050565b6060613cb18260200151600084600001516139a1565b9050919050565b632a2a7adb598160e01b8152600481016020815285602082015260005b86811015613cf3578086015181604084010152602081019050613cd5565b506020828760640184336000905af158600e01573d6000803e3d6000fd5b3d6001141558600a015760016000f35b505050565b6303daa959598160e01b8152836004820152602081602483336000905af158600e01573d6000803e3d6000fd5b3d6001141558600a015760016000f35b8051935060005b6040811015613d8457600081830152602081019050613d6a565b505050565b6322bd64c0598160e01b8152836004820152846024820152600081604483336000905af158600e01573d6000803e3d6000fd5b3d6001141558600a015760016000f35b60005b6040811015613de957600081830152602081019050613dcf565b505050565b6373509064598160e01b8152602081600483336000905af158600e01573d6000803e3d6000fd5b3d6001141558600a015760016000f35b8051935060005b6040811015613e4657600081830152602081019050613e2c565b505050565b638435035b598160e01b8152836004820152602081602483336000905af158600e01573d6000803e3d6000fd5b3d6001141558600a015760016000f35b8051935060005b6040811015613ea957600081830152602081019050613e8f565b505050565b638540661f598160e01b8152613eed565b600081905081831115613ed0578290505b92915050565b600081905081831015613ee7578290505b92915050565b836004820152846024820152606060448201528660648201526084810160005b88811015613f28578088015181830152602081019050613f0d565b506060828960a40184336000905af158600e01573d6000803e3d6000fd5b3d6001141558600a015760016000f35b815160408301513d6000853e8b8b82606087013350600060045af15059613f7d8d3d613ed6565b8c01613f898187613ebf565b5b82811015613fa15760008152602081019050613f8a565b50839d5050505050505050565b6385979f76598160e01b8152613fed565b600081905081831115613fd0578290505b92915050565b600081905081831015613fe7578290505b92915050565b836004820152846024820152606060448201528760648201526084810160005b8981101561402857808901518183015260208101905061400d565b506060828a60a40184336000905af158600e01573d6000803e3d6000fd5b3d6001141558600a015760016000f35b815160408301513d6000853e8c8c82606087013350600060045af1505961407d8e3d613fd6565b8d016140898187613fbf565b5b828110156140a1576000815260208101905061408a565b50839e5050505050505050565b635a98c361598160e01b8152602081600483336000905af158600e01573d6000803e3d6000fd5b3d6001141558600a015760016000f35b8051935060005b6040811015614106576000818301526020810190506140ec565b505050565b6040518060800160405280600081526020016000815260200160008019168152602001600080191681525090565b604051806040016040528060608152602001606081525090565b604051806040016040528060008152602001600081525090565b600061418061417b8461520c565b6151db565b905080838252602082019050828560208602820111156141a8576000806141a5613cb8565b50505b60005b858110156141d857816141be88826142cd565b8452602084019350602083019250506001810190506141ab565b5050509392505050565b60006141f56141f084615238565b6151db565b90508281526020810184848401111561421657600080614213613cb8565b50505b6142218482856153bf565b509392505050565b600061423c61423784615268565b6151db565b90508281526020810184848401111561425d5760008061425a613cb8565b50505b6142688482856153bf565b509392505050565b60008135905061427f8161548a565b92915050565b600082601f83011261429f5760008061429c613cb8565b50505b81356142af84826020860161416d565b91505092915050565b6000815190506142c7816154aa565b92915050565b6000813590506142dc816154ca565b92915050565b600082601f8301126142fc576000806142f9613cb8565b50505b813561430c8482602086016141e2565b91505092915050565b600082601f83011261432f5760008061432c613cb8565b50505b813561433f848260208601614229565b91505092915050565b600060a0828403121561436357600080614360613cb8565b50505b61436d60a06151db565b9050600061437d84828501614585565b6000830152506020614391848285016142cd565b60208301525060406143a584828501614585565b60408301525060606143b984828501614585565b606083015250608082013567ffffffffffffffff8111156143e2576000806143df613cb8565b50505b6143ee848285016142e2565b60808301525092915050565b60006040828403121561441557600080614412613cb8565b50505b61441f60406151db565b9050600061442f84828501614585565b600083015250602082013567ffffffffffffffff81111561445857600080614455613cb8565b50505b61446484828501614285565b60208301525092915050565b600060a0828403121561448b57600080614488613cb8565b50505b61449560a06151db565b905060006144a5848285016142cd565b600083015250602082013567ffffffffffffffff8111156144ce576000806144cb613cb8565b50505b6144da84828501614348565b602083015250604082013567ffffffffffffffff81111561450357600080614500613cb8565b50505b61450f848285016143fa565b604083015250606082013567ffffffffffffffff81111561453857600080614535613cb8565b50505b614544848285016142e2565b606083015250608082013567ffffffffffffffff81111561456d5760008061456a613cb8565b50505b614579848285016142e2565b60808301525092915050565b600081359050614594816154ea565b92915050565b6000813590506145a98161550a565b92915050565b6000602082840312156145ca576000806145c7613cb8565b50505b60006145d884828501614270565b91505092915050565b600080600080600060a08688031215614602576000806145ff613cb8565b50505b600061461088828901614270565b955050602061462188828901614270565b945050604086013567ffffffffffffffff81111561464757600080614644613cb8565b50505b614653888289016142e2565b935050606061466488828901614585565b925050608086013567ffffffffffffffff81111561468a57600080614687613cb8565b50505b61469688828901614470565b9150509295509295909350565b600080600080600060a086880312156146c4576000806146c1613cb8565b50505b60006146d288828901614270565b95505060206146e388828901614270565b945050604086013567ffffffffffffffff81111561470957600080614706613cb8565b50505b614715888289016142e2565b935050606061472688828901614585565b92505060806147378882890161459a565b9150509295509295909350565b6000806000606084860312156147625760008061475f613cb8565b50505b600061477086828701614270565b935050602084013567ffffffffffffffff81111561479657600080614793613cb8565b50505b6147a2868287016142e2565b92505060406147b38682870161459a565b9150509250925092565b6000602082840312156147d8576000806147d5613cb8565b50505b60006147e6848285016142b8565b91505092915050565b60006020828403121561480a57600080614807613cb8565b50505b6000614818848285016142cd565b91505092915050565b60006020828403121561483c57600080614839613cb8565b50505b600082013567ffffffffffffffff81111561485f5760008061485c613cb8565b50505b61486b84828501614315565b91505092915050565b60006148808383614936565b60208301905092915050565b61489d6148988261532c565b615413565b82525050565b6148ac8161531a565b82525050565b6148c36148be8261531a565b615401565b82525050565b60006148d4826152a8565b6148de81856152cb565b93506148e983615298565b8060005b8381101561491a5781516149018882614874565b975061490c836152be565b9250506001810190506148ed565b5085935050505092915050565b6149308161533e565b82525050565b61493f8161534a565b82525050565b61494e8161534a565b82525050565b6149656149608261534a565b615425565b82525050565b6000614976826152b3565b61498081856152dc565b93506149908185602086016153ce565b6149998161545f565b840191505092915050565b60006149af826152b3565b6149b981856152ed565b93506149c98185602086016153ce565b6149d28161545f565b840191505092915050565b60006149e8826152b3565b6149f281856152fe565b9350614a028185602086016153ce565b80840191505092915050565b614a178161539b565b82525050565b6000614a2a601f83615309565b91507f78446f6d61696e4d65737361676553656e646572206973206e6f7420736574006000830152602082019050919050565b6000614a6a602b83615309565b91507f50726f7669646564206d6573736167652068617320616c72656164792062656560008301527f6e2072656365697665642e0000000000000000000000000000000000000000006020830152604082019050919050565b6000614ad0604d83615309565b91507f4d6573736167652070617373696e67207072656465706c6f7920686173206e6f60008301527f74206265656e20696e697469616c697a6564206f7220696e76616c696420707260208301527f6f6f662070726f76696465642e000000000000000000000000000000000000006040830152606082019050919050565b6000614b5c602b83615309565b91507f50726f7669646564206d65737361676520686173206e6f7420616c726561647960008301527f206265656e2073656e742e0000000000000000000000000000000000000000006020830152604082019050919050565b6000614bc2602283615309565b91507f50726f7669646564206d65737361676520686173206265656e20626c6f636b6560008301527f642e0000000000000000000000000000000000000000000000000000000000006020830152604082019050919050565b6000614c28603683615309565b91507f4f6e6c79204f564d5f4c324d65737361676552656c617965722063616e20726560008301527f6c6179204c322d746f2d4c31206d657373616765732e000000000000000000006020830152604082019050919050565b6000614c8e602783615309565b91507f50726f7669646564206d65737361676520636f756c64206e6f7420626520766560008301527f7269666965642e000000000000000000000000000000000000000000000000006020830152604082019050919050565b6000614cf4602a83615309565b91507f4c3143726f7373446f6d61696e4d657373656e67657220616c7265616479206960008301527f6e7469616c697a65642e000000000000000000000000000000000000000000006020830152604082019050919050565b600060a083016000830151614d656000860182614e00565b506020830151614d786020860182614936565b506040830151614d8b6040860182614e00565b506060830151614d9e6060860182614e00565b5060808301518482036080860152614db6828261496b565b9150508091505092915050565b6000604083016000830151614ddb6000860182614e00565b5060208301518482036020860152614df382826148c9565b9150508091505092915050565b614e0981615374565b82525050565b614e1881615374565b82525050565b614e2f614e2a82615374565b615441565b82525050565b614e46614e418261538e565b61544b565b82525050565b6000614e58828461488c565b60148201915081905092915050565b6000614e738284614954565b60208201915081905092915050565b6000614e8e8285614954565b602082019150614e9e8284614e1e565b6020820191508190509392505050565b6000614eba82846149dd565b915081905092915050565b6000614ed182856149dd565b9150614edd82846148b2565b6014820191508190509392505050565b6000614ef982866149dd565b9150614f05828561488c565b601482019150614f158284614e1e565b602082019150819050949350505050565b6000614f328284614e35565b60018201915081905092915050565b6000602082019050614f5660008301846148a3565b92915050565b6000608082019050614f7160008301876148a3565b614f7e60208301866148a3565b8181036040830152614f9081856149a4565b9050614f9f6060830184614e0f565b95945050505050565b6000606082019050614fbd60008301866148a3565b614fca6020830185614e0f565b8181036040830152614fdc81846149a4565b9050949350505050565b6000602082019050614ffb6000830184614927565b92915050565b60006020820190506150166000830184614945565b92915050565b60006060820190506150316000830186614945565b81810360208301526150438185614d4d565b905081810360408301526150578184614dc3565b9050949350505050565b6000602082019050818103600083015261507b81846149a4565b905092915050565b60006020820190506150986000830184614a0e565b92915050565b600060208201905081810360008301526150b781614a1d565b9050919050565b600060208201905081810360008301526150d781614a5d565b9050919050565b600060208201905081810360008301526150f781614ac3565b9050919050565b6000602082019050818103600083015261511781614b4f565b9050919050565b6000602082019050818103600083015261513781614bb5565b9050919050565b6000602082019050818103600083015261515781614c1b565b9050919050565b6000602082019050818103600083015261517781614c81565b9050919050565b6000602082019050818103600083015261519781614ce7565b9050919050565b600060208201905081810360008301526151b88184614d4d565b905092915050565b60006020820190506151d56000830184614e0f565b92915050565b6000604051905081810181811067ffffffffffffffff821117156152025761520161545d565b5b8060405250919050565b600067ffffffffffffffff8211156152275761522661545d565b5b602082029050602081019050919050565b600067ffffffffffffffff8211156152535761525261545d565b5b601f19601f8301169050602081019050919050565b600067ffffffffffffffff8211156152835761528261545d565b5b601f19601f8301169050602081019050919050565b6000819050602082019050919050565b600081519050919050565b600081519050919050565b6000602082019050919050565b600082825260208201905092915050565b600082825260208201905092915050565b600082825260208201905092915050565b600081905092915050565b600082825260208201905092915050565b600061532582615354565b9050919050565b600061533782615354565b9050919050565b60008115159050919050565b6000819050919050565b600073ffffffffffffffffffffffffffffffffffffffff82169050919050565b6000819050919050565b600063ffffffff82169050919050565b600060ff82169050919050565b60006153a6826153ad565b9050919050565b60006153b882615354565b9050919050565b82818337600083830152505050565b60005b838110156153ec5780820151818401526020810190506153d1565b838111156153fb576000848401525b50505050565b600061540c8261542f565b9050919050565b600061541e8261542f565b9050919050565b6000819050919050565b600061543a8261547d565b9050919050565b6000819050919050565b600061545682615470565b9050919050565bfe5b6000601f19601f8301169050919050565b60008160f81b9050919050565b60008160601b9050919050565b6154938161531a565b81146154a7576000806154a4613cb8565b50505b50565b6154b38161533e565b81146154c7576000806154c4613cb8565b50505b50565b6154d38161534a565b81146154e7576000806154e4613cb8565b50505b50565b6154f381615374565b811461550757600080615504613cb8565b50505b50565b6155138161537e565b811461552757600080615524613cb8565b50505b5056fe4f776e61626c653a206e6577206f776e657220697320746865207a65726f206164647265737350726f766964656420524c50206c6973742065786365656473206d6178206c697374206c656e6774682e496e697469616c697a61626c653a20636f6e747261637420697320616c726561647920696e697469616c697a656452656365697665642061206e6f6465207769746820616e20756e6b6e6f776e20707265666978",
  "linkReferences": {},
  "deployedLinkReferences": {}
}