{
  "_format": "hh-sol-artifact-1",
  "contractName": "Lib_AddressManager",
  "sourceName": "@eth-optimism/contracts/libraries/resolver/Lib_AddressManager.sol",
  "abi": [
    {
      "anonymous": false,
      "inputs": [
        {
          "indexed": false,
          "internalType": "string",
          "name": "_name",
          "type": "string"
        },
        {
          "indexed": false,
          "internalType": "address",
          "name": "_newAddress",
          "type": "address"
        }
      ],
      "name": "AddressSet",
      "type": "event"
    },
    {
      "anonymous": false,
      "inputs": [
        {
          "indexed": true,
          "internalType": "address",
          "name": "previousOwner",
          "type": "address"
        },
        {
          "indexed": true,
          "internalType": "address",
          "name": "newOwner",
          "type": "address"
        }
      ],
      "name": "OwnershipTransferred",
      "type": "event"
    },
    {
      "inputs": [
        {
          "internalType": "string",
          "name": "_name",
          "type": "string"
        }
      ],
      "name": "getAddress",
      "outputs": [
        {
          "internalType": "address",
          "name": "",
          "type": "address"
        }
      ],
      "stateMutability": "view",
      "type": "function"
    },
    {
      "inputs": [],
      "name": "owner",
      "outputs": [
        {
          "internalType": "address",
          "name": "",
          "type": "address"
        }
      ],
      "stateMutability": "view",
      "type": "function"
    },
    {
      "inputs": [],
      "name": "renounceOwnership",
      "outputs": [],
      "stateMutability": "nonpayable",
      "type": "function"
    },
    {
      "inputs": [
        {
          "internalType": "string",
          "name": "_name",
          "type": "string"
        },
        {
          "internalType": "address",
          "name": "_address",
          "type": "address"
        }
      ],
      "name": "setAddress",
      "outputs": [],
      "stateMutability": "nonpayable",
      "type": "function"
    },
    {
      "inputs": [
        {
          "internalType": "address",
          "name": "newOwner",
          "type": "address"
        }
      ],
      "name": "transferOwnership",
      "outputs": [],
      "stateMutability": "nonpayable",
      "type": "function"
    }
  ],
  "bytecode": "0x6080604052348015610019576000806100166100ed565b50505b50600061002a6100dd60201b60201c565b9050806000806101000a8161003d61015b565b8173ffffffffffffffffffffffffffffffffffffffff021916908373ffffffffffffffffffffffffffffffffffffffff160217906100796101be565b5050508073ffffffffffffffffffffffffffffffffffffffff16600073ffffffffffffffffffffffffffffffffffffffff167f8be0079c531659141344cd1fd0a4f28419497f9722a3daafe3b4186f6b6457e060405160405180910390a350610280565b60005a6100e8610223565b905090565b632a2a7adb598160e01b8152600481016020815285602082015260005b8681101561012857808601518160408401015260208101905061010a565b506020828760640184336000905af158600e01573d6000803e3d6000fd5b3d6001141558600a015760016000f35b505050565b6303daa959598160e01b8152836004820152602081602483336000905af158600e01573d6000803e3d6000fd5b3d6001141558600a015760016000f35b8051935060005b60408110156101b95760008183015260208101905061019f565b505050565b6322bd64c0598160e01b8152836004820152846024820152600081604483336000905af158600e01573d6000803e3d6000fd5b3d6001141558600a015760016000f35b60005b604081101561021e57600081830152602081019050610204565b505050565b6373509064598160e01b8152602081600483336000905af158600e01573d6000803e3d6000fd5b3d6001141558600a015760016000f35b8051935060005b604081101561027b57600081830152602081019050610261565b505050565b610b4a8061028f6000396000f3fe608060405234801561001957600080610016610990565b50505b50600436106100605760003560e01c8063715018a61461006e5780638da5cb5b146100785780639b2ea4bd146100ac578063bf40fac1146101ab578063f2fde38b146102b4575b60008061006b610990565b50505b610076610301565b005b61008061048e565b604051808273ffffffffffffffffffffffffffffffffffffffff16815260200191505060405180910390f35b6101a9600480360360408110156100cb576000806100c8610990565b50505b81019080803590602001906401000000008111156100f1576000806100ee610990565b50505b82018360208201111561010c57600080610109610990565b50505b8035906020019184600183028401116401000000008311171561013757600080610134610990565b50505b91908080601f016020809104026020016040519081016040528093929190818152602001838380828437600081840152601f19601f820116905080830192505050505050509192919290803573ffffffffffffffffffffffffffffffffffffffff1690602001909291905050506104be565b005b610288600480360360208110156101ca576000806101c7610990565b50505b81019080803590602001906401000000008111156101f0576000806101ed610990565b50505b82018360208201111561020b57600080610208610990565b50505b8035906020019184600183028401116401000000008311171561023657600080610233610990565b50505b91908080601f016020809104026020016040519081016040528093929190818152602001838380828437600081840152601f19601f82011690508083019250505050505050919291929050505061069e565b604051808273ffffffffffffffffffffffffffffffffffffffff16815260200191505060405180910390f35b6102ff600480360360208110156102d3576000806102d0610990565b50505b81019080803573ffffffffffffffffffffffffffffffffffffffff1690602001909291905050506106ea565b005b610309610905565b73ffffffffffffffffffffffffffffffffffffffff1661032761048e565b73ffffffffffffffffffffffffffffffffffffffff16146103b9576040517f08c379a00000000000000000000000000000000000000000000000000000000081526004018080602001828103825260208152602001807f4f776e61626c653a2063616c6c6572206973206e6f7420746865206f776e6572815250602001915050604051809103906103b6610990565b50505b600073ffffffffffffffffffffffffffffffffffffffff166000806103dc6109fe565b906101000a900473ffffffffffffffffffffffffffffffffffffffff1673ffffffffffffffffffffffffffffffffffffffff167f8be0079c531659141344cd1fd0a4f28419497f9722a3daafe3b4186f6b6457e060405160405180910390a360008060006101000a8161044d6109fe565b8173ffffffffffffffffffffffffffffffffffffffff021916908373ffffffffffffffffffffffffffffffffffffffff16021790610489610a61565b505050565b60008060009061049c6109fe565b906101000a900473ffffffffffffffffffffffffffffffffffffffff16905090565b6104c6610905565b73ffffffffffffffffffffffffffffffffffffffff166104e461048e565b73ffffffffffffffffffffffffffffffffffffffff1614610576576040517f08c379a00000000000000000000000000000000000000000000000000000000081526004018080602001828103825260208152602001807f4f776e61626c653a2063616c6c6572206973206e6f7420746865206f776e657281525060200191505060405180910390610573610990565b50505b806001600061058485610915565b815260200190815260200160002060006101000a816105a16109fe565b8173ffffffffffffffffffffffffffffffffffffffff021916908373ffffffffffffffffffffffffffffffffffffffff160217906105dd610a61565b5050507f188466739ff00cc68bfb2367d23ae4b855264264fe1624caa8884399af23454c828260405180806020018373ffffffffffffffffffffffffffffffffffffffff168152602001828103825284818151815260200191508051906020019080838360005b8381101561065f578082015181840152602081019050610644565b50505050905090810190601f16801561068c5780820380516001836020036101000a031916815260200191505b50935050505060405180910390a15050565b6000600160006106ad84610915565b81526020019081526020016000206000906106c66109fe565b906101000a900473ffffffffffffffffffffffffffffffffffffffff169050919050565b6106f2610905565b73ffffffffffffffffffffffffffffffffffffffff1661071061048e565b73ffffffffffffffffffffffffffffffffffffffff16146107a2576040517f08c379a00000000000000000000000000000000000000000000000000000000081526004018080602001828103825260208152602001807f4f776e61626c653a2063616c6c6572206973206e6f7420746865206f776e65728152506020019150506040518091039061079f610990565b50505b600073ffffffffffffffffffffffffffffffffffffffff168173ffffffffffffffffffffffffffffffffffffffff161415610831576040517f08c379a0000000000000000000000000000000000000000000000000000000008152600401808060200182810382526026815260200180610b24602691396040019150506040518091039061082e610990565b50505b8073ffffffffffffffffffffffffffffffffffffffff166000806108536109fe565b906101000a900473ffffffffffffffffffffffffffffffffffffffff1673ffffffffffffffffffffffffffffffffffffffff167f8be0079c531659141344cd1fd0a4f28419497f9722a3daafe3b4186f6b6457e060405160405180910390a3806000806101000a816108c36109fe565b8173ffffffffffffffffffffffffffffffffffffffff021916908373ffffffffffffffffffffffffffffffffffffffff160217906108ff610a61565b50505050565b60005a610910610ac6565b905090565b6000816040516020018082805190602001908083835b6020831061094e578051825260208201915060208101905060208303925061092b565b6001836020036101000a038019825116818451168082178552505050505050905001915050604051602081830303815290604052805190602001209050919050565b632a2a7adb598160e01b8152600481016020815285602082015260005b868110156109cb5780860151816040840101526020810190506109ad565b506020828760640184336000905af158600e01573d6000803e3d6000fd5b3d6001141558600a015760016000f35b505050565b6303daa959598160e01b8152836004820152602081602483336000905af158600e01573d6000803e3d6000fd5b3d6001141558600a015760016000f35b8051935060005b6040811015610a5c57600081830152602081019050610a42565b505050565b6322bd64c0598160e01b8152836004820152846024820152600081604483336000905af158600e01573d6000803e3d6000fd5b3d6001141558600a015760016000f35b60005b6040811015610ac157600081830152602081019050610aa7565b505050565b6373509064598160e01b8152602081600483336000905af158600e01573d6000803e3d6000fd5b3d6001141558600a015760016000f35b8051935060005b6040811015610b1e57600081830152602081019050610b04565b50505056fe4f776e61626c653a206e6577206f776e657220697320746865207a65726f2061646472657373",
  "linkReferences": {},
  "deployedLinkReferences": {}
}